{
    "contractAddress": "0x75F29125Cce2B86B47146d2D6087e71d25145bC2",
    "_format": "hh-sol-artifact-1",
    "contractName": "AuctionCreator",
    "sourceName": "contracts/AuctionCreator.sol",
    "abi": [
        {
            "inputs": [
                {
                    "internalType": "address",
                    "name": "_mintMusicTokenAddress",
                    "type": "address"
                }
            ],
            "stateMutability": "nonpayable",
            "type": "constructor"
        },
        {
            "inputs": [],
            "name": "allAuctions",
            "outputs": [
                {
                    "components": [
                        {
                            "internalType": "uint256",
                            "name": "tokenId",
                            "type": "uint256"
                        },
                        {
                            "internalType": "address",
                            "name": "msgSender",
                            "type": "address"
                        },
                        {
                            "internalType": "contract Auction",
                            "name": "newAuctionContract",
                            "type": "address"
                        }
                    ],
                    "internalType": "struct AuctionCreator.AuctionInformation[]",
                    "name": "",
                    "type": "tuple[]"
                }
            ],
            "stateMutability": "view",
            "type": "function"
        },
        {
            "inputs": [
                {
                    "internalType": "uint256",
                    "name": "",
                    "type": "uint256"
                }
            ],
            "name": "auctions",
            "outputs": [
                {
                    "internalType": "uint256",
                    "name": "tokenId",
                    "type": "uint256"
                },
                {
                    "internalType": "address",
                    "name": "msgSender",
                    "type": "address"
                },
                {
                    "internalType": "contract Auction",
                    "name": "newAuctionContract",
                    "type": "address"
                }
            ],
            "stateMutability": "view",
            "type": "function"
        },
        {
            "inputs": [
                {
                    "internalType": "uint256",
                    "name": "_startingBid",
                    "type": "uint256"
                },
                {
                    "internalType": "uint256",
                    "name": "_endAt",
                    "type": "uint256"
                },
                {
                    "internalType": "uint256",
                    "name": "_tokenID",
                    "type": "uint256"
                },
                {
                    "internalType": "uint256",
                    "name": "_minimumBid",
                    "type": "uint256"
                }
            ],
            "name": "createAuction",
            "outputs": [],
            "stateMutability": "nonpayable",
            "type": "function"
        },
        {
            "inputs": [
                {
                    "internalType": "address",
                    "name": "_myAddress",
                    "type": "address"
                }
            ],
            "name": "getMyAuctions",
            "outputs": [
                {
                    "components": [
                        {
                            "internalType": "uint256",
                            "name": "tokenId",
                            "type": "uint256"
                        },
                        {
                            "internalType": "address",
                            "name": "msgSender",
                            "type": "address"
                        },
                        {
                            "internalType": "contract Auction",
                            "name": "newAuctionContract",
                            "type": "address"
                        }
                    ],
                    "internalType": "struct AuctionCreator.AuctionInformation[]",
                    "name": "",
                    "type": "tuple[]"
                }
            ],
            "stateMutability": "view",
            "type": "function"
        },
        {
            "inputs": [],
            "name": "mintMusicTokenAddress",
            "outputs": [
                {
                    "internalType": "contract MintMusicToken",
                    "name": "",
                    "type": "address"
                }
            ],
            "stateMutability": "view",
            "type": "function"
        },
        {
            "inputs": [
                {
                    "internalType": "address",
                    "name": "",
                    "type": "address"
                }
            ],
            "name": "newAuctionContract",
            "outputs": [
                {
                    "internalType": "contract Auction",
                    "name": "",
                    "type": "address"
                }
            ],
            "stateMutability": "view",
            "type": "function"
        },
        {
            "inputs": [],
            "name": "tokenID",
            "outputs": [
                {
                    "internalType": "uint256",
                    "name": "",
                    "type": "uint256"
                }
            ],
            "stateMutability": "view",
            "type": "function"
        }
    ],
    "bytecode": "0x60806040523480156200001157600080fd5b50604051620038aa380380620038aa833981810160405281019062000037919062000096565b80600160006101000a81548173ffffffffffffffffffffffffffffffffffffffff021916908373ffffffffffffffffffffffffffffffffffffffff1602179055505062000110565b6000815190506200009081620000f6565b92915050565b600060208284031215620000a957600080fd5b6000620000b9848285016200007f565b91505092915050565b6000620000cf82620000d6565b9050919050565b600073ffffffffffffffffffffffffffffffffffffffff82169050919050565b6200010181620000c2565b81146200010d57600080fd5b50565b61378a80620001206000396000f3fe60806040523480156200001157600080fd5b5060043610620000885760003560e01c8063571a26a01162000063578063571a26a01462000105578063a5c42ef1146200013d578063bb180656146200015f578063bcf05bf714620001815762000088565b80631bbcd4a5146200008d578063431f21da14620000af57806343e502ed14620000cf575b600080fd5b62000097620001b7565b604051620000a6919062000f7c565b60405180910390f35b620000cd6004803603810190620000c7919062000d01565b620002ce565b005b620000ed6004803603810190620000e7919062000c51565b62000729565b604051620000fc919062000fa0565b60405180910390f35b6200012360048036038101906200011d919062000cd5565b6200075c565b60405162000134939291906200103b565b60405180910390f35b62000147620007d7565b6040516200015691906200101e565b60405180910390f35b62000169620007dd565b60405162000178919062000fbd565b60405180910390f35b6200019f600480360381019062000199919062000c51565b62000803565b604051620001ae919062000f7c565b60405180910390f35b60606002805480602002602001604051908101604052809291908181526020016000905b82821015620002c55783829060005260206000209060030201604051806060016040529081600082015481526020016001820160009054906101000a900473ffffffffffffffffffffffffffffffffffffffff1673ffffffffffffffffffffffffffffffffffffffff1673ffffffffffffffffffffffffffffffffffffffff1681526020016002820160009054906101000a900473ffffffffffffffffffffffffffffffffffffffff1673ffffffffffffffffffffffffffffffffffffffff1673ffffffffffffffffffffffffffffffffffffffff168152505081526020019060010190620001db565b50505050905090565b60001515600160009054906101000a900473ffffffffffffffffffffffffffffffffffffffff1673ffffffffffffffffffffffffffffffffffffffff1663ad04b54c846040518263ffffffff1660e01b81526004016200032f91906200101e565b60206040518083038186803b1580156200034857600080fd5b505afa1580156200035d573d6000803e3d6000fd5b505050506040513d601f19601f8201168201806040525081019062000383919062000ca9565b151514620003c8576040517f08c379a0000000000000000000000000000000000000000000000000000000008152600401620003bf9062000fda565b60405180910390fd5b82421115620003d657600080fd5b60008411620003e457600080fd5b60008111620003f257600080fd5b6000600160009054906101000a900473ffffffffffffffffffffffffffffffffffffffff1673ffffffffffffffffffffffffffffffffffffffff16636352211e846040518263ffffffff1660e01b81526004016200045191906200101e565b60206040518083038186803b1580156200046a57600080fd5b505afa1580156200047f573d6000803e3d6000fd5b505050506040513d601f19601f82011682018060405250810190620004a5919062000c7d565b90508073ffffffffffffffffffffffffffffffffffffffff163373ffffffffffffffffffffffffffffffffffffffff161462000518576040517f08c379a00000000000000000000000000000000000000000000000000000000081526004016200050f9062000ffc565b60405180910390fd5b60003386868686600160009054906101000a900473ffffffffffffffffffffffffffffffffffffffff16604051620005509062000b9a565b620005619695949392919062000f0f565b604051809103906000f0801580156200057e573d6000803e3d6000fd5b509050600160009054906101000a900473ffffffffffffffffffffffffffffffffffffffff1673ffffffffffffffffffffffffffffffffffffffff1663efbc69968560016040518363ffffffff1660e01b8152600401620005e192919062001078565b600060405180830381600087803b158015620005fc57600080fd5b505af115801562000611573d6000803e3d6000fd5b50505050600260405180606001604052808681526020013373ffffffffffffffffffffffffffffffffffffffff1681526020018373ffffffffffffffffffffffffffffffffffffffff1681525090806001815401808255809150506001900390600052602060002090600302016000909190919091506000820151816000015560208201518160010160006101000a81548173ffffffffffffffffffffffffffffffffffffffff021916908373ffffffffffffffffffffffffffffffffffffffff16021790555060408201518160020160006101000a81548173ffffffffffffffffffffffffffffffffffffffff021916908373ffffffffffffffffffffffffffffffffffffffff1602179055505050505050505050565b60036020528060005260406000206000915054906101000a900473ffffffffffffffffffffffffffffffffffffffff1681565b600281815481106200076d57600080fd5b90600052602060002090600302016000915090508060000154908060010160009054906101000a900473ffffffffffffffffffffffffffffffffffffffff16908060020160009054906101000a900473ffffffffffffffffffffffffffffffffffffffff16905083565b60005481565b600160009054906101000a900473ffffffffffffffffffffffffffffffffffffffff1681565b606060008060005b600280549050811015620008e1578473ffffffffffffffffffffffffffffffffffffffff16600282815481106200086b577f4e487b7100000000000000000000000000000000000000000000000000000000600052603260045260246000fd5b906000526020600020906003020160010160009054906101000a900473ffffffffffffffffffffffffffffffffffffffff1673ffffffffffffffffffffffffffffffffffffffff161415620008cb578280620008c79062001189565b9350505b8080620008d89062001189565b9150506200080b565b5060008267ffffffffffffffff81111562000925577f4e487b7100000000000000000000000000000000000000000000000000000000600052604160045260246000fd5b6040519080825280602002602001820160405280156200096257816020015b6200094e62000ba8565b815260200190600190039081620009445790505b50905060005b60028054905081101562000b8e578573ffffffffffffffffffffffffffffffffffffffff1660028281548110620009c8577f4e487b7100000000000000000000000000000000000000000000000000000000600052603260045260246000fd5b906000526020600020906003020160010160009054906101000a900473ffffffffffffffffffffffffffffffffffffffff1673ffffffffffffffffffffffffffffffffffffffff16141562000b785760006002828154811062000a54577f4e487b7100000000000000000000000000000000000000000000000000000000600052603260045260246000fd5b906000526020600020906003020160000154905060006002838154811062000aa5577f4e487b7100000000000000000000000000000000000000000000000000000000600052603260045260246000fd5b906000526020600020906003020160020160009054906101000a900473ffffffffffffffffffffffffffffffffffffffff16905060405180606001604052808381526020018973ffffffffffffffffffffffffffffffffffffffff1681526020018273ffffffffffffffffffffffffffffffffffffffff1681525084868151811062000b5a577f4e487b7100000000000000000000000000000000000000000000000000000000600052603260045260246000fd5b6020026020010181905250848062000b729062001189565b95505050505b808062000b859062001189565b91505062000968565b50809350505050919050565b6124ae80620012a783390190565b604051806060016040528060008152602001600073ffffffffffffffffffffffffffffffffffffffff168152602001600073ffffffffffffffffffffffffffffffffffffffff1681525090565b60008135905062000c068162001258565b92915050565b60008151905062000c1d8162001258565b92915050565b60008151905062000c348162001272565b92915050565b60008135905062000c4b816200128c565b92915050565b60006020828403121562000c6457600080fd5b600062000c748482850162000bf5565b91505092915050565b60006020828403121562000c9057600080fd5b600062000ca08482850162000c0c565b91505092915050565b60006020828403121562000cbc57600080fd5b600062000ccc8482850162000c23565b91505092915050565b60006020828403121562000ce857600080fd5b600062000cf88482850162000c3a565b91505092915050565b6000806000806080858703121562000d1857600080fd5b600062000d288782880162000c3a565b945050602062000d3b8782880162000c3a565b935050604062000d4e8782880162000c3a565b925050606062000d618782880162000c3a565b91505092959194509250565b600062000d7b838362000ea5565b60608301905092915050565b62000d9281620010ef565b82525050565b62000da381620010ef565b82525050565b600062000db682620010b5565b62000dc28185620010cd565b935062000dcf83620010a5565b8060005b8381101562000e0657815162000dea888262000d6d565b975062000df783620010c0565b92505060018101905062000dd3565b5085935050505092915050565b62000e1e8162001103565b82525050565b62000e2f8162001139565b82525050565b62000e408162001139565b82525050565b62000e518162001161565b82525050565b600062000e66601683620010de565b915062000e738262001206565b602082019050919050565b600062000e8d601d83620010de565b915062000e9a826200122f565b602082019050919050565b60608201600082015162000ebd600085018262000eed565b50602082015162000ed2602085018262000d87565b50604082015162000ee7604085018262000e24565b50505050565b62000ef8816200112f565b82525050565b62000f09816200112f565b82525050565b600060c08201905062000f26600083018962000d98565b62000f35602083018862000efe565b62000f44604083018762000efe565b62000f53606083018662000efe565b62000f62608083018562000efe565b62000f7160a083018462000e46565b979650505050505050565b6000602082019050818103600083015262000f98818462000da9565b905092915050565b600060208201905062000fb7600083018462000e35565b92915050565b600060208201905062000fd4600083018462000e46565b92915050565b6000602082019050818103600083015262000ff58162000e57565b9050919050565b60006020820190508181036000830152620010178162000e7e565b9050919050565b600060208201905062001035600083018462000efe565b92915050565b600060608201905062001052600083018662000efe565b62001061602083018562000d98565b62001070604083018462000e35565b949350505050565b60006040820190506200108f600083018562000efe565b6200109e602083018462000e13565b9392505050565b6000819050602082019050919050565b600081519050919050565b6000602082019050919050565b600082825260208201905092915050565b600082825260208201905092915050565b6000620010fc826200110f565b9050919050565b60008115159050919050565b600073ffffffffffffffffffffffffffffffffffffffff82169050919050565b6000819050919050565b600062001146826200114d565b9050919050565b60006200115a826200110f565b9050919050565b60006200116e8262001175565b9050919050565b600062001182826200110f565b9050919050565b600062001196826200112f565b91507fffffffffffffffffffffffffffffffffffffffffffffffffffffffffffffffff821415620011cc57620011cb620011d7565b5b600182019050919050565b7f4e487b7100000000000000000000000000000000000000000000000000000000600052601160045260246000fd5b7f5468697320746f6b656e206973206f6e2073616c652e00000000000000000000600082015250565b7f546869732075736572206973206e6f7420746f6b656e204f776e65722e000000600082015250565b6200126381620010ef565b81146200126f57600080fd5b50565b6200127d8162001103565b81146200128957600080fd5b50565b62001297816200112f565b8114620012a357600080fd5b5056fe60a06040523480156200001157600080fd5b50604051620024ae380380620024ae8339818101604052810190620000379190620002d8565b834211156200007d576040517f08c379a0000000000000000000000000000000000000000000000000000000008152600401620000749062000427565b60405180910390fd5b60008511620000c3576040517f08c379a0000000000000000000000000000000000000000000000000000000008152600401620000ba90620003e3565b60405180910390fd5b6000821162000109576040517f08c379a0000000000000000000000000000000000000000000000000000000008152600401620001009062000405565b60405180910390fd5b8573ffffffffffffffffffffffffffffffffffffffff1660808173ffffffffffffffffffffffffffffffffffffffff1660601b815250506001600760146101000a81548160ff021916908360038111156200018d577f4e487b7100000000000000000000000000000000000000000000000000000000600052602160045260246000fd5b0217905550846003819055504263ffffffff166000819055508363ffffffff16600181905550816005819055508260028190555080600760006101000a81548173ffffffffffffffffffffffffffffffffffffffff021916908373ffffffffffffffffffffffffffffffffffffffff160217905550828673ffffffffffffffffffffffffffffffffffffffff167f7fc39c418005ff12d54ba66aa49c0b0afb39c1637c949aaef095409253a38e7260405160405180910390a330600660006101000a81548173ffffffffffffffffffffffffffffffffffffffff021916908373ffffffffffffffffffffffffffffffffffffffff1602179055505050505050506200059b565b600081519050620002a4816200054d565b92915050565b600081519050620002bb8162000567565b92915050565b600081519050620002d28162000581565b92915050565b60008060008060008060c08789031215620002f257600080fd5b60006200030289828a0162000293565b96505060206200031589828a01620002c1565b95505060406200032889828a01620002c1565b94505060606200033b89828a01620002c1565b93505060806200034e89828a01620002c1565b92505060a06200036189828a01620002aa565b9150509295509295509295565b60006200037d601f8362000449565b91506200038a82620004ac565b602082019050919050565b6000620003a460238362000449565b9150620003b182620004d5565b604082019050919050565b6000620003cb601c8362000449565b9150620003d88262000524565b602082019050919050565b60006020820190508181036000830152620003fe816200036e565b9050919050565b60006020820190508181036000830152620004208162000395565b9050919050565b600060208201905081810360008301526200044281620003bc565b9050919050565b600082825260208201905092915050565b6000620004678262000482565b9050919050565b60006200047b826200045a565b9050919050565b600073ffffffffffffffffffffffffffffffffffffffff82169050919050565b6000819050919050565b7f41756374696f6e2073746172742076616c7565206973206e6f74207365742e00600082015250565b7f576520686176656e2774207365742061206d696e696d756d206269642070726960008201527f63652e0000000000000000000000000000000000000000000000000000000000602082015250565b7f456e642074696d652069732073686f72746572207468616e206e6f7700000000600082015250565b62000558816200045a565b81146200056457600080fd5b50565b62000572816200046e565b81146200057e57600080fd5b50565b6200058c81620004a2565b81146200059857600080fd5b50565b60805160601c611ea762000607600039600081816104070152818161042b015281816106140152818161076901528181610a6801528181610c4001528181610f1101528181611027015281816111d3015281816112270152818161130d015261147b0152611ea76000f3fe6080604052600436106100f35760003560e01c8063a5c42ef11161008a578063d7c9a0e311610059578063d7c9a0e31461030c578063ecfc7ecc14610323578063f5b56c561461032d578063f77282ab14610358576100f3565b8063a5c42ef114610260578063bb1806561461028b578063c7446565146102b6578063d3a86386146102e1576100f3565b80637fb45099116100c65780637fb45099146101c85780638da5cb5b146101f35780638fa8b7901461021e57806391f9015714610235576100f3565b80631834906c146100f857806357c0b5931461012357806362ea82db146101605780637cc3ae8c1461019d575b600080fd5b34801561010457600080fd5b5061010d61036f565b60405161011a91906117f8565b60405180910390f35b34801561012f57600080fd5b5061014a60048036038101906101459190611608565b610395565b60405161015791906117f8565b60405180910390f35b34801561016c57600080fd5b50610187600480360381019061018291906115b6565b6103d4565b6040516101949190611a04565b60405180910390f35b3480156101a957600080fd5b506101b26103ec565b6040516101bf9190611a04565b60405180910390f35b3480156101d457600080fd5b506101dd6103f2565b6040516101ea91906118a9565b60405180910390f35b3480156101ff57600080fd5b50610208610405565b6040516102159190611813565b60405180910390f35b34801561022a57600080fd5b50610233610429565b005b34801561024157600080fd5b5061024a610709565b6040516102579190611813565b60405180910390f35b34801561026c57600080fd5b5061027561072f565b6040516102829190611a04565b60405180910390f35b34801561029757600080fd5b506102a0610735565b6040516102ad919061188e565b60405180910390f35b3480156102c257600080fd5b506102cb61075b565b6040516102d89190611a04565b60405180910390f35b3480156102ed57600080fd5b506102f6610761565b6040516103039190611a04565b60405180910390f35b34801561031857600080fd5b50610321610767565b005b61032b610a66565b005b34801561033957600080fd5b50610342610ec7565b60405161034f9190611a04565b60405180910390f35b34801561036457600080fd5b5061036d610ecd565b005b600660009054906101000a900473ffffffffffffffffffffffffffffffffffffffff1681565b600981815481106103a557600080fd5b906000526020600020016000915054906101000a900473ffffffffffffffffffffffffffffffffffffffff1681565b60086020528060005260406000206000915090505481565b60015481565b600760149054906101000a900460ff1681565b7f000000000000000000000000000000000000000000000000000000000000000081565b7f000000000000000000000000000000000000000000000000000000000000000073ffffffffffffffffffffffffffffffffffffffff163373ffffffffffffffffffffffffffffffffffffffff16146104b7576040517f08c379a00000000000000000000000000000000000000000000000000000000081526004016104ae90611964565b60405180910390fd5b600160038111156104f1577f4e487b7100000000000000000000000000000000000000000000000000000000600052602160045260246000fd5b600760149054906101000a900460ff166003811115610539577f4e487b7100000000000000000000000000000000000000000000000000000000600052602160045260246000fd5b14610579576040517f08c379a0000000000000000000000000000000000000000000000000000000008152600401610570906118c4565b60405180910390fd5b6001544211156105be576040517f08c379a00000000000000000000000000000000000000000000000000000000081526004016105b590611984565b60405180910390fd5b6003600760146101000a81548160ff0219169083600381111561060a577f4e487b7100000000000000000000000000000000000000000000000000000000600052602160045260246000fd5b02179055506002547f000000000000000000000000000000000000000000000000000000000000000073ffffffffffffffffffffffffffffffffffffffff167fe05f45f4b01f7170dbcb5acc4ce87c8b01b7cc4a43745eb4774dcc7e4fb5459c60405160405180910390a3600760009054906101000a900473ffffffffffffffffffffffffffffffffffffffff1673ffffffffffffffffffffffffffffffffffffffff1663efbc699660025460006040518363ffffffff1660e01b81526004016106d5929190611a1f565b600060405180830381600087803b1580156106ef57600080fd5b505af1158015610703573d6000803e3d6000fd5b50505050565b600460009054906101000a900473ffffffffffffffffffffffffffffffffffffffff1681565b60025481565b600760009054906101000a900473ffffffffffffffffffffffffffffffffffffffff1681565b60005481565b60055481565b7f000000000000000000000000000000000000000000000000000000000000000073ffffffffffffffffffffffffffffffffffffffff163373ffffffffffffffffffffffffffffffffffffffff1614156107f6576040517f08c379a00000000000000000000000000000000000000000000000000000000081526004016107ed90611944565b60405180910390fd5b60016003811115610830577f4e487b7100000000000000000000000000000000000000000000000000000000600052602160045260246000fd5b600760149054906101000a900460ff166003811115610878577f4e487b7100000000000000000000000000000000000000000000000000000000600052602160045260246000fd5b146108b8576040517f08c379a00000000000000000000000000000000000000000000000000000000081526004016108af906118c4565b60405180910390fd5b6001544211156108fd576040517f08c379a00000000000000000000000000000000000000000000000000000000081526004016108f490611984565b60405180910390fd5b600460009054906101000a900473ffffffffffffffffffffffffffffffffffffffff1673ffffffffffffffffffffffffffffffffffffffff163373ffffffffffffffffffffffffffffffffffffffff16141561098e576040517f08c379a000000000000000000000000000000000000000000000000000000000815260040161098590611904565b60405180910390fd5b600080339150600860003373ffffffffffffffffffffffffffffffffffffffff1673ffffffffffffffffffffffffffffffffffffffff1681526020019081526020016000205490506000600860008473ffffffffffffffffffffffffffffffffffffffff1673ffffffffffffffffffffffffffffffffffffffff168152602001908152602001600020819055508173ffffffffffffffffffffffffffffffffffffffff166108fc829081150290604051600060405180830381858888f19350505050158015610a61573d6000803e3d6000fd5b505050565b7f000000000000000000000000000000000000000000000000000000000000000073ffffffffffffffffffffffffffffffffffffffff163373ffffffffffffffffffffffffffffffffffffffff161415610af5576040517f08c379a0000000000000000000000000000000000000000000000000000000008152600401610aec90611944565b60405180910390fd5b60016003811115610b2f577f4e487b7100000000000000000000000000000000000000000000000000000000600052602160045260246000fd5b600760149054906101000a900460ff166003811115610b77577f4e487b7100000000000000000000000000000000000000000000000000000000600052602160045260246000fd5b14610bb7576040517f08c379a0000000000000000000000000000000000000000000000000000000008152600401610bae906118c4565b60405180910390fd5b600154421115610bfc576040517f08c379a0000000000000000000000000000000000000000000000000000000008152600401610bf390611984565b60405180910390fd5b60011515600760009054906101000a900473ffffffffffffffffffffffffffffffffffffffff1673ffffffffffffffffffffffffffffffffffffffff1663e985e9c57f0000000000000000000000000000000000000000000000000000000000000000306040518363ffffffff1660e01b8152600401610c7d92919061182e565b60206040518083038186803b158015610c9557600080fd5b505afa158015610ca9573d6000803e3d6000fd5b505050506040513d601f19601f82011682018060405250810190610ccd91906115df565b151514610d0f576040517f08c379a0000000000000000000000000000000000000000000000000000000008152600401610d06906119e4565b60405180910390fd5b600554341015610d54576040517f08c379a0000000000000000000000000000000000000000000000000000000008152600401610d4b906118e4565b60405180910390fd5b600034600860003373ffffffffffffffffffffffffffffffffffffffff1673ffffffffffffffffffffffffffffffffffffffff16815260200190815260200160002054610da19190611a59565b90506003548111610de7576040517f08c379a0000000000000000000000000000000000000000000000000000000008152600401610dde906119a4565b60405180910390fd5b80600860003373ffffffffffffffffffffffffffffffffffffffff1673ffffffffffffffffffffffffffffffffffffffff16815260200190815260200160002081905550806003819055506002543373ffffffffffffffffffffffffffffffffffffffff167f5eed1c784e0541a0f30c67ee1b9b0036511707fef85df96ad37b038e2a1224ed83604051610e7b9190611a04565b60405180910390a333600460006101000a81548173ffffffffffffffffffffffffffffffffffffffff021916908373ffffffffffffffffffffffffffffffffffffffff16021790555050565b60035481565b60011515600760009054906101000a900473ffffffffffffffffffffffffffffffffffffffff1673ffffffffffffffffffffffffffffffffffffffff1663e985e9c57f0000000000000000000000000000000000000000000000000000000000000000306040518363ffffffff1660e01b8152600401610f4e92919061182e565b60206040518083038186803b158015610f6657600080fd5b505afa158015610f7a573d6000803e3d6000fd5b505050506040513d601f19601f82011682018060405250810190610f9e91906115df565b151514610fe0576040517f08c379a0000000000000000000000000000000000000000000000000000000008152600401610fd7906119e4565b60405180910390fd5b600154421015611025576040517f08c379a000000000000000000000000000000000000000000000000000000000815260040161101c90611924565b60405180910390fd5b7f000000000000000000000000000000000000000000000000000000000000000073ffffffffffffffffffffffffffffffffffffffff163373ffffffffffffffffffffffffffffffffffffffff1614806110be57506000600860003373ffffffffffffffffffffffffffffffffffffffff1673ffffffffffffffffffffffffffffffffffffffff16815260200190815260200160002054115b6110fd576040517f08c379a00000000000000000000000000000000000000000000000000000000081526004016110f4906119c4565b60405180910390fd5b600080600380811115611139577f4e487b7100000000000000000000000000000000000000000000000000000000600052602160045260246000fd5b600760149054906101000a900460ff166003811115611181577f4e487b7100000000000000000000000000000000000000000000000000000000600052602160045260246000fd5b14156111d157339150600860003373ffffffffffffffffffffffffffffffffffffffff1673ffffffffffffffffffffffffffffffffffffffff1681526020019081526020016000205490506113cd565b7f000000000000000000000000000000000000000000000000000000000000000073ffffffffffffffffffffffffffffffffffffffff163373ffffffffffffffffffffffffffffffffffffffff161415611252577f0000000000000000000000000000000000000000000000000000000000000000915060035490506113cc565b600460009054906101000a900473ffffffffffffffffffffffffffffffffffffffff1673ffffffffffffffffffffffffffffffffffffffff163373ffffffffffffffffffffffffffffffffffffffff16141561138557600460009054906101000a900473ffffffffffffffffffffffffffffffffffffffff169150600760009054906101000a900473ffffffffffffffffffffffffffffffffffffffff1673ffffffffffffffffffffffffffffffffffffffff166342842e0e7f0000000000000000000000000000000000000000000000000000000000000000846002546040518463ffffffff1660e01b815260040161134e93929190611857565b600060405180830381600087803b15801561136857600080fd5b505af115801561137c573d6000803e3d6000fd5b505050506113cb565b339150600860003373ffffffffffffffffffffffffffffffffffffffff1673ffffffffffffffffffffffffffffffffffffffff1681526020019081526020016000205490505b5b5b600760009054906101000a900473ffffffffffffffffffffffffffffffffffffffff1673ffffffffffffffffffffffffffffffffffffffff1663efbc699660025460006040518363ffffffff1660e01b815260040161142d929190611a1f565b600060405180830381600087803b15801561144757600080fd5b505af115801561145b573d6000803e3d6000fd5b505050506002548273ffffffffffffffffffffffffffffffffffffffff167f000000000000000000000000000000000000000000000000000000000000000073ffffffffffffffffffffffffffffffffffffffff167f5237fb26adae0ed0778014ed75ea045d3190004243fefa81c52763227d857d6d846040516114df9190611a04565b60405180910390a46000600860008473ffffffffffffffffffffffffffffffffffffffff1673ffffffffffffffffffffffffffffffffffffffff168152602001908152602001600020819055508173ffffffffffffffffffffffffffffffffffffffff166108fc829081150290604051600060405180830381858888f19350505050158015611572573d6000803e3d6000fd5b505050565b60008135905061158681611e2c565b92915050565b60008151905061159b81611e43565b92915050565b6000813590506115b081611e5a565b92915050565b6000602082840312156115c857600080fd5b60006115d684828501611577565b91505092915050565b6000602082840312156115f157600080fd5b60006115ff8482850161158c565b91505092915050565b60006020828403121561161a57600080fd5b6000611628848285016115a1565b91505092915050565b61163a81611b1c565b82525050565b61164981611ac1565b82525050565b61165881611aaf565b82525050565b61166781611ad3565b82525050565b61167681611b2e565b82525050565b61168581611b52565b82525050565b6000611698602383611a48565b91506116a382611be6565b604082019050919050565b60006116bb602183611a48565b91506116c682611c35565b604082019050919050565b60006116de602f83611a48565b91506116e982611c84565b604082019050919050565b6000611701601783611a48565b915061170c82611cd3565b602082019050919050565b6000611724601083611a48565b915061172f82611cfc565b602082019050919050565b6000611747601483611a48565b915061175282611d25565b602082019050919050565b600061176a602483611a48565b915061177582611d4e565b604082019050919050565b600061178d601983611a48565b915061179882611d9d565b602082019050919050565b60006117b0600083611a48565b91506117bb82611dc6565b600082019050919050565b60006117d3602383611a48565b91506117de82611dc9565b604082019050919050565b6117f281611b12565b82525050565b600060208201905061180d600083018461164f565b92915050565b60006020820190506118286000830184611640565b92915050565b60006040820190506118436000830185611631565b611850602083018461164f565b9392505050565b600060608201905061186c6000830186611631565b6118796020830185611631565b61188660408301846117e9565b949350505050565b60006020820190506118a3600083018461166d565b92915050565b60006020820190506118be600083018461167c565b92915050565b600060208201905081810360008301526118dd8161168b565b9050919050565b600060208201905081810360008301526118fd816116ae565b9050919050565b6000602082019050818103600083015261191d816116d1565b9050919050565b6000602082019050818103600083015261193d816116f4565b9050919050565b6000602082019050818103600083015261195d81611717565b9050919050565b6000602082019050818103600083015261197d8161173a565b9050919050565b6000602082019050818103600083015261199d8161175d565b9050919050565b600060208201905081810360008301526119bd81611780565b9050919050565b600060208201905081810360008301526119dd816117a3565b9050919050565b600060208201905081810360008301526119fd816117c6565b9050919050565b6000602082019050611a1960008301846117e9565b92915050565b6000604082019050611a3460008301856117e9565b611a41602083018461165e565b9392505050565b600082825260208201905092915050565b6000611a6482611b12565b9150611a6f83611b12565b9250827fffffffffffffffffffffffffffffffffffffffffffffffffffffffffffffffff03821115611aa457611aa3611b88565b5b828201905092915050565b6000611aba82611af2565b9050919050565b6000611acc82611af2565b9050919050565b60008115159050919050565b6000819050611aed82611e18565b919050565b600073ffffffffffffffffffffffffffffffffffffffff82169050919050565b6000819050919050565b6000611b2782611b64565b9050919050565b6000611b3982611b40565b9050919050565b6000611b4b82611af2565b9050919050565b6000611b5d82611adf565b9050919050565b6000611b6f82611b76565b9050919050565b6000611b8182611af2565b9050919050565b7f4e487b7100000000000000000000000000000000000000000000000000000000600052601160045260246000fd5b7f4e487b7100000000000000000000000000000000000000000000000000000000600052602160045260246000fd5b7f41756374696f6e207374617465206973206e6f742052756e6e696e672073746160008201527f74652e0000000000000000000000000000000000000000000000000000000000602082015250565b7f596f757220626964206973206c6f776572207468616e206d696e696d756d426960008201527f6400000000000000000000000000000000000000000000000000000000000000602082015250565b7f596f75206172652068696768657374206269646465722e2043616e206e6f742060008201527f67657420796f7572206d6f6e65792e0000000000000000000000000000000000602082015250565b7f41756374696f6e206973206e6f772072756e6e696e672e000000000000000000600082015250565b7f53656e646572206973206f776e65722e00000000000000000000000000000000600082015250565b7f53656e646572206973206e6f74206f776e65722e000000000000000000000000600082015250565b7f5468652062696464696e6720666f72207468652061756374696f6e206973206f60008201527f7665722e00000000000000000000000000000000000000000000000000000000602082015250565b7f63757272656e7420626964203c20686967686573742062696400000000000000600082015250565b50565b7f4f776e657220646964206e6f7420617070726f7665207468697320617563746960008201527f6f6e2e0000000000000000000000000000000000000000000000000000000000602082015250565b60048110611e2957611e28611bb7565b5b50565b611e3581611aaf565b8114611e4057600080fd5b50565b611e4c81611ad3565b8114611e5757600080fd5b50565b611e6381611b12565b8114611e6e57600080fd5b5056fea26469706673582212206902a8df699731df5865abcf0689b0f4c6268add32af4c82dc76cb92f2cbbbed64736f6c63430008010033a2646970667358221220b639c5e2053a5e39f432964db6326d56e05dccebab3d64843240be23ad68951a64736f6c63430008010033",
    "linkReferences": {},
    "deployedLinkReferences": {}
}