{
    "_format": "hh-sol-artifact-1",
    "contractName": "Auction",
    "sourceName": "contracts/Auction.sol",
    "abi": [
        {
            "inputs": [
                {
                    "internalType": "address",
                    "name": "_eoa",
                    "type": "address"
                },
                {
                    "internalType": "uint256",
                    "name": "_startingBid",
                    "type": "uint256"
                },
                {
                    "internalType": "uint256",
                    "name": "_endAt",
                    "type": "uint256"
                },
                {
                    "internalType": "uint256",
                    "name": "_tokenID",
                    "type": "uint256"
                },
                {
                    "internalType": "uint256",
                    "name": "_minimumBid",
                    "type": "uint256"
                },
                {
                    "internalType": "contract MintMusicToken",
                    "name": "_mintMusicTokenAddress",
                    "type": "address"
                }
            ],
            "stateMutability": "nonpayable",
            "type": "constructor"
        },
        {
            "anonymous": false,
            "inputs": [
                {
                    "indexed": true,
                    "internalType": "address",
                    "name": "myAddress",
                    "type": "address"
                },
                {
                    "indexed": true,
                    "internalType": "uint256",
                    "name": "tokenId",
                    "type": "uint256"
                }
            ],
            "name": "CancelAuctionNFT",
            "type": "event"
        },
        {
            "anonymous": false,
            "inputs": [
                {
                    "indexed": true,
                    "internalType": "address",
                    "name": "seller",
                    "type": "address"
                },
                {
                    "indexed": true,
                    "internalType": "address",
                    "name": "buyer",
                    "type": "address"
                },
                {
                    "indexed": true,
                    "internalType": "uint256",
                    "name": "tokenId",
                    "type": "uint256"
                },
                {
                    "indexed": false,
                    "internalType": "uint256",
                    "name": "price",
                    "type": "uint256"
                },
                {
                    "indexed": false,
                    "internalType": "uint256",
                    "name": "timeStamp",
                    "type": "uint256"
                }
            ],
            "name": "FinishAuctionNFT",
            "type": "event"
        },
        {
            "anonymous": false,
            "inputs": [
                {
                    "indexed": true,
                    "internalType": "address",
                    "name": "myAddress",
                    "type": "address"
                },
                {
                    "indexed": true,
                    "internalType": "uint256",
                    "name": "tokenId",
                    "type": "uint256"
                }
            ],
            "name": "IsAuctionNFT",
            "type": "event"
        },
        {
            "anonymous": false,
            "inputs": [
                {
                    "indexed": true,
                    "internalType": "address",
                    "name": "myAddress",
                    "type": "address"
                },
                {
                    "indexed": true,
                    "internalType": "uint256",
                    "name": "tokenId",
                    "type": "uint256"
                },
                {
                    "indexed": false,
                    "internalType": "uint256",
                    "name": "myBid",
                    "type": "uint256"
                }
            ],
            "name": "MyAuctionHistory",
            "type": "event"
        },
        {
            "inputs": [],
            "name": "auctionState",
            "outputs": [
                {
                    "internalType": "enum Auction.State",
                    "name": "",
                    "type": "uint8"
                }
            ],
            "stateMutability": "view",
            "type": "function"
        },
        {
            "inputs": [
                {
                    "internalType": "address",
                    "name": "",
                    "type": "address"
                }
            ],
            "name": "bids",
            "outputs": [
                {
                    "internalType": "uint256",
                    "name": "",
                    "type": "uint256"
                }
            ],
            "stateMutability": "view",
            "type": "function"
        },
        {
            "inputs": [],
            "name": "cancelAuction",
            "outputs": [],
            "stateMutability": "nonpayable",
            "type": "function"
        },
        {
            "inputs": [],
            "name": "endAt",
            "outputs": [
                {
                    "internalType": "uint256",
                    "name": "",
                    "type": "uint256"
                }
            ],
            "stateMutability": "view",
            "type": "function"
        },
        {
            "inputs": [],
            "name": "finalizeAuction",
            "outputs": [],
            "stateMutability": "nonpayable",
            "type": "function"
        },
        {
            "inputs": [],
            "name": "getMyMoney",
            "outputs": [],
            "stateMutability": "nonpayable",
            "type": "function"
        },
        {
            "inputs": [],
            "name": "highestBidder",
            "outputs": [
                {
                    "internalType": "address payable",
                    "name": "",
                    "type": "address"
                }
            ],
            "stateMutability": "view",
            "type": "function"
        },
        {
            "inputs": [],
            "name": "highestBindingBid",
            "outputs": [
                {
                    "internalType": "uint256",
                    "name": "",
                    "type": "uint256"
                }
            ],
            "stateMutability": "view",
            "type": "function"
        },
        {
            "inputs": [],
            "name": "minimumBid",
            "outputs": [
                {
                    "internalType": "uint256",
                    "name": "",
                    "type": "uint256"
                }
            ],
            "stateMutability": "view",
            "type": "function"
        },
        {
            "inputs": [],
            "name": "mintMusicTokenAddress",
            "outputs": [
                {
                    "internalType": "contract MintMusicToken",
                    "name": "",
                    "type": "address"
                }
            ],
            "stateMutability": "view",
            "type": "function"
        },
        {
            "inputs": [],
            "name": "owner",
            "outputs": [
                {
                    "internalType": "address payable",
                    "name": "",
                    "type": "address"
                }
            ],
            "stateMutability": "view",
            "type": "function"
        },
        {
            "inputs": [],
            "name": "placeBid",
            "outputs": [],
            "stateMutability": "payable",
            "type": "function"
        },
        {
            "inputs": [],
            "name": "startAt",
            "outputs": [
                {
                    "internalType": "uint256",
                    "name": "",
                    "type": "uint256"
                }
            ],
            "stateMutability": "view",
            "type": "function"
        },
        {
            "inputs": [
                {
                    "internalType": "uint256",
                    "name": "",
                    "type": "uint256"
                }
            ],
            "name": "testData",
            "outputs": [
                {
                    "internalType": "address",
                    "name": "",
                    "type": "address"
                }
            ],
            "stateMutability": "view",
            "type": "function"
        },
        {
            "inputs": [],
            "name": "thisContractAddress",
            "outputs": [
                {
                    "internalType": "address",
                    "name": "",
                    "type": "address"
                }
            ],
            "stateMutability": "view",
            "type": "function"
        },
        {
            "inputs": [],
            "name": "tokenID",
            "outputs": [
                {
                    "internalType": "uint256",
                    "name": "",
                    "type": "uint256"
                }
            ],
            "stateMutability": "view",
            "type": "function"
        }
    ],
    "bytecode": "0x60a06040523480156200001157600080fd5b50604051620024d9380380620024d98339818101604052810190620000379190620002d8565b834211156200007d576040517f08c379a0000000000000000000000000000000000000000000000000000000008152600401620000749062000427565b60405180910390fd5b60008511620000c3576040517f08c379a0000000000000000000000000000000000000000000000000000000008152600401620000ba90620003e3565b60405180910390fd5b6000821162000109576040517f08c379a0000000000000000000000000000000000000000000000000000000008152600401620001009062000405565b60405180910390fd5b8573ffffffffffffffffffffffffffffffffffffffff1660808173ffffffffffffffffffffffffffffffffffffffff1660601b815250506001600760146101000a81548160ff021916908360038111156200018d577f4e487b7100000000000000000000000000000000000000000000000000000000600052602160045260246000fd5b0217905550846003819055504263ffffffff166000819055508363ffffffff16600181905550816005819055508260028190555080600760006101000a81548173ffffffffffffffffffffffffffffffffffffffff021916908373ffffffffffffffffffffffffffffffffffffffff160217905550828673ffffffffffffffffffffffffffffffffffffffff167f7fc39c418005ff12d54ba66aa49c0b0afb39c1637c949aaef095409253a38e7260405160405180910390a330600660006101000a81548173ffffffffffffffffffffffffffffffffffffffff021916908373ffffffffffffffffffffffffffffffffffffffff1602179055505050505050506200059b565b600081519050620002a4816200054d565b92915050565b600081519050620002bb8162000567565b92915050565b600081519050620002d28162000581565b92915050565b60008060008060008060c08789031215620002f257600080fd5b60006200030289828a0162000293565b96505060206200031589828a01620002c1565b95505060406200032889828a01620002c1565b94505060606200033b89828a01620002c1565b93505060806200034e89828a01620002c1565b92505060a06200036189828a01620002aa565b9150509295509295509295565b60006200037d601f8362000449565b91506200038a82620004ac565b602082019050919050565b6000620003a460238362000449565b9150620003b182620004d5565b604082019050919050565b6000620003cb601c8362000449565b9150620003d88262000524565b602082019050919050565b60006020820190508181036000830152620003fe816200036e565b9050919050565b60006020820190508181036000830152620004208162000395565b9050919050565b600060208201905081810360008301526200044281620003bc565b9050919050565b600082825260208201905092915050565b6000620004678262000482565b9050919050565b60006200047b826200045a565b9050919050565b600073ffffffffffffffffffffffffffffffffffffffff82169050919050565b6000819050919050565b7f41756374696f6e2073746172742076616c7565206973206e6f74207365742e00600082015250565b7f576520686176656e2774207365742061206d696e696d756d206269642070726960008201527f63652e0000000000000000000000000000000000000000000000000000000000602082015250565b7f456e642074696d652069732073686f72746572207468616e206e6f7700000000600082015250565b62000558816200045a565b81146200056457600080fd5b50565b62000572816200046e565b81146200057e57600080fd5b50565b6200058c81620004a2565b81146200059857600080fd5b50565b60805160601c611ed262000607600039600081816104070152818161042b015281816106140152818161076901528181610a6801528181610c4001528181610f1101528181611027015281816111d3015281816112270152818161130d015261147b0152611ed26000f3fe6080604052600436106100f35760003560e01c8063a5c42ef11161008a578063d7c9a0e311610059578063d7c9a0e31461030c578063ecfc7ecc14610323578063f5b56c561461032d578063f77282ab14610358576100f3565b8063a5c42ef114610260578063bb1806561461028b578063c7446565146102b6578063d3a86386146102e1576100f3565b80637fb45099116100c65780637fb45099146101c85780638da5cb5b146101f35780638fa8b7901461021e57806391f9015714610235576100f3565b80631834906c146100f857806357c0b5931461012357806362ea82db146101605780637cc3ae8c1461019d575b600080fd5b34801561010457600080fd5b5061010d61036f565b60405161011a91906117fa565b60405180910390f35b34801561012f57600080fd5b5061014a6004803603810190610145919061160a565b610395565b60405161015791906117fa565b60405180910390f35b34801561016c57600080fd5b50610187600480360381019061018291906115b8565b6103d4565b6040516101949190611a06565b60405180910390f35b3480156101a957600080fd5b506101b26103ec565b6040516101bf9190611a06565b60405180910390f35b3480156101d457600080fd5b506101dd6103f2565b6040516101ea91906118ab565b60405180910390f35b3480156101ff57600080fd5b50610208610405565b6040516102159190611815565b60405180910390f35b34801561022a57600080fd5b50610233610429565b005b34801561024157600080fd5b5061024a610709565b6040516102579190611815565b60405180910390f35b34801561026c57600080fd5b5061027561072f565b6040516102829190611a06565b60405180910390f35b34801561029757600080fd5b506102a0610735565b6040516102ad9190611890565b60405180910390f35b3480156102c257600080fd5b506102cb61075b565b6040516102d89190611a06565b60405180910390f35b3480156102ed57600080fd5b506102f6610761565b6040516103039190611a06565b60405180910390f35b34801561031857600080fd5b50610321610767565b005b61032b610a66565b005b34801561033957600080fd5b50610342610ec7565b60405161034f9190611a06565b60405180910390f35b34801561036457600080fd5b5061036d610ecd565b005b600660009054906101000a900473ffffffffffffffffffffffffffffffffffffffff1681565b600981815481106103a557600080fd5b906000526020600020016000915054906101000a900473ffffffffffffffffffffffffffffffffffffffff1681565b60086020528060005260406000206000915090505481565b60015481565b600760149054906101000a900460ff1681565b7f000000000000000000000000000000000000000000000000000000000000000081565b7f000000000000000000000000000000000000000000000000000000000000000073ffffffffffffffffffffffffffffffffffffffff163373ffffffffffffffffffffffffffffffffffffffff16146104b7576040517f08c379a00000000000000000000000000000000000000000000000000000000081526004016104ae90611966565b60405180910390fd5b600160038111156104f1577f4e487b7100000000000000000000000000000000000000000000000000000000600052602160045260246000fd5b600760149054906101000a900460ff166003811115610539577f4e487b7100000000000000000000000000000000000000000000000000000000600052602160045260246000fd5b14610579576040517f08c379a0000000000000000000000000000000000000000000000000000000008152600401610570906118c6565b60405180910390fd5b6001544211156105be576040517f08c379a00000000000000000000000000000000000000000000000000000000081526004016105b590611986565b60405180910390fd5b6003600760146101000a81548160ff0219169083600381111561060a577f4e487b7100000000000000000000000000000000000000000000000000000000600052602160045260246000fd5b02179055506002547f000000000000000000000000000000000000000000000000000000000000000073ffffffffffffffffffffffffffffffffffffffff167fe05f45f4b01f7170dbcb5acc4ce87c8b01b7cc4a43745eb4774dcc7e4fb5459c60405160405180910390a3600760009054906101000a900473ffffffffffffffffffffffffffffffffffffffff1673ffffffffffffffffffffffffffffffffffffffff1663efbc699660025460006040518363ffffffff1660e01b81526004016106d5929190611a21565b600060405180830381600087803b1580156106ef57600080fd5b505af1158015610703573d6000803e3d6000fd5b50505050565b600460009054906101000a900473ffffffffffffffffffffffffffffffffffffffff1681565b60025481565b600760009054906101000a900473ffffffffffffffffffffffffffffffffffffffff1681565b60005481565b60055481565b7f000000000000000000000000000000000000000000000000000000000000000073ffffffffffffffffffffffffffffffffffffffff163373ffffffffffffffffffffffffffffffffffffffff1614156107f6576040517f08c379a00000000000000000000000000000000000000000000000000000000081526004016107ed90611946565b60405180910390fd5b60016003811115610830577f4e487b7100000000000000000000000000000000000000000000000000000000600052602160045260246000fd5b600760149054906101000a900460ff166003811115610878577f4e487b7100000000000000000000000000000000000000000000000000000000600052602160045260246000fd5b146108b8576040517f08c379a00000000000000000000000000000000000000000000000000000000081526004016108af906118c6565b60405180910390fd5b6001544211156108fd576040517f08c379a00000000000000000000000000000000000000000000000000000000081526004016108f490611986565b60405180910390fd5b600460009054906101000a900473ffffffffffffffffffffffffffffffffffffffff1673ffffffffffffffffffffffffffffffffffffffff163373ffffffffffffffffffffffffffffffffffffffff16141561098e576040517f08c379a000000000000000000000000000000000000000000000000000000000815260040161098590611906565b60405180910390fd5b600080339150600860003373ffffffffffffffffffffffffffffffffffffffff1673ffffffffffffffffffffffffffffffffffffffff1681526020019081526020016000205490506000600860008473ffffffffffffffffffffffffffffffffffffffff1673ffffffffffffffffffffffffffffffffffffffff168152602001908152602001600020819055508173ffffffffffffffffffffffffffffffffffffffff166108fc829081150290604051600060405180830381858888f19350505050158015610a61573d6000803e3d6000fd5b505050565b7f000000000000000000000000000000000000000000000000000000000000000073ffffffffffffffffffffffffffffffffffffffff163373ffffffffffffffffffffffffffffffffffffffff161415610af5576040517f08c379a0000000000000000000000000000000000000000000000000000000008152600401610aec90611946565b60405180910390fd5b60016003811115610b2f577f4e487b7100000000000000000000000000000000000000000000000000000000600052602160045260246000fd5b600760149054906101000a900460ff166003811115610b77577f4e487b7100000000000000000000000000000000000000000000000000000000600052602160045260246000fd5b14610bb7576040517f08c379a0000000000000000000000000000000000000000000000000000000008152600401610bae906118c6565b60405180910390fd5b600154421115610bfc576040517f08c379a0000000000000000000000000000000000000000000000000000000008152600401610bf390611986565b60405180910390fd5b60011515600760009054906101000a900473ffffffffffffffffffffffffffffffffffffffff1673ffffffffffffffffffffffffffffffffffffffff1663e985e9c57f0000000000000000000000000000000000000000000000000000000000000000306040518363ffffffff1660e01b8152600401610c7d929190611830565b60206040518083038186803b158015610c9557600080fd5b505afa158015610ca9573d6000803e3d6000fd5b505050506040513d601f19601f82011682018060405250810190610ccd91906115e1565b151514610d0f576040517f08c379a0000000000000000000000000000000000000000000000000000000008152600401610d06906119e6565b60405180910390fd5b600554341015610d54576040517f08c379a0000000000000000000000000000000000000000000000000000000008152600401610d4b906118e6565b60405180910390fd5b600034600860003373ffffffffffffffffffffffffffffffffffffffff1673ffffffffffffffffffffffffffffffffffffffff16815260200190815260200160002054610da19190611a84565b90506003548111610de7576040517f08c379a0000000000000000000000000000000000000000000000000000000008152600401610dde906119a6565b60405180910390fd5b80600860003373ffffffffffffffffffffffffffffffffffffffff1673ffffffffffffffffffffffffffffffffffffffff16815260200190815260200160002081905550806003819055506002543373ffffffffffffffffffffffffffffffffffffffff167f5eed1c784e0541a0f30c67ee1b9b0036511707fef85df96ad37b038e2a1224ed83604051610e7b9190611a06565b60405180910390a333600460006101000a81548173ffffffffffffffffffffffffffffffffffffffff021916908373ffffffffffffffffffffffffffffffffffffffff16021790555050565b60035481565b60011515600760009054906101000a900473ffffffffffffffffffffffffffffffffffffffff1673ffffffffffffffffffffffffffffffffffffffff1663e985e9c57f0000000000000000000000000000000000000000000000000000000000000000306040518363ffffffff1660e01b8152600401610f4e929190611830565b60206040518083038186803b158015610f6657600080fd5b505afa158015610f7a573d6000803e3d6000fd5b505050506040513d601f19601f82011682018060405250810190610f9e91906115e1565b151514610fe0576040517f08c379a0000000000000000000000000000000000000000000000000000000008152600401610fd7906119e6565b60405180910390fd5b600154421015611025576040517f08c379a000000000000000000000000000000000000000000000000000000000815260040161101c90611926565b60405180910390fd5b7f000000000000000000000000000000000000000000000000000000000000000073ffffffffffffffffffffffffffffffffffffffff163373ffffffffffffffffffffffffffffffffffffffff1614806110be57506000600860003373ffffffffffffffffffffffffffffffffffffffff1673ffffffffffffffffffffffffffffffffffffffff16815260200190815260200160002054115b6110fd576040517f08c379a00000000000000000000000000000000000000000000000000000000081526004016110f4906119c6565b60405180910390fd5b600080600380811115611139577f4e487b7100000000000000000000000000000000000000000000000000000000600052602160045260246000fd5b600760149054906101000a900460ff166003811115611181577f4e487b7100000000000000000000000000000000000000000000000000000000600052602160045260246000fd5b14156111d157339150600860003373ffffffffffffffffffffffffffffffffffffffff1673ffffffffffffffffffffffffffffffffffffffff1681526020019081526020016000205490506113cd565b7f000000000000000000000000000000000000000000000000000000000000000073ffffffffffffffffffffffffffffffffffffffff163373ffffffffffffffffffffffffffffffffffffffff161415611252577f0000000000000000000000000000000000000000000000000000000000000000915060035490506113cc565b600460009054906101000a900473ffffffffffffffffffffffffffffffffffffffff1673ffffffffffffffffffffffffffffffffffffffff163373ffffffffffffffffffffffffffffffffffffffff16141561138557600460009054906101000a900473ffffffffffffffffffffffffffffffffffffffff169150600760009054906101000a900473ffffffffffffffffffffffffffffffffffffffff1673ffffffffffffffffffffffffffffffffffffffff166342842e0e7f0000000000000000000000000000000000000000000000000000000000000000846002546040518463ffffffff1660e01b815260040161134e93929190611859565b600060405180830381600087803b15801561136857600080fd5b505af115801561137c573d6000803e3d6000fd5b505050506113cb565b339150600860003373ffffffffffffffffffffffffffffffffffffffff1673ffffffffffffffffffffffffffffffffffffffff1681526020019081526020016000205490505b5b5b600760009054906101000a900473ffffffffffffffffffffffffffffffffffffffff1673ffffffffffffffffffffffffffffffffffffffff1663efbc699660025460006040518363ffffffff1660e01b815260040161142d929190611a21565b600060405180830381600087803b15801561144757600080fd5b505af115801561145b573d6000803e3d6000fd5b505050506002548273ffffffffffffffffffffffffffffffffffffffff167f000000000000000000000000000000000000000000000000000000000000000073ffffffffffffffffffffffffffffffffffffffff167fa4470fd7aa322f4cc022bd5aecd9c6c8aad2d238c251d87199e6118c611e980b84426040516114e1929190611a4a565b60405180910390a46000600860008473ffffffffffffffffffffffffffffffffffffffff1673ffffffffffffffffffffffffffffffffffffffff168152602001908152602001600020819055508173ffffffffffffffffffffffffffffffffffffffff166108fc829081150290604051600060405180830381858888f19350505050158015611574573d6000803e3d6000fd5b505050565b60008135905061158881611e57565b92915050565b60008151905061159d81611e6e565b92915050565b6000813590506115b281611e85565b92915050565b6000602082840312156115ca57600080fd5b60006115d884828501611579565b91505092915050565b6000602082840312156115f357600080fd5b60006116018482850161158e565b91505092915050565b60006020828403121561161c57600080fd5b600061162a848285016115a3565b91505092915050565b61163c81611b47565b82525050565b61164b81611aec565b82525050565b61165a81611ada565b82525050565b61166981611afe565b82525050565b61167881611b59565b82525050565b61168781611b7d565b82525050565b600061169a602383611a73565b91506116a582611c11565b604082019050919050565b60006116bd602183611a73565b91506116c882611c60565b604082019050919050565b60006116e0602f83611a73565b91506116eb82611caf565b604082019050919050565b6000611703601783611a73565b915061170e82611cfe565b602082019050919050565b6000611726601083611a73565b915061173182611d27565b602082019050919050565b6000611749601483611a73565b915061175482611d50565b602082019050919050565b600061176c602483611a73565b915061177782611d79565b604082019050919050565b600061178f601983611a73565b915061179a82611dc8565b602082019050919050565b60006117b2600083611a73565b91506117bd82611df1565b600082019050919050565b60006117d5602383611a73565b91506117e082611df4565b604082019050919050565b6117f481611b3d565b82525050565b600060208201905061180f6000830184611651565b92915050565b600060208201905061182a6000830184611642565b92915050565b60006040820190506118456000830185611633565b6118526020830184611651565b9392505050565b600060608201905061186e6000830186611633565b61187b6020830185611633565b61188860408301846117eb565b949350505050565b60006020820190506118a5600083018461166f565b92915050565b60006020820190506118c0600083018461167e565b92915050565b600060208201905081810360008301526118df8161168d565b9050919050565b600060208201905081810360008301526118ff816116b0565b9050919050565b6000602082019050818103600083015261191f816116d3565b9050919050565b6000602082019050818103600083015261193f816116f6565b9050919050565b6000602082019050818103600083015261195f81611719565b9050919050565b6000602082019050818103600083015261197f8161173c565b9050919050565b6000602082019050818103600083015261199f8161175f565b9050919050565b600060208201905081810360008301526119bf81611782565b9050919050565b600060208201905081810360008301526119df816117a5565b9050919050565b600060208201905081810360008301526119ff816117c8565b9050919050565b6000602082019050611a1b60008301846117eb565b92915050565b6000604082019050611a3660008301856117eb565b611a436020830184611660565b9392505050565b6000604082019050611a5f60008301856117eb565b611a6c60208301846117eb565b9392505050565b600082825260208201905092915050565b6000611a8f82611b3d565b9150611a9a83611b3d565b9250827fffffffffffffffffffffffffffffffffffffffffffffffffffffffffffffffff03821115611acf57611ace611bb3565b5b828201905092915050565b6000611ae582611b1d565b9050919050565b6000611af782611b1d565b9050919050565b60008115159050919050565b6000819050611b1882611e43565b919050565b600073ffffffffffffffffffffffffffffffffffffffff82169050919050565b6000819050919050565b6000611b5282611b8f565b9050919050565b6000611b6482611b6b565b9050919050565b6000611b7682611b1d565b9050919050565b6000611b8882611b0a565b9050919050565b6000611b9a82611ba1565b9050919050565b6000611bac82611b1d565b9050919050565b7f4e487b7100000000000000000000000000000000000000000000000000000000600052601160045260246000fd5b7f4e487b7100000000000000000000000000000000000000000000000000000000600052602160045260246000fd5b7f41756374696f6e207374617465206973206e6f742052756e6e696e672073746160008201527f74652e0000000000000000000000000000000000000000000000000000000000602082015250565b7f596f757220626964206973206c6f776572207468616e206d696e696d756d426960008201527f6400000000000000000000000000000000000000000000000000000000000000602082015250565b7f596f75206172652068696768657374206269646465722e2043616e206e6f742060008201527f67657420796f7572206d6f6e65792e0000000000000000000000000000000000602082015250565b7f41756374696f6e206973206e6f772072756e6e696e672e000000000000000000600082015250565b7f53656e646572206973206f776e65722e00000000000000000000000000000000600082015250565b7f53656e646572206973206e6f74206f776e65722e000000000000000000000000600082015250565b7f5468652062696464696e6720666f72207468652061756374696f6e206973206f60008201527f7665722e00000000000000000000000000000000000000000000000000000000602082015250565b7f63757272656e7420626964203c20686967686573742062696400000000000000600082015250565b50565b7f4f776e657220646964206e6f7420617070726f7665207468697320617563746960008201527f6f6e2e0000000000000000000000000000000000000000000000000000000000602082015250565b60048110611e5457611e53611be2565b5b50565b611e6081611ada565b8114611e6b57600080fd5b50565b611e7781611afe565b8114611e8257600080fd5b50565b611e8e81611b3d565b8114611e9957600080fd5b5056fea264697066735822122047287f70a948f2231b937106945e9ba23a5907256eb581f3f5d42f8c52d61c8e64736f6c63430008010033",
    "linkReferences": {},
    "deployedLinkReferences": {}
}