{
    "contractAddress": "0x8f88F4bC63c4c874012e056B675A4B9e97352B73",
    "_format": "hh-sol-artifact-1",
    "contractName": "AuctionCreator",
    "sourceName": "contracts/AuctionCreator.sol",
    "abi": [
        {
            "inputs": [
                {
                    "internalType": "address",
                    "name": "_mintMusicTokenAddress",
                    "type": "address"
                }
            ],
            "stateMutability": "nonpayable",
            "type": "constructor"
        },
        {
            "inputs": [],
            "name": "allAuctions",
            "outputs": [
                {
                    "components": [
                        {
                            "internalType": "uint256",
                            "name": "tokenId",
                            "type": "uint256"
                        },
                        {
                            "internalType": "address",
                            "name": "msgSender",
                            "type": "address"
                        },
                        {
                            "internalType": "contract Auction",
                            "name": "newAuctionContract",
                            "type": "address"
                        }
                    ],
                    "internalType": "struct AuctionCreator.AuctionInformation[]",
                    "name": "",
                    "type": "tuple[]"
                }
            ],
            "stateMutability": "view",
            "type": "function"
        },
        {
            "inputs": [
                {
                    "internalType": "uint256",
                    "name": "",
                    "type": "uint256"
                }
            ],
            "name": "auctions",
            "outputs": [
                {
                    "internalType": "uint256",
                    "name": "tokenId",
                    "type": "uint256"
                },
                {
                    "internalType": "address",
                    "name": "msgSender",
                    "type": "address"
                },
                {
                    "internalType": "contract Auction",
                    "name": "newAuctionContract",
                    "type": "address"
                }
            ],
            "stateMutability": "view",
            "type": "function"
        },
        {
            "inputs": [
                {
                    "internalType": "uint256",
                    "name": "_startingBid",
                    "type": "uint256"
                },
                {
                    "internalType": "uint256",
                    "name": "_endAt",
                    "type": "uint256"
                },
                {
                    "internalType": "uint256",
                    "name": "_tokenID",
                    "type": "uint256"
                },
                {
                    "internalType": "uint256",
                    "name": "_minimumBid",
                    "type": "uint256"
                }
            ],
            "name": "createAuction",
            "outputs": [],
            "stateMutability": "nonpayable",
            "type": "function"
        },
        {
            "inputs": [
                {
                    "internalType": "address",
                    "name": "_myAddress",
                    "type": "address"
                }
            ],
            "name": "getMyAuctions",
            "outputs": [
                {
                    "components": [
                        {
                            "internalType": "uint256",
                            "name": "tokenId",
                            "type": "uint256"
                        },
                        {
                            "internalType": "address",
                            "name": "msgSender",
                            "type": "address"
                        },
                        {
                            "internalType": "contract Auction",
                            "name": "newAuctionContract",
                            "type": "address"
                        }
                    ],
                    "internalType": "struct AuctionCreator.AuctionInformation[]",
                    "name": "",
                    "type": "tuple[]"
                }
            ],
            "stateMutability": "view",
            "type": "function"
        },
        {
            "inputs": [],
            "name": "mintMusicTokenAddress",
            "outputs": [
                {
                    "internalType": "contract MintMusicToken",
                    "name": "",
                    "type": "address"
                }
            ],
            "stateMutability": "view",
            "type": "function"
        },
        {
            "inputs": [
                {
                    "internalType": "address",
                    "name": "",
                    "type": "address"
                }
            ],
            "name": "newAuctionContract",
            "outputs": [
                {
                    "internalType": "contract Auction",
                    "name": "",
                    "type": "address"
                }
            ],
            "stateMutability": "view",
            "type": "function"
        }
    ],
    "bytecode": "0x60806040523480156200001157600080fd5b50604051620038d6380380620038d6833981810160405281019062000037919062000095565b806000806101000a81548173ffffffffffffffffffffffffffffffffffffffff021916908373ffffffffffffffffffffffffffffffffffffffff160217905550506200010f565b6000815190506200008f81620000f5565b92915050565b600060208284031215620000a857600080fd5b6000620000b8848285016200007e565b91505092915050565b6000620000ce82620000d5565b9050919050565b600073ffffffffffffffffffffffffffffffffffffffff82169050919050565b6200010081620000c1565b81146200010c57600080fd5b50565b6137b7806200011f6000396000f3fe60806040523480156200001157600080fd5b50600436106200006a5760003560e01c80631bbcd4a5146200006f578063431f21da146200009157806343e502ed14620000b1578063571a26a014620000e7578063bb180656146200011f578063bcf05bf71462000141575b600080fd5b6200007962000177565b60405162000088919062000f2d565b60405180910390f35b620000af6004803603810190620000a9919062000cb2565b6200028e565b005b620000cf6004803603810190620000c9919062000c02565b620006e2565b604051620000de919062000f51565b60405180910390f35b620001056004803603810190620000ff919062000c86565b62000715565b604051620001169392919062000fec565b60405180910390f35b6200012962000790565b60405162000138919062000f6e565b60405180910390f35b6200015f600480360381019062000159919062000c02565b620007b4565b6040516200016e919062000f2d565b60405180910390f35b60606001805480602002602001604051908101604052809291908181526020016000905b82821015620002855783829060005260206000209060030201604051806060016040529081600082015481526020016001820160009054906101000a900473ffffffffffffffffffffffffffffffffffffffff1673ffffffffffffffffffffffffffffffffffffffff1673ffffffffffffffffffffffffffffffffffffffff1681526020016002820160009054906101000a900473ffffffffffffffffffffffffffffffffffffffff1673ffffffffffffffffffffffffffffffffffffffff1673ffffffffffffffffffffffffffffffffffffffff1681525050815260200190600101906200019b565b50505050905090565b6000151560008054906101000a900473ffffffffffffffffffffffffffffffffffffffff1673ffffffffffffffffffffffffffffffffffffffff1663ad04b54c846040518263ffffffff1660e01b8152600401620002ed919062000fcf565b60206040518083038186803b1580156200030657600080fd5b505afa1580156200031b573d6000803e3d6000fd5b505050506040513d601f19601f8201168201806040525081019062000341919062000c5a565b15151462000386576040517f08c379a00000000000000000000000000000000000000000000000000000000081526004016200037d9062000f8b565b60405180910390fd5b824211156200039457600080fd5b60008411620003a257600080fd5b60008111620003b057600080fd5b60008060009054906101000a900473ffffffffffffffffffffffffffffffffffffffff1673ffffffffffffffffffffffffffffffffffffffff16636352211e846040518263ffffffff1660e01b81526004016200040e919062000fcf565b60206040518083038186803b1580156200042757600080fd5b505afa1580156200043c573d6000803e3d6000fd5b505050506040513d601f19601f8201168201806040525081019062000462919062000c2e565b90508073ffffffffffffffffffffffffffffffffffffffff163373ffffffffffffffffffffffffffffffffffffffff1614620004d5576040517f08c379a0000000000000000000000000000000000000000000000000000000008152600401620004cc9062000fad565b60405180910390fd5b6000338686868660008054906101000a900473ffffffffffffffffffffffffffffffffffffffff166040516200050b9062000b4b565b6200051c9695949392919062000ec0565b604051809103906000f08015801562000539573d6000803e3d6000fd5b50905060008054906101000a900473ffffffffffffffffffffffffffffffffffffffff1673ffffffffffffffffffffffffffffffffffffffff1663efbc69968560016040518363ffffffff1660e01b81526004016200059a92919062001029565b600060405180830381600087803b158015620005b557600080fd5b505af1158015620005ca573d6000803e3d6000fd5b50505050600160405180606001604052808681526020013373ffffffffffffffffffffffffffffffffffffffff1681526020018373ffffffffffffffffffffffffffffffffffffffff1681525090806001815401808255809150506001900390600052602060002090600302016000909190919091506000820151816000015560208201518160010160006101000a81548173ffffffffffffffffffffffffffffffffffffffff021916908373ffffffffffffffffffffffffffffffffffffffff16021790555060408201518160020160006101000a81548173ffffffffffffffffffffffffffffffffffffffff021916908373ffffffffffffffffffffffffffffffffffffffff1602179055505050505050505050565b60026020528060005260406000206000915054906101000a900473ffffffffffffffffffffffffffffffffffffffff1681565b600181815481106200072657600080fd5b90600052602060002090600302016000915090508060000154908060010160009054906101000a900473ffffffffffffffffffffffffffffffffffffffff16908060020160009054906101000a900473ffffffffffffffffffffffffffffffffffffffff16905083565b60008054906101000a900473ffffffffffffffffffffffffffffffffffffffff1681565b606060008060005b60018054905081101562000892578473ffffffffffffffffffffffffffffffffffffffff16600182815481106200081c577f4e487b7100000000000000000000000000000000000000000000000000000000600052603260045260246000fd5b906000526020600020906003020160010160009054906101000a900473ffffffffffffffffffffffffffffffffffffffff1673ffffffffffffffffffffffffffffffffffffffff1614156200087c57828062000878906200113a565b9350505b808062000889906200113a565b915050620007bc565b5060008267ffffffffffffffff811115620008d6577f4e487b7100000000000000000000000000000000000000000000000000000000600052604160045260246000fd5b6040519080825280602002602001820160405280156200091357816020015b620008ff62000b59565b815260200190600190039081620008f55790505b50905060005b60018054905081101562000b3f578573ffffffffffffffffffffffffffffffffffffffff166001828154811062000979577f4e487b7100000000000000000000000000000000000000000000000000000000600052603260045260246000fd5b906000526020600020906003020160010160009054906101000a900473ffffffffffffffffffffffffffffffffffffffff1673ffffffffffffffffffffffffffffffffffffffff16141562000b295760006001828154811062000a05577f4e487b7100000000000000000000000000000000000000000000000000000000600052603260045260246000fd5b906000526020600020906003020160000154905060006001838154811062000a56577f4e487b7100000000000000000000000000000000000000000000000000000000600052603260045260246000fd5b906000526020600020906003020160020160009054906101000a900473ffffffffffffffffffffffffffffffffffffffff16905060405180606001604052808381526020018973ffffffffffffffffffffffffffffffffffffffff1681526020018273ffffffffffffffffffffffffffffffffffffffff1681525084868151811062000b0b577f4e487b7100000000000000000000000000000000000000000000000000000000600052603260045260246000fd5b6020026020010181905250848062000b23906200113a565b95505050505b808062000b36906200113a565b91505062000919565b50809350505050919050565b61252a806200125883390190565b604051806060016040528060008152602001600073ffffffffffffffffffffffffffffffffffffffff168152602001600073ffffffffffffffffffffffffffffffffffffffff1681525090565b60008135905062000bb78162001209565b92915050565b60008151905062000bce8162001209565b92915050565b60008151905062000be58162001223565b92915050565b60008135905062000bfc816200123d565b92915050565b60006020828403121562000c1557600080fd5b600062000c258482850162000ba6565b91505092915050565b60006020828403121562000c4157600080fd5b600062000c518482850162000bbd565b91505092915050565b60006020828403121562000c6d57600080fd5b600062000c7d8482850162000bd4565b91505092915050565b60006020828403121562000c9957600080fd5b600062000ca98482850162000beb565b91505092915050565b6000806000806080858703121562000cc957600080fd5b600062000cd98782880162000beb565b945050602062000cec8782880162000beb565b935050604062000cff8782880162000beb565b925050606062000d128782880162000beb565b91505092959194509250565b600062000d2c838362000e56565b60608301905092915050565b62000d4381620010a0565b82525050565b62000d5481620010a0565b82525050565b600062000d678262001066565b62000d7381856200107e565b935062000d808362001056565b8060005b8381101562000db757815162000d9b888262000d1e565b975062000da88362001071565b92505060018101905062000d84565b5085935050505092915050565b62000dcf81620010b4565b82525050565b62000de081620010ea565b82525050565b62000df181620010ea565b82525050565b62000e028162001112565b82525050565b600062000e176016836200108f565b915062000e2482620011b7565b602082019050919050565b600062000e3e601d836200108f565b915062000e4b82620011e0565b602082019050919050565b60608201600082015162000e6e600085018262000e9e565b50602082015162000e83602085018262000d38565b50604082015162000e98604085018262000dd5565b50505050565b62000ea981620010e0565b82525050565b62000eba81620010e0565b82525050565b600060c08201905062000ed7600083018962000d49565b62000ee6602083018862000eaf565b62000ef5604083018762000eaf565b62000f04606083018662000eaf565b62000f13608083018562000eaf565b62000f2260a083018462000df7565b979650505050505050565b6000602082019050818103600083015262000f49818462000d5a565b905092915050565b600060208201905062000f68600083018462000de6565b92915050565b600060208201905062000f85600083018462000df7565b92915050565b6000602082019050818103600083015262000fa68162000e08565b9050919050565b6000602082019050818103600083015262000fc88162000e2f565b9050919050565b600060208201905062000fe6600083018462000eaf565b92915050565b600060608201905062001003600083018662000eaf565b62001012602083018562000d49565b62001021604083018462000de6565b949350505050565b600060408201905062001040600083018562000eaf565b6200104f602083018462000dc4565b9392505050565b6000819050602082019050919050565b600081519050919050565b6000602082019050919050565b600082825260208201905092915050565b600082825260208201905092915050565b6000620010ad82620010c0565b9050919050565b60008115159050919050565b600073ffffffffffffffffffffffffffffffffffffffff82169050919050565b6000819050919050565b6000620010f782620010fe565b9050919050565b60006200110b82620010c0565b9050919050565b60006200111f8262001126565b9050919050565b60006200113382620010c0565b9050919050565b60006200114782620010e0565b91507fffffffffffffffffffffffffffffffffffffffffffffffffffffffffffffffff8214156200117d576200117c62001188565b5b600182019050919050565b7f4e487b7100000000000000000000000000000000000000000000000000000000600052601160045260246000fd5b7f5468697320746f6b656e206973206f6e2073616c652e00000000000000000000600082015250565b7f546869732075736572206973206e6f7420746f6b656e204f776e65722e000000600082015250565b6200121481620010a0565b81146200122057600080fd5b50565b6200122e81620010b4565b81146200123a57600080fd5b50565b6200124881620010e0565b81146200125457600080fd5b5056fe60a06040523480156200001157600080fd5b506040516200252a3803806200252a8339818101604052810190620000379190620002d8565b834211156200007d576040517f08c379a0000000000000000000000000000000000000000000000000000000008152600401620000749062000427565b60405180910390fd5b60008511620000c3576040517f08c379a0000000000000000000000000000000000000000000000000000000008152600401620000ba90620003e3565b60405180910390fd5b6000821162000109576040517f08c379a0000000000000000000000000000000000000000000000000000000008152600401620001009062000405565b60405180910390fd5b8573ffffffffffffffffffffffffffffffffffffffff1660808173ffffffffffffffffffffffffffffffffffffffff1660601b815250506001600760146101000a81548160ff021916908360038111156200018d577f4e487b7100000000000000000000000000000000000000000000000000000000600052602160045260246000fd5b0217905550846003819055504263ffffffff166000819055508363ffffffff16600181905550816005819055508260028190555080600760006101000a81548173ffffffffffffffffffffffffffffffffffffffff021916908373ffffffffffffffffffffffffffffffffffffffff160217905550828673ffffffffffffffffffffffffffffffffffffffff167f7fc39c418005ff12d54ba66aa49c0b0afb39c1637c949aaef095409253a38e7260405160405180910390a330600660006101000a81548173ffffffffffffffffffffffffffffffffffffffff021916908373ffffffffffffffffffffffffffffffffffffffff1602179055505050505050506200059b565b600081519050620002a4816200054d565b92915050565b600081519050620002bb8162000567565b92915050565b600081519050620002d28162000581565b92915050565b60008060008060008060c08789031215620002f257600080fd5b60006200030289828a0162000293565b96505060206200031589828a01620002c1565b95505060406200032889828a01620002c1565b94505060606200033b89828a01620002c1565b93505060806200034e89828a01620002c1565b92505060a06200036189828a01620002aa565b9150509295509295509295565b60006200037d601f8362000449565b91506200038a82620004ac565b602082019050919050565b6000620003a460238362000449565b9150620003b182620004d5565b604082019050919050565b6000620003cb601c8362000449565b9150620003d88262000524565b602082019050919050565b60006020820190508181036000830152620003fe816200036e565b9050919050565b60006020820190508181036000830152620004208162000395565b9050919050565b600060208201905081810360008301526200044281620003bc565b9050919050565b600082825260208201905092915050565b6000620004678262000482565b9050919050565b60006200047b826200045a565b9050919050565b600073ffffffffffffffffffffffffffffffffffffffff82169050919050565b6000819050919050565b7f41756374696f6e2073746172742076616c7565206973206e6f74207365742e00600082015250565b7f576520686176656e2774207365742061206d696e696d756d206269642070726960008201527f63652e0000000000000000000000000000000000000000000000000000000000602082015250565b7f456e642074696d652069732073686f72746572207468616e206e6f7700000000600082015250565b62000558816200045a565b81146200056457600080fd5b50565b62000572816200046e565b81146200057e57600080fd5b50565b6200058c81620004a2565b81146200059857600080fd5b50565b60805160601c611f2362000607600039600081816104070152818161042b015281816106140152818161076901528181610a6801528181610c4001528181610f1101528181611027015281816111d3015281816112270152818161135e01526114cc0152611f236000f3fe6080604052600436106100f35760003560e01c8063a5c42ef11161008a578063d7c9a0e311610059578063d7c9a0e31461030c578063ecfc7ecc14610323578063f5b56c561461032d578063f77282ab14610358576100f3565b8063a5c42ef114610260578063bb1806561461028b578063c7446565146102b6578063d3a86386146102e1576100f3565b80637fb45099116100c65780637fb45099146101c85780638da5cb5b146101f35780638fa8b7901461021e57806391f9015714610235576100f3565b80631834906c146100f857806357c0b5931461012357806362ea82db146101605780637cc3ae8c1461019d575b600080fd5b34801561010457600080fd5b5061010d61036f565b60405161011a919061184b565b60405180910390f35b34801561012f57600080fd5b5061014a6004803603810190610145919061165b565b610395565b604051610157919061184b565b60405180910390f35b34801561016c57600080fd5b5061018760048036038101906101829190611609565b6103d4565b6040516101949190611a57565b60405180910390f35b3480156101a957600080fd5b506101b26103ec565b6040516101bf9190611a57565b60405180910390f35b3480156101d457600080fd5b506101dd6103f2565b6040516101ea91906118fc565b60405180910390f35b3480156101ff57600080fd5b50610208610405565b6040516102159190611866565b60405180910390f35b34801561022a57600080fd5b50610233610429565b005b34801561024157600080fd5b5061024a610709565b6040516102579190611866565b60405180910390f35b34801561026c57600080fd5b5061027561072f565b6040516102829190611a57565b60405180910390f35b34801561029757600080fd5b506102a0610735565b6040516102ad91906118e1565b60405180910390f35b3480156102c257600080fd5b506102cb61075b565b6040516102d89190611a57565b60405180910390f35b3480156102ed57600080fd5b506102f6610761565b6040516103039190611a57565b60405180910390f35b34801561031857600080fd5b50610321610767565b005b61032b610a66565b005b34801561033957600080fd5b50610342610ec7565b60405161034f9190611a57565b60405180910390f35b34801561036457600080fd5b5061036d610ecd565b005b600660009054906101000a900473ffffffffffffffffffffffffffffffffffffffff1681565b600981815481106103a557600080fd5b906000526020600020016000915054906101000a900473ffffffffffffffffffffffffffffffffffffffff1681565b60086020528060005260406000206000915090505481565b60015481565b600760149054906101000a900460ff1681565b7f000000000000000000000000000000000000000000000000000000000000000081565b7f000000000000000000000000000000000000000000000000000000000000000073ffffffffffffffffffffffffffffffffffffffff163373ffffffffffffffffffffffffffffffffffffffff16146104b7576040517f08c379a00000000000000000000000000000000000000000000000000000000081526004016104ae906119b7565b60405180910390fd5b600160038111156104f1577f4e487b7100000000000000000000000000000000000000000000000000000000600052602160045260246000fd5b600760149054906101000a900460ff166003811115610539577f4e487b7100000000000000000000000000000000000000000000000000000000600052602160045260246000fd5b14610579576040517f08c379a000000000000000000000000000000000000000000000000000000000815260040161057090611917565b60405180910390fd5b6001544211156105be576040517f08c379a00000000000000000000000000000000000000000000000000000000081526004016105b5906119d7565b60405180910390fd5b6003600760146101000a81548160ff0219169083600381111561060a577f4e487b7100000000000000000000000000000000000000000000000000000000600052602160045260246000fd5b02179055506002547f000000000000000000000000000000000000000000000000000000000000000073ffffffffffffffffffffffffffffffffffffffff167fe05f45f4b01f7170dbcb5acc4ce87c8b01b7cc4a43745eb4774dcc7e4fb5459c60405160405180910390a3600760009054906101000a900473ffffffffffffffffffffffffffffffffffffffff1673ffffffffffffffffffffffffffffffffffffffff1663efbc699660025460006040518363ffffffff1660e01b81526004016106d5929190611a72565b600060405180830381600087803b1580156106ef57600080fd5b505af1158015610703573d6000803e3d6000fd5b50505050565b600460009054906101000a900473ffffffffffffffffffffffffffffffffffffffff1681565b60025481565b600760009054906101000a900473ffffffffffffffffffffffffffffffffffffffff1681565b60005481565b60055481565b7f000000000000000000000000000000000000000000000000000000000000000073ffffffffffffffffffffffffffffffffffffffff163373ffffffffffffffffffffffffffffffffffffffff1614156107f6576040517f08c379a00000000000000000000000000000000000000000000000000000000081526004016107ed90611997565b60405180910390fd5b60016003811115610830577f4e487b7100000000000000000000000000000000000000000000000000000000600052602160045260246000fd5b600760149054906101000a900460ff166003811115610878577f4e487b7100000000000000000000000000000000000000000000000000000000600052602160045260246000fd5b146108b8576040517f08c379a00000000000000000000000000000000000000000000000000000000081526004016108af90611917565b60405180910390fd5b6001544211156108fd576040517f08c379a00000000000000000000000000000000000000000000000000000000081526004016108f4906119d7565b60405180910390fd5b600460009054906101000a900473ffffffffffffffffffffffffffffffffffffffff1673ffffffffffffffffffffffffffffffffffffffff163373ffffffffffffffffffffffffffffffffffffffff16141561098e576040517f08c379a000000000000000000000000000000000000000000000000000000000815260040161098590611957565b60405180910390fd5b600080339150600860003373ffffffffffffffffffffffffffffffffffffffff1673ffffffffffffffffffffffffffffffffffffffff1681526020019081526020016000205490506000600860008473ffffffffffffffffffffffffffffffffffffffff1673ffffffffffffffffffffffffffffffffffffffff168152602001908152602001600020819055508173ffffffffffffffffffffffffffffffffffffffff166108fc829081150290604051600060405180830381858888f19350505050158015610a61573d6000803e3d6000fd5b505050565b7f000000000000000000000000000000000000000000000000000000000000000073ffffffffffffffffffffffffffffffffffffffff163373ffffffffffffffffffffffffffffffffffffffff161415610af5576040517f08c379a0000000000000000000000000000000000000000000000000000000008152600401610aec90611997565b60405180910390fd5b60016003811115610b2f577f4e487b7100000000000000000000000000000000000000000000000000000000600052602160045260246000fd5b600760149054906101000a900460ff166003811115610b77577f4e487b7100000000000000000000000000000000000000000000000000000000600052602160045260246000fd5b14610bb7576040517f08c379a0000000000000000000000000000000000000000000000000000000008152600401610bae90611917565b60405180910390fd5b600154421115610bfc576040517f08c379a0000000000000000000000000000000000000000000000000000000008152600401610bf3906119d7565b60405180910390fd5b60011515600760009054906101000a900473ffffffffffffffffffffffffffffffffffffffff1673ffffffffffffffffffffffffffffffffffffffff1663e985e9c57f0000000000000000000000000000000000000000000000000000000000000000306040518363ffffffff1660e01b8152600401610c7d929190611881565b60206040518083038186803b158015610c9557600080fd5b505afa158015610ca9573d6000803e3d6000fd5b505050506040513d601f19601f82011682018060405250810190610ccd9190611632565b151514610d0f576040517f08c379a0000000000000000000000000000000000000000000000000000000008152600401610d0690611a37565b60405180910390fd5b600554341015610d54576040517f08c379a0000000000000000000000000000000000000000000000000000000008152600401610d4b90611937565b60405180910390fd5b600034600860003373ffffffffffffffffffffffffffffffffffffffff1673ffffffffffffffffffffffffffffffffffffffff16815260200190815260200160002054610da19190611ad5565b90506003548111610de7576040517f08c379a0000000000000000000000000000000000000000000000000000000008152600401610dde906119f7565b60405180910390fd5b80600860003373ffffffffffffffffffffffffffffffffffffffff1673ffffffffffffffffffffffffffffffffffffffff16815260200190815260200160002081905550806003819055506002543373ffffffffffffffffffffffffffffffffffffffff167f5eed1c784e0541a0f30c67ee1b9b0036511707fef85df96ad37b038e2a1224ed83604051610e7b9190611a57565b60405180910390a333600460006101000a81548173ffffffffffffffffffffffffffffffffffffffff021916908373ffffffffffffffffffffffffffffffffffffffff16021790555050565b60035481565b60011515600760009054906101000a900473ffffffffffffffffffffffffffffffffffffffff1673ffffffffffffffffffffffffffffffffffffffff1663e985e9c57f0000000000000000000000000000000000000000000000000000000000000000306040518363ffffffff1660e01b8152600401610f4e929190611881565b60206040518083038186803b158015610f6657600080fd5b505afa158015610f7a573d6000803e3d6000fd5b505050506040513d601f19601f82011682018060405250810190610f9e9190611632565b151514610fe0576040517f08c379a0000000000000000000000000000000000000000000000000000000008152600401610fd790611a37565b60405180910390fd5b600154421015611025576040517f08c379a000000000000000000000000000000000000000000000000000000000815260040161101c90611977565b60405180910390fd5b7f000000000000000000000000000000000000000000000000000000000000000073ffffffffffffffffffffffffffffffffffffffff163373ffffffffffffffffffffffffffffffffffffffff1614806110be57506000600860003373ffffffffffffffffffffffffffffffffffffffff1673ffffffffffffffffffffffffffffffffffffffff16815260200190815260200160002054115b6110fd576040517f08c379a00000000000000000000000000000000000000000000000000000000081526004016110f490611a17565b60405180910390fd5b600080600380811115611139577f4e487b7100000000000000000000000000000000000000000000000000000000600052602160045260246000fd5b600760149054906101000a900460ff166003811115611181577f4e487b7100000000000000000000000000000000000000000000000000000000600052602160045260246000fd5b14156111d157339150600860003373ffffffffffffffffffffffffffffffffffffffff1673ffffffffffffffffffffffffffffffffffffffff16815260200190815260200160002054905061141e565b7f000000000000000000000000000000000000000000000000000000000000000073ffffffffffffffffffffffffffffffffffffffff163373ffffffffffffffffffffffffffffffffffffffff1614156112a3577f0000000000000000000000000000000000000000000000000000000000000000915060035490506002600760146101000a81548160ff02191690836003811115611299577f4e487b7100000000000000000000000000000000000000000000000000000000600052602160045260246000fd5b021790555061141d565b600460009054906101000a900473ffffffffffffffffffffffffffffffffffffffff1673ffffffffffffffffffffffffffffffffffffffff163373ffffffffffffffffffffffffffffffffffffffff1614156113d657600460009054906101000a900473ffffffffffffffffffffffffffffffffffffffff169150600760009054906101000a900473ffffffffffffffffffffffffffffffffffffffff1673ffffffffffffffffffffffffffffffffffffffff166342842e0e7f0000000000000000000000000000000000000000000000000000000000000000846002546040518463ffffffff1660e01b815260040161139f939291906118aa565b600060405180830381600087803b1580156113b957600080fd5b505af11580156113cd573d6000803e3d6000fd5b5050505061141c565b339150600860003373ffffffffffffffffffffffffffffffffffffffff1673ffffffffffffffffffffffffffffffffffffffff1681526020019081526020016000205490505b5b5b600760009054906101000a900473ffffffffffffffffffffffffffffffffffffffff1673ffffffffffffffffffffffffffffffffffffffff1663efbc699660025460006040518363ffffffff1660e01b815260040161147e929190611a72565b600060405180830381600087803b15801561149857600080fd5b505af11580156114ac573d6000803e3d6000fd5b505050506002548273ffffffffffffffffffffffffffffffffffffffff167f000000000000000000000000000000000000000000000000000000000000000073ffffffffffffffffffffffffffffffffffffffff167fa4470fd7aa322f4cc022bd5aecd9c6c8aad2d238c251d87199e6118c611e980b8442604051611532929190611a9b565b60405180910390a46000600860008473ffffffffffffffffffffffffffffffffffffffff1673ffffffffffffffffffffffffffffffffffffffff168152602001908152602001600020819055508173ffffffffffffffffffffffffffffffffffffffff166108fc829081150290604051600060405180830381858888f193505050501580156115c5573d6000803e3d6000fd5b505050565b6000813590506115d981611ea8565b92915050565b6000815190506115ee81611ebf565b92915050565b60008135905061160381611ed6565b92915050565b60006020828403121561161b57600080fd5b6000611629848285016115ca565b91505092915050565b60006020828403121561164457600080fd5b6000611652848285016115df565b91505092915050565b60006020828403121561166d57600080fd5b600061167b848285016115f4565b91505092915050565b61168d81611b98565b82525050565b61169c81611b3d565b82525050565b6116ab81611b2b565b82525050565b6116ba81611b4f565b82525050565b6116c981611baa565b82525050565b6116d881611bce565b82525050565b60006116eb602383611ac4565b91506116f682611c62565b604082019050919050565b600061170e602183611ac4565b915061171982611cb1565b604082019050919050565b6000611731602f83611ac4565b915061173c82611d00565b604082019050919050565b6000611754601783611ac4565b915061175f82611d4f565b602082019050919050565b6000611777601083611ac4565b915061178282611d78565b602082019050919050565b600061179a601483611ac4565b91506117a582611da1565b602082019050919050565b60006117bd602483611ac4565b91506117c882611dca565b604082019050919050565b60006117e0601983611ac4565b91506117eb82611e19565b602082019050919050565b6000611803600083611ac4565b915061180e82611e42565b600082019050919050565b6000611826602383611ac4565b915061183182611e45565b604082019050919050565b61184581611b8e565b82525050565b600060208201905061186060008301846116a2565b92915050565b600060208201905061187b6000830184611693565b92915050565b60006040820190506118966000830185611684565b6118a360208301846116a2565b9392505050565b60006060820190506118bf6000830186611684565b6118cc6020830185611684565b6118d9604083018461183c565b949350505050565b60006020820190506118f660008301846116c0565b92915050565b600060208201905061191160008301846116cf565b92915050565b60006020820190508181036000830152611930816116de565b9050919050565b6000602082019050818103600083015261195081611701565b9050919050565b6000602082019050818103600083015261197081611724565b9050919050565b6000602082019050818103600083015261199081611747565b9050919050565b600060208201905081810360008301526119b08161176a565b9050919050565b600060208201905081810360008301526119d08161178d565b9050919050565b600060208201905081810360008301526119f0816117b0565b9050919050565b60006020820190508181036000830152611a10816117d3565b9050919050565b60006020820190508181036000830152611a30816117f6565b9050919050565b60006020820190508181036000830152611a5081611819565b9050919050565b6000602082019050611a6c600083018461183c565b92915050565b6000604082019050611a87600083018561183c565b611a9460208301846116b1565b9392505050565b6000604082019050611ab0600083018561183c565b611abd602083018461183c565b9392505050565b600082825260208201905092915050565b6000611ae082611b8e565b9150611aeb83611b8e565b9250827fffffffffffffffffffffffffffffffffffffffffffffffffffffffffffffffff03821115611b2057611b1f611c04565b5b828201905092915050565b6000611b3682611b6e565b9050919050565b6000611b4882611b6e565b9050919050565b60008115159050919050565b6000819050611b6982611e94565b919050565b600073ffffffffffffffffffffffffffffffffffffffff82169050919050565b6000819050919050565b6000611ba382611be0565b9050919050565b6000611bb582611bbc565b9050919050565b6000611bc782611b6e565b9050919050565b6000611bd982611b5b565b9050919050565b6000611beb82611bf2565b9050919050565b6000611bfd82611b6e565b9050919050565b7f4e487b7100000000000000000000000000000000000000000000000000000000600052601160045260246000fd5b7f4e487b7100000000000000000000000000000000000000000000000000000000600052602160045260246000fd5b7f41756374696f6e207374617465206973206e6f742052756e6e696e672073746160008201527f74652e0000000000000000000000000000000000000000000000000000000000602082015250565b7f596f757220626964206973206c6f776572207468616e206d696e696d756d426960008201527f6400000000000000000000000000000000000000000000000000000000000000602082015250565b7f596f75206172652068696768657374206269646465722e2043616e206e6f742060008201527f67657420796f7572206d6f6e65792e0000000000000000000000000000000000602082015250565b7f41756374696f6e206973206e6f772072756e6e696e672e000000000000000000600082015250565b7f53656e646572206973206f776e65722e00000000000000000000000000000000600082015250565b7f53656e646572206973206e6f74206f776e65722e000000000000000000000000600082015250565b7f5468652062696464696e6720666f72207468652061756374696f6e206973206f60008201527f7665722e00000000000000000000000000000000000000000000000000000000602082015250565b7f63757272656e7420626964203c20686967686573742062696400000000000000600082015250565b50565b7f4f776e657220646964206e6f7420617070726f7665207468697320617563746960008201527f6f6e2e0000000000000000000000000000000000000000000000000000000000602082015250565b60048110611ea557611ea4611c33565b5b50565b611eb181611b2b565b8114611ebc57600080fd5b50565b611ec881611b4f565b8114611ed357600080fd5b50565b611edf81611b8e565b8114611eea57600080fd5b5056fea264697066735822122004560798915c9771964bd2948595efaa62d7d7e99c13050caba593373f77efec64736f6c63430008010033a26469706673582212204b0f07e173cead21232b103ff8f067b1bb0c7a79c8fb81d16c6cbbcc7938826b64736f6c63430008010033",
    "linkReferences": {},
    "deployedLinkReferences": {}
}