{
    "contractAddress": "0xB9fE6B557115Bd5cDCc2F52c35CD36BD460a6433",
    "_format": "hh-sol-artifact-1",
    "contractName": "MintMusicToken",
    "sourceName": "contracts/MintMusicToken.sol",
    "abi": [
        {
            "inputs": [],
            "stateMutability": "nonpayable",
            "type": "constructor"
        },
        {
            "anonymous": false,
            "inputs": [
                {
                    "indexed": true,
                    "internalType": "address",
                    "name": "owner",
                    "type": "address"
                },
                {
                    "indexed": true,
                    "internalType": "address",
                    "name": "approved",
                    "type": "address"
                },
                {
                    "indexed": true,
                    "internalType": "uint256",
                    "name": "tokenId",
                    "type": "uint256"
                }
            ],
            "name": "Approval",
            "type": "event"
        },
        {
            "anonymous": false,
            "inputs": [
                {
                    "indexed": true,
                    "internalType": "address",
                    "name": "owner",
                    "type": "address"
                },
                {
                    "indexed": true,
                    "internalType": "address",
                    "name": "operator",
                    "type": "address"
                },
                {
                    "indexed": false,
                    "internalType": "bool",
                    "name": "approved",
                    "type": "bool"
                }
            ],
            "name": "ApprovalForAll",
            "type": "event"
        },
        {
            "anonymous": false,
            "inputs": [
                {
                    "indexed": true,
                    "internalType": "uint256",
                    "name": "tokenID",
                    "type": "uint256"
                },
                {
                    "indexed": false,
                    "internalType": "string",
                    "name": "tokenURI",
                    "type": "string"
                },
                {
                    "indexed": true,
                    "internalType": "address",
                    "name": "Minter",
                    "type": "address"
                },
                {
                    "indexed": false,
                    "internalType": "uint256",
                    "name": "timeStamp",
                    "type": "uint256"
                }
            ],
            "name": "Minter",
            "type": "event"
        },
        {
            "anonymous": false,
            "inputs": [
                {
                    "indexed": true,
                    "internalType": "address",
                    "name": "from",
                    "type": "address"
                },
                {
                    "indexed": true,
                    "internalType": "address",
                    "name": "to",
                    "type": "address"
                },
                {
                    "indexed": true,
                    "internalType": "uint256",
                    "name": "tokenId",
                    "type": "uint256"
                }
            ],
            "name": "Transfer",
            "type": "event"
        },
        {
            "inputs": [
                {
                    "internalType": "address",
                    "name": "to",
                    "type": "address"
                },
                {
                    "internalType": "uint256",
                    "name": "tokenId",
                    "type": "uint256"
                }
            ],
            "name": "approve",
            "outputs": [],
            "stateMutability": "nonpayable",
            "type": "function"
        },
        {
            "inputs": [
                {
                    "internalType": "address",
                    "name": "owner",
                    "type": "address"
                }
            ],
            "name": "balanceOf",
            "outputs": [
                {
                    "internalType": "uint256",
                    "name": "",
                    "type": "uint256"
                }
            ],
            "stateMutability": "view",
            "type": "function"
        },
        {
            "inputs": [
                {
                    "internalType": "uint256",
                    "name": "tokenId",
                    "type": "uint256"
                }
            ],
            "name": "getApproved",
            "outputs": [
                {
                    "internalType": "address",
                    "name": "",
                    "type": "address"
                }
            ],
            "stateMutability": "view",
            "type": "function"
        },
        {
            "inputs": [
                {
                    "internalType": "uint256",
                    "name": "_tokenId",
                    "type": "uint256"
                }
            ],
            "name": "getIsOnSale",
            "outputs": [
                {
                    "internalType": "bool",
                    "name": "",
                    "type": "bool"
                }
            ],
            "stateMutability": "view",
            "type": "function"
        },
        {
            "inputs": [],
            "name": "getLatestMusicToken",
            "outputs": [
                {
                    "internalType": "string[]",
                    "name": "",
                    "type": "string[]"
                }
            ],
            "stateMutability": "view",
            "type": "function"
        },
        {
            "inputs": [
                {
                    "internalType": "uint256",
                    "name": "_musicTokenId",
                    "type": "uint256"
                }
            ],
            "name": "getMusicTokenMinter",
            "outputs": [
                {
                    "internalType": "address",
                    "name": "",
                    "type": "address"
                }
            ],
            "stateMutability": "view",
            "type": "function"
        },
        {
            "inputs": [
                {
                    "internalType": "address",
                    "name": "_musicTokenOwner",
                    "type": "address"
                }
            ],
            "name": "getMusicTokens",
            "outputs": [
                {
                    "components": [
                        {
                            "internalType": "uint256",
                            "name": "musicTokenId",
                            "type": "uint256"
                        },
                        {
                            "internalType": "string",
                            "name": "musicTokenURI",
                            "type": "string"
                        },
                        {
                            "internalType": "uint256",
                            "name": "musicTokenPrice",
                            "type": "uint256"
                        }
                    ],
                    "internalType": "struct MintMusicToken.MusicTokenData[]",
                    "name": "",
                    "type": "tuple[]"
                }
            ],
            "stateMutability": "view",
            "type": "function"
        },
        {
            "inputs": [
                {
                    "internalType": "address",
                    "name": "owner",
                    "type": "address"
                },
                {
                    "internalType": "address",
                    "name": "operator",
                    "type": "address"
                }
            ],
            "name": "isApprovedForAll",
            "outputs": [
                {
                    "internalType": "bool",
                    "name": "",
                    "type": "bool"
                }
            ],
            "stateMutability": "view",
            "type": "function"
        },
        {
            "inputs": [
                {
                    "internalType": "uint256",
                    "name": "",
                    "type": "uint256"
                }
            ],
            "name": "isOnSaleToken",
            "outputs": [
                {
                    "internalType": "bool",
                    "name": "",
                    "type": "bool"
                }
            ],
            "stateMutability": "view",
            "type": "function"
        },
        {
            "inputs": [
                {
                    "internalType": "string",
                    "name": "_metadata",
                    "type": "string"
                }
            ],
            "name": "mintMusicToken",
            "outputs": [],
            "stateMutability": "nonpayable",
            "type": "function"
        },
        {
            "inputs": [
                {
                    "internalType": "uint256",
                    "name": "",
                    "type": "uint256"
                }
            ],
            "name": "musicTokenMinters",
            "outputs": [
                {
                    "internalType": "address",
                    "name": "",
                    "type": "address"
                }
            ],
            "stateMutability": "view",
            "type": "function"
        },
        {
            "inputs": [
                {
                    "internalType": "uint256",
                    "name": "",
                    "type": "uint256"
                }
            ],
            "name": "musicTokens",
            "outputs": [
                {
                    "internalType": "string",
                    "name": "",
                    "type": "string"
                }
            ],
            "stateMutability": "view",
            "type": "function"
        },
        {
            "inputs": [],
            "name": "name",
            "outputs": [
                {
                    "internalType": "string",
                    "name": "",
                    "type": "string"
                }
            ],
            "stateMutability": "view",
            "type": "function"
        },
        {
            "inputs": [
                {
                    "internalType": "uint256",
                    "name": "tokenId",
                    "type": "uint256"
                }
            ],
            "name": "ownerOf",
            "outputs": [
                {
                    "internalType": "address",
                    "name": "",
                    "type": "address"
                }
            ],
            "stateMutability": "view",
            "type": "function"
        },
        {
            "inputs": [
                {
                    "internalType": "address",
                    "name": "from",
                    "type": "address"
                },
                {
                    "internalType": "address",
                    "name": "to",
                    "type": "address"
                },
                {
                    "internalType": "uint256",
                    "name": "tokenId",
                    "type": "uint256"
                }
            ],
            "name": "safeTransferFrom",
            "outputs": [],
            "stateMutability": "nonpayable",
            "type": "function"
        },
        {
            "inputs": [
                {
                    "internalType": "address",
                    "name": "from",
                    "type": "address"
                },
                {
                    "internalType": "address",
                    "name": "to",
                    "type": "address"
                },
                {
                    "internalType": "uint256",
                    "name": "tokenId",
                    "type": "uint256"
                },
                {
                    "internalType": "bytes",
                    "name": "_data",
                    "type": "bytes"
                }
            ],
            "name": "safeTransferFrom",
            "outputs": [],
            "stateMutability": "nonpayable",
            "type": "function"
        },
        {
            "inputs": [],
            "name": "saleMusicToken",
            "outputs": [
                {
                    "internalType": "contract SaleMusicToken",
                    "name": "",
                    "type": "address"
                }
            ],
            "stateMutability": "view",
            "type": "function"
        },
        {
            "inputs": [
                {
                    "internalType": "address",
                    "name": "operator",
                    "type": "address"
                },
                {
                    "internalType": "bool",
                    "name": "approved",
                    "type": "bool"
                }
            ],
            "name": "setApprovalForAll",
            "outputs": [],
            "stateMutability": "nonpayable",
            "type": "function"
        },
        {
            "inputs": [
                {
                    "internalType": "address",
                    "name": "_saleMusicToken",
                    "type": "address"
                }
            ],
            "name": "setSaleMusicToken",
            "outputs": [],
            "stateMutability": "nonpayable",
            "type": "function"
        },
        {
            "inputs": [
                {
                    "internalType": "uint256",
                    "name": "_tokenId",
                    "type": "uint256"
                },
                {
                    "internalType": "bool",
                    "name": "_state",
                    "type": "bool"
                }
            ],
            "name": "setTokenState",
            "outputs": [],
            "stateMutability": "nonpayable",
            "type": "function"
        },
        {
            "inputs": [
                {
                    "internalType": "bytes4",
                    "name": "interfaceId",
                    "type": "bytes4"
                }
            ],
            "name": "supportsInterface",
            "outputs": [
                {
                    "internalType": "bool",
                    "name": "",
                    "type": "bool"
                }
            ],
            "stateMutability": "view",
            "type": "function"
        },
        {
            "inputs": [],
            "name": "symbol",
            "outputs": [
                {
                    "internalType": "string",
                    "name": "",
                    "type": "string"
                }
            ],
            "stateMutability": "view",
            "type": "function"
        },
        {
            "inputs": [
                {
                    "internalType": "uint256",
                    "name": "index",
                    "type": "uint256"
                }
            ],
            "name": "tokenByIndex",
            "outputs": [
                {
                    "internalType": "uint256",
                    "name": "",
                    "type": "uint256"
                }
            ],
            "stateMutability": "view",
            "type": "function"
        },
        {
            "inputs": [
                {
                    "internalType": "address",
                    "name": "owner",
                    "type": "address"
                },
                {
                    "internalType": "uint256",
                    "name": "index",
                    "type": "uint256"
                }
            ],
            "name": "tokenOfOwnerByIndex",
            "outputs": [
                {
                    "internalType": "uint256",
                    "name": "",
                    "type": "uint256"
                }
            ],
            "stateMutability": "view",
            "type": "function"
        },
        {
            "inputs": [
                {
                    "internalType": "uint256",
                    "name": "tokenId",
                    "type": "uint256"
                }
            ],
            "name": "tokenURI",
            "outputs": [
                {
                    "internalType": "string",
                    "name": "",
                    "type": "string"
                }
            ],
            "stateMutability": "view",
            "type": "function"
        },
        {
            "inputs": [],
            "name": "totalSupply",
            "outputs": [
                {
                    "internalType": "uint256",
                    "name": "",
                    "type": "uint256"
                }
            ],
            "stateMutability": "view",
            "type": "function"
        },
        {
            "inputs": [
                {
                    "internalType": "address",
                    "name": "from",
                    "type": "address"
                },
                {
                    "internalType": "address",
                    "name": "to",
                    "type": "address"
                },
                {
                    "internalType": "uint256",
                    "name": "tokenId",
                    "type": "uint256"
                }
            ],
            "name": "transferFrom",
            "outputs": [],
            "stateMutability": "nonpayable",
            "type": "function"
        }
    ],
    "bytecode": "0x60806040523480156200001157600080fd5b506040518060400160405280600981526020017f4d75736974204e465400000000000000000000000000000000000000000000008152506040518060400160405280600481526020017f4d4e465400000000000000000000000000000000000000000000000000000000815250816000908051906020019062000096929190620000b8565b508060019080519060200190620000af929190620000b8565b505050620001cd565b828054620000c69062000168565b90600052602060002090601f016020900481019282620000ea576000855562000136565b82601f106200010557805160ff191683800117855562000136565b8280016001018555821562000136579182015b828111156200013557825182559160200191906001019062000118565b5b50905062000145919062000149565b5090565b5b80821115620001645760008160009055506001016200014a565b5090565b600060028204905060018216806200018157607f821691505b602082108114156200019857620001976200019e565b5b50919050565b7f4e487b7100000000000000000000000000000000000000000000000000000000600052602260045260246000fd5b6141d180620001dd6000396000f3fe608060405234801561001057600080fd5b50600436106101a95760003560e01c80636352211e116100f9578063b88d4fde11610097578063df41603a11610071578063df41603a14610540578063e4151a2e1461055c578063e985e9c514610578578063efbc6996146105a8576101a9565b8063b88d4fde146104c4578063c87b56dd146104e0578063d3cfa94f14610510576101a9565b806395d89b41116100d357806395d89b411461043c578063a22cb4651461045a578063ad04b54c14610476578063b7017588146104a6576101a9565b80636352211e146103ac57806370a08231146103dc5780637e7dcd151461040c576101a9565b806323b872dd116101665780634518ab1c116101405780634518ab1c146102fe5780634f6ccce71461031c57806352516b961461034c578063558b573b1461037c576101a9565b806323b872dd146102965780632f745c59146102b257806342842e0e146102e2576101a9565b806301ffc9a7146101ae57806306fdde03146101de578063081812fc146101fc578063095ea7b31461022c57806318160ddd14610248578063203a1cc714610266575b600080fd5b6101c860048036038101906101c39190612c9d565b6105c4565b6040516101d591906133d2565b60405180910390f35b6101e66105d6565b6040516101f39190613408565b60405180910390f35b61021660048036038101906102119190612d30565b610668565b6040516102239190613327565b60405180910390f35b61024660048036038101906102419190612c61565b6106ed565b005b610250610805565b60405161025d91906136da565b60405180910390f35b610280600480360381019061027b9190612d30565b610812565b60405161028d9190613327565b60405180910390f35b6102b060048036038101906102ab9190612b5b565b610845565b005b6102cc60048036038101906102c79190612c61565b6108a5565b6040516102d991906136da565b60405180910390f35b6102fc60048036038101906102f79190612b5b565b61094a565b005b61030661096a565b60405161031391906133ed565b60405180910390f35b61033660048036038101906103319190612d30565b610990565b60405161034391906136da565b60405180910390f35b61036660048036038101906103619190612af6565b610a27565b60405161037391906133b0565b60405180910390f35b61039660048036038101906103919190612d30565b610ce0565b6040516103a39190613327565b60405180910390f35b6103c660048036038101906103c19190612d30565b610d1d565b6040516103d39190613327565b60405180910390f35b6103f660048036038101906103f19190612af6565b610dcf565b60405161040391906136da565b60405180910390f35b61042660048036038101906104219190612d30565b610e87565b6040516104339190613408565b60405180910390f35b610444610f27565b6040516104519190613408565b60405180910390f35b610474600480360381019061046f9190612c25565b610fb9565b005b610490600480360381019061048b9190612d30565b610fcf565b60405161049d91906133d2565b60405180910390f35b6104ae610ff9565b6040516104bb919061338e565b60405180910390f35b6104de60048036038101906104d99190612baa565b6111b0565b005b6104fa60048036038101906104f59190612d30565b611212565b6040516105079190613408565b60405180910390f35b61052a60048036038101906105259190612d30565b611224565b60405161053791906133d2565b60405180910390f35b61055a60048036038101906105559190612af6565b611244565b005b61057660048036038101906105719190612cef565b611288565b005b610592600480360381019061058d9190612b1f565b6113b5565b60405161059f91906133d2565b60405180910390f35b6105c260048036038101906105bd9190612d82565b611449565b005b60006105cf82611478565b9050919050565b6060600080546105e590613a01565b80601f016020809104026020016040519081016040528092919081815260200182805461061190613a01565b801561065e5780601f106106335761010080835404028352916020019161065e565b820191906000526020600020905b81548152906001019060200180831161064157829003601f168201915b5050505050905090565b6000610673826114f2565b6106b2576040517f08c379a00000000000000000000000000000000000000000000000000000000081526004016106a99061361a565b60405180910390fd5b6004600083815260200190815260200160002060009054906101000a900473ffffffffffffffffffffffffffffffffffffffff169050919050565b60006106f882610d1d565b90508073ffffffffffffffffffffffffffffffffffffffff168373ffffffffffffffffffffffffffffffffffffffff161415610769576040517f08c379a00000000000000000000000000000000000000000000000000000000081526004016107609061367a565b60405180910390fd5b8073ffffffffffffffffffffffffffffffffffffffff1661078861155e565b73ffffffffffffffffffffffffffffffffffffffff1614806107b757506107b6816107b161155e565b6113b5565b5b6107f6576040517f08c379a00000000000000000000000000000000000000000000000000000000081526004016107ed9061355a565b60405180910390fd5b6108008383611566565b505050565b6000600880549050905090565b600e6020528060005260406000206000915054906101000a900473ffffffffffffffffffffffffffffffffffffffff1681565b61085661085061155e565b8261161f565b610895576040517f08c379a000000000000000000000000000000000000000000000000000000000815260040161088c9061369a565b60405180910390fd5b6108a08383836116fd565b505050565b60006108b083610dcf565b82106108f1576040517f08c379a00000000000000000000000000000000000000000000000000000000081526004016108e89061347a565b60405180910390fd5b600660008473ffffffffffffffffffffffffffffffffffffffff1673ffffffffffffffffffffffffffffffffffffffff168152602001908152602001600020600083815260200190815260200160002054905092915050565b610965838383604051806020016040528060008152506111b0565b505050565b600b60009054906101000a900473ffffffffffffffffffffffffffffffffffffffff1681565b600061099a610805565b82106109db576040517f08c379a00000000000000000000000000000000000000000000000000000000081526004016109d2906136ba565b60405180910390fd5b60088281548110610a15577f4e487b7100000000000000000000000000000000000000000000000000000000600052603260045260246000fd5b90600052602060002001549050919050565b60606000610a3483610dcf565b90506000811415610a7a576040517f08c379a0000000000000000000000000000000000000000000000000000000008152600401610a719061365a565b60405180910390fd5b60008167ffffffffffffffff811115610abc577f4e487b7100000000000000000000000000000000000000000000000000000000600052604160045260246000fd5b604051908082528060200260200182016040528015610af557816020015b610ae26128e4565b815260200190600190039081610ada5790505b50905060005b82811015610cd5576000610b0f86836108a5565b90506000600c60008381526020019081526020016000208054610b3190613a01565b80601f0160208091040260200160405190810160405280929190818152602001828054610b5d90613a01565b8015610baa5780601f10610b7f57610100808354040283529160200191610baa565b820191906000526020600020905b815481529060010190602001808311610b8d57829003601f168201915b505050505090506000600b60009054906101000a900473ffffffffffffffffffffffffffffffffffffffff1673ffffffffffffffffffffffffffffffffffffffff1663a1a5c662846040518263ffffffff1660e01b8152600401610c0e91906136da565b60206040518083038186803b158015610c2657600080fd5b505afa158015610c3a573d6000803e3d6000fd5b505050506040513d601f19601f82011682018060405250810190610c5e9190612d59565b9050604051806060016040528084815260200183815260200182815250858581518110610cb4577f4e487b7100000000000000000000000000000000000000000000000000000000600052603260045260246000fd5b60200260200101819052505050508080610ccd90613a64565b915050610afb565b508092505050919050565b6000600e600083815260200190815260200160002060009054906101000a900473ffffffffffffffffffffffffffffffffffffffff169050919050565b6000806002600084815260200190815260200160002060009054906101000a900473ffffffffffffffffffffffffffffffffffffffff169050600073ffffffffffffffffffffffffffffffffffffffff168173ffffffffffffffffffffffffffffffffffffffff161415610dc6576040517f08c379a0000000000000000000000000000000000000000000000000000000008152600401610dbd9061359a565b60405180910390fd5b80915050919050565b60008073ffffffffffffffffffffffffffffffffffffffff168273ffffffffffffffffffffffffffffffffffffffff161415610e40576040517f08c379a0000000000000000000000000000000000000000000000000000000008152600401610e379061357a565b60405180910390fd5b600360008373ffffffffffffffffffffffffffffffffffffffff1673ffffffffffffffffffffffffffffffffffffffff168152602001908152602001600020549050919050565b600c6020528060005260406000206000915090508054610ea690613a01565b80601f0160208091040260200160405190810160405280929190818152602001828054610ed290613a01565b8015610f1f5780601f10610ef457610100808354040283529160200191610f1f565b820191906000526020600020905b815481529060010190602001808311610f0257829003601f168201915b505050505081565b606060018054610f3690613a01565b80601f0160208091040260200160405190810160405280929190818152602001828054610f6290613a01565b8015610faf5780601f10610f8457610100808354040283529160200191610faf565b820191906000526020600020905b815481529060010190602001808311610f9257829003601f168201915b5050505050905090565b610fcb610fc461155e565b8383611964565b5050565b6000600d600083815260200190815260200160002060009054906101000a900460ff169050919050565b60606000611005610805565b90506000811161104a576040517f08c379a00000000000000000000000000000000000000000000000000000000081526004016110419061345a565b60405180910390fd5b60006005821061105d57600590506110a5565b600482141561106f57600490506110a4565b600382141561108157600390506110a3565b600282141561109357600290506110a2565b60018214156110a157600190505b5b5b5b5b60008167ffffffffffffffff8111156110e7577f4e487b7100000000000000000000000000000000000000000000000000000000600052604160045260246000fd5b60405190808252806020026020018201604052801561111a57816020015b60608152602001906001900390816111055790505b5090506000808490505b838561113091906138c9565b8111156111a55761114081611212565b838381518110611179577f4e487b7100000000000000000000000000000000000000000000000000000000600052603260045260246000fd5b6020026020010181905250818061118f90613a64565b925050808061119d906139d7565b915050611124565b508194505050505090565b6111c16111bb61155e565b8361161f565b611200576040517f08c379a00000000000000000000000000000000000000000000000000000000081526004016111f79061369a565b60405180910390fd5b61120c84848484611ad1565b50505050565b606061121d82611b2d565b9050919050565b600d6020528060005260406000206000915054906101000a900460ff1681565b80600b60006101000a81548173ffffffffffffffffffffffffffffffffffffffff021916908373ffffffffffffffffffffffffffffffffffffffff16021790555050565b60006001611294610805565b61129e9190613842565b9050600082905080600c600084815260200190815260200160002090805190602001906112cc929190612905565b5033600e600084815260200190815260200160002060006101000a81548173ffffffffffffffffffffffffffffffffffffffff021916908373ffffffffffffffffffffffffffffffffffffffff1602179055506113293383611c7f565b3373ffffffffffffffffffffffffffffffffffffffff16827ff578c60f3662595b0a30071704edbec88a7b92f08fab114bf4e3c7d61f580145834260405161137292919061342a565b60405180910390a36000600d600084815260200190815260200160002060006101000a81548160ff0219169083151502179055506113b08284611e59565b505050565b6000600560008473ffffffffffffffffffffffffffffffffffffffff1673ffffffffffffffffffffffffffffffffffffffff16815260200190815260200160002060008373ffffffffffffffffffffffffffffffffffffffff1673ffffffffffffffffffffffffffffffffffffffff16815260200190815260200160002060009054906101000a900460ff16905092915050565b80600d600084815260200190815260200160002060006101000a81548160ff0219169083151502179055505050565b60007f780e9d63000000000000000000000000000000000000000000000000000000007bffffffffffffffffffffffffffffffffffffffffffffffffffffffff1916827bffffffffffffffffffffffffffffffffffffffffffffffffffffffff191614806114eb57506114ea82611ecd565b5b9050919050565b60008073ffffffffffffffffffffffffffffffffffffffff166002600084815260200190815260200160002060009054906101000a900473ffffffffffffffffffffffffffffffffffffffff1673ffffffffffffffffffffffffffffffffffffffff1614159050919050565b600033905090565b816004600083815260200190815260200160002060006101000a81548173ffffffffffffffffffffffffffffffffffffffff021916908373ffffffffffffffffffffffffffffffffffffffff160217905550808273ffffffffffffffffffffffffffffffffffffffff166115d983610d1d565b73ffffffffffffffffffffffffffffffffffffffff167f8c5be1e5ebec7d5bd14f71427d1e84f3dd0314c0f7b2291e5b200ac8c7c3b92560405160405180910390a45050565b600061162a826114f2565b611669576040517f08c379a00000000000000000000000000000000000000000000000000000000081526004016116609061353a565b60405180910390fd5b600061167483610d1d565b90508073ffffffffffffffffffffffffffffffffffffffff168473ffffffffffffffffffffffffffffffffffffffff1614806116e357508373ffffffffffffffffffffffffffffffffffffffff166116cb84610668565b73ffffffffffffffffffffffffffffffffffffffff16145b806116f457506116f381856113b5565b5b91505092915050565b8273ffffffffffffffffffffffffffffffffffffffff1661171d82610d1d565b73ffffffffffffffffffffffffffffffffffffffff1614611773576040517f08c379a000000000000000000000000000000000000000000000000000000000815260040161176a906134ba565b60405180910390fd5b600073ffffffffffffffffffffffffffffffffffffffff168273ffffffffffffffffffffffffffffffffffffffff1614156117e3576040517f08c379a00000000000000000000000000000000000000000000000000000000081526004016117da906134fa565b60405180910390fd5b6117ee838383611faf565b6117f9600082611566565b6001600360008573ffffffffffffffffffffffffffffffffffffffff1673ffffffffffffffffffffffffffffffffffffffff168152602001908152602001600020600082825461184991906138c9565b925050819055506001600360008473ffffffffffffffffffffffffffffffffffffffff1673ffffffffffffffffffffffffffffffffffffffff16815260200190815260200160002060008282546118a09190613842565b92505081905550816002600083815260200190815260200160002060006101000a81548173ffffffffffffffffffffffffffffffffffffffff021916908373ffffffffffffffffffffffffffffffffffffffff160217905550808273ffffffffffffffffffffffffffffffffffffffff168473ffffffffffffffffffffffffffffffffffffffff167fddf252ad1be2c89b69c2b068fc378daa952ba7f163c4a11628f55a4df523b3ef60405160405180910390a461195f838383611fbf565b505050565b8173ffffffffffffffffffffffffffffffffffffffff168373ffffffffffffffffffffffffffffffffffffffff1614156119d3576040517f08c379a00000000000000000000000000000000000000000000000000000000081526004016119ca9061351a565b60405180910390fd5b80600560008573ffffffffffffffffffffffffffffffffffffffff1673ffffffffffffffffffffffffffffffffffffffff16815260200190815260200160002060008473ffffffffffffffffffffffffffffffffffffffff1673ffffffffffffffffffffffffffffffffffffffff16815260200190815260200160002060006101000a81548160ff0219169083151502179055508173ffffffffffffffffffffffffffffffffffffffff168373ffffffffffffffffffffffffffffffffffffffff167f17307eab39ab6107e8899845ad3d59bd9653f200f220920489ca2b5937696c3183604051611ac491906133d2565b60405180910390a3505050565b611adc8484846116fd565b611ae884848484611fc4565b611b27576040517f08c379a0000000000000000000000000000000000000000000000000000000008152600401611b1e9061349a565b60405180910390fd5b50505050565b6060611b38826114f2565b611b77576040517f08c379a0000000000000000000000000000000000000000000000000000000008152600401611b6e906135fa565b60405180910390fd5b6000600a60008481526020019081526020016000208054611b9790613a01565b80601f0160208091040260200160405190810160405280929190818152602001828054611bc390613a01565b8015611c105780601f10611be557610100808354040283529160200191611c10565b820191906000526020600020905b815481529060010190602001808311611bf357829003601f168201915b505050505090506000611c2161215b565b9050600081511415611c37578192505050611c7a565b600082511115611c6c578082604051602001611c54929190613303565b60405160208183030381529060405292505050611c7a565b611c7584612172565b925050505b919050565b600073ffffffffffffffffffffffffffffffffffffffff168273ffffffffffffffffffffffffffffffffffffffff161415611cef576040517f08c379a0000000000000000000000000000000000000000000000000000000008152600401611ce6906135da565b60405180910390fd5b611cf8816114f2565b15611d38576040517f08c379a0000000000000000000000000000000000000000000000000000000008152600401611d2f906134da565b60405180910390fd5b611d4460008383611faf565b6001600360008473ffffffffffffffffffffffffffffffffffffffff1673ffffffffffffffffffffffffffffffffffffffff1681526020019081526020016000206000828254611d949190613842565b92505081905550816002600083815260200190815260200160002060006101000a81548173ffffffffffffffffffffffffffffffffffffffff021916908373ffffffffffffffffffffffffffffffffffffffff160217905550808273ffffffffffffffffffffffffffffffffffffffff16600073ffffffffffffffffffffffffffffffffffffffff167fddf252ad1be2c89b69c2b068fc378daa952ba7f163c4a11628f55a4df523b3ef60405160405180910390a4611e5560008383611fbf565b5050565b611e62826114f2565b611ea1576040517f08c379a0000000000000000000000000000000000000000000000000000000008152600401611e98906135ba565b60405180910390fd5b80600a60008481526020019081526020016000209080519060200190611ec8929190612905565b505050565b60007f80ac58cd000000000000000000000000000000000000000000000000000000007bffffffffffffffffffffffffffffffffffffffffffffffffffffffff1916827bffffffffffffffffffffffffffffffffffffffffffffffffffffffff19161480611f9857507f5b5e139f000000000000000000000000000000000000000000000000000000007bffffffffffffffffffffffffffffffffffffffffffffffffffffffff1916827bffffffffffffffffffffffffffffffffffffffffffffffffffffffff1916145b80611fa85750611fa782612219565b5b9050919050565b611fba838383612283565b505050565b505050565b6000611fe58473ffffffffffffffffffffffffffffffffffffffff16612397565b1561214e578373ffffffffffffffffffffffffffffffffffffffff1663150b7a0261200e61155e565b8786866040518563ffffffff1660e01b81526004016120309493929190613342565b602060405180830381600087803b15801561204a57600080fd5b505af192505050801561207b57506040513d601f19601f820116820180604052508101906120789190612cc6565b60015b6120fe573d80600081146120ab576040519150601f19603f3d011682016040523d82523d6000602084013e6120b0565b606091505b506000815114156120f6576040517f08c379a00000000000000000000000000000000000000000000000000000000081526004016120ed9061349a565b60405180910390fd5b805181602001fd5b63150b7a0260e01b7bffffffffffffffffffffffffffffffffffffffffffffffffffffffff1916817bffffffffffffffffffffffffffffffffffffffffffffffffffffffff191614915050612153565b600190505b949350505050565b606060405180602001604052806000815250905090565b606061217d826114f2565b6121bc576040517f08c379a00000000000000000000000000000000000000000000000000000000081526004016121b39061363a565b60405180910390fd5b60006121c661215b565b905060008151116121e65760405180602001604052806000815250612211565b806121f0846123ba565b604051602001612201929190613303565b6040516020818303038152906040525b915050919050565b60007f01ffc9a7000000000000000000000000000000000000000000000000000000007bffffffffffffffffffffffffffffffffffffffffffffffffffffffff1916827bffffffffffffffffffffffffffffffffffffffffffffffffffffffff1916149050919050565b61228e838383612567565b600073ffffffffffffffffffffffffffffffffffffffff168373ffffffffffffffffffffffffffffffffffffffff1614156122d1576122cc8161256c565b612310565b8173ffffffffffffffffffffffffffffffffffffffff168373ffffffffffffffffffffffffffffffffffffffff161461230f5761230e83826125b5565b5b5b600073ffffffffffffffffffffffffffffffffffffffff168273ffffffffffffffffffffffffffffffffffffffff1614156123535761234e81612722565b612392565b8273ffffffffffffffffffffffffffffffffffffffff168273ffffffffffffffffffffffffffffffffffffffff1614612391576123908282612865565b5b5b505050565b6000808273ffffffffffffffffffffffffffffffffffffffff163b119050919050565b60606000821415612402576040518060400160405280600181526020017f30000000000000000000000000000000000000000000000000000000000000008152509050612562565b600082905060005b6000821461243457808061241d90613a64565b915050600a8261242d9190613898565b915061240a565b60008167ffffffffffffffff811115612476577f4e487b7100000000000000000000000000000000000000000000000000000000600052604160045260246000fd5b6040519080825280601f01601f1916602001820160405280156124a85781602001600182028036833780820191505090505b5090505b6000851461255b576001826124c191906138c9565b9150600a856124d09190613aad565b60306124dc9190613842565b60f81b818381518110612518577f4e487b7100000000000000000000000000000000000000000000000000000000600052603260045260246000fd5b60200101907effffffffffffffffffffffffffffffffffffffffffffffffffffffffffffff1916908160001a905350600a856125549190613898565b94506124ac565b8093505050505b919050565b505050565b6008805490506009600083815260200190815260200160002081905550600881908060018154018082558091505060019003906000526020600020016000909190919091505550565b600060016125c284610dcf565b6125cc91906138c9565b90506000600760008481526020019081526020016000205490508181146126b1576000600660008673ffffffffffffffffffffffffffffffffffffffff1673ffffffffffffffffffffffffffffffffffffffff168152602001908152602001600020600084815260200190815260200160002054905080600660008773ffffffffffffffffffffffffffffffffffffffff1673ffffffffffffffffffffffffffffffffffffffff168152602001908152602001600020600084815260200190815260200160002081905550816007600083815260200190815260200160002081905550505b6007600084815260200190815260200160002060009055600660008573ffffffffffffffffffffffffffffffffffffffff1673ffffffffffffffffffffffffffffffffffffffff16815260200190815260200160002060008381526020019081526020016000206000905550505050565b6000600160088054905061273691906138c9565b905060006009600084815260200190815260200160002054905060006008838154811061278c577f4e487b7100000000000000000000000000000000000000000000000000000000600052603260045260246000fd5b9060005260206000200154905080600883815481106127d4577f4e487b7100000000000000000000000000000000000000000000000000000000600052603260045260246000fd5b906000526020600020018190555081600960008381526020019081526020016000208190555060096000858152602001908152602001600020600090556008805480612849577f4e487b7100000000000000000000000000000000000000000000000000000000600052603160045260246000fd5b6001900381819060005260206000200160009055905550505050565b600061287083610dcf565b905081600660008573ffffffffffffffffffffffffffffffffffffffff1673ffffffffffffffffffffffffffffffffffffffff168152602001908152602001600020600083815260200190815260200160002081905550806007600084815260200190815260200160002081905550505050565b60405180606001604052806000815260200160608152602001600081525090565b82805461291190613a01565b90600052602060002090601f016020900481019282612933576000855561297a565b82601f1061294c57805160ff191683800117855561297a565b8280016001018555821561297a579182015b8281111561297957825182559160200191906001019061295e565b5b509050612987919061298b565b5090565b5b808211156129a457600081600090555060010161298c565b5090565b60006129bb6129b68461371a565b6136f5565b9050828152602081018484840111156129d357600080fd5b6129de848285613995565b509392505050565b60006129f96129f48461374b565b6136f5565b905082815260208101848484011115612a1157600080fd5b612a1c848285613995565b509392505050565b600081359050612a338161413f565b92915050565b600081359050612a4881614156565b92915050565b600081359050612a5d8161416d565b92915050565b600081519050612a728161416d565b92915050565b600082601f830112612a8957600080fd5b8135612a998482602086016129a8565b91505092915050565b600082601f830112612ab357600080fd5b8135612ac38482602086016129e6565b91505092915050565b600081359050612adb81614184565b92915050565b600081519050612af081614184565b92915050565b600060208284031215612b0857600080fd5b6000612b1684828501612a24565b91505092915050565b60008060408385031215612b3257600080fd5b6000612b4085828601612a24565b9250506020612b5185828601612a24565b9150509250929050565b600080600060608486031215612b7057600080fd5b6000612b7e86828701612a24565b9350506020612b8f86828701612a24565b9250506040612ba086828701612acc565b9150509250925092565b60008060008060808587031215612bc057600080fd5b6000612bce87828801612a24565b9450506020612bdf87828801612a24565b9350506040612bf087828801612acc565b925050606085013567ffffffffffffffff811115612c0d57600080fd5b612c1987828801612a78565b91505092959194509250565b60008060408385031215612c3857600080fd5b6000612c4685828601612a24565b9250506020612c5785828601612a39565b9150509250929050565b60008060408385031215612c7457600080fd5b6000612c8285828601612a24565b9250506020612c9385828601612acc565b9150509250929050565b600060208284031215612caf57600080fd5b6000612cbd84828501612a4e565b91505092915050565b600060208284031215612cd857600080fd5b6000612ce684828501612a63565b91505092915050565b600060208284031215612d0157600080fd5b600082013567ffffffffffffffff811115612d1b57600080fd5b612d2784828501612aa2565b91505092915050565b600060208284031215612d4257600080fd5b6000612d5084828501612acc565b91505092915050565b600060208284031215612d6b57600080fd5b6000612d7984828501612ae1565b91505092915050565b60008060408385031215612d9557600080fd5b6000612da385828601612acc565b9250506020612db485828601612a39565b9150509250929050565b6000612dca8383612f36565b905092915050565b6000612dde8383613295565b905092915050565b612def816138fd565b82525050565b6000612e008261379c565b612e0a81856137e2565b935083602082028501612e1c8561377c565b8060005b85811015612e585784840389528151612e398582612dbe565b9450612e44836137c8565b925060208a01995050600181019050612e20565b50829750879550505050505092915050565b6000612e75826137a7565b612e7f81856137f3565b935083602082028501612e918561378c565b8060005b85811015612ecd5784840389528151612eae8582612dd2565b9450612eb9836137d5565b925060208a01995050600181019050612e95565b50829750879550505050505092915050565b612ee88161390f565b82525050565b6000612ef9826137b2565b612f038185613804565b9350612f138185602086016139a4565b612f1c81613b9a565b840191505092915050565b612f3081613971565b82525050565b6000612f41826137bd565b612f4b8185613815565b9350612f5b8185602086016139a4565b612f6481613b9a565b840191505092915050565b6000612f7a826137bd565b612f848185613826565b9350612f948185602086016139a4565b612f9d81613b9a565b840191505092915050565b6000612fb3826137bd565b612fbd8185613837565b9350612fcd8185602086016139a4565b80840191505092915050565b6000612fe6602483613826565b9150612ff182613bab565b604082019050919050565b6000613009602b83613826565b915061301482613bfa565b604082019050919050565b600061302c603283613826565b915061303782613c49565b604082019050919050565b600061304f602583613826565b915061305a82613c98565b604082019050919050565b6000613072601c83613826565b915061307d82613ce7565b602082019050919050565b6000613095602483613826565b91506130a082613d10565b604082019050919050565b60006130b8601983613826565b91506130c382613d5f565b602082019050919050565b60006130db602c83613826565b91506130e682613d88565b604082019050919050565b60006130fe603883613826565b915061310982613dd7565b604082019050919050565b6000613121602a83613826565b915061312c82613e26565b604082019050919050565b6000613144602983613826565b915061314f82613e75565b604082019050919050565b6000613167602e83613826565b915061317282613ec4565b604082019050919050565b600061318a602083613826565b915061319582613f13565b602082019050919050565b60006131ad603183613826565b91506131b882613f3c565b604082019050919050565b60006131d0602c83613826565b91506131db82613f8b565b604082019050919050565b60006131f3602f83613826565b91506131fe82613fda565b604082019050919050565b6000613216601983613826565b915061322182614029565b602082019050919050565b6000613239602183613826565b915061324482614052565b604082019050919050565b600061325c603183613826565b9150613267826140a1565b604082019050919050565b600061327f602c83613826565b915061328a826140f0565b604082019050919050565b60006060830160008301516132ad60008601826132e5565b50602083015184820360208601526132c58282612f36565b91505060408301516132da60408601826132e5565b508091505092915050565b6132ee81613967565b82525050565b6132fd81613967565b82525050565b600061330f8285612fa8565b915061331b8284612fa8565b91508190509392505050565b600060208201905061333c6000830184612de6565b92915050565b60006080820190506133576000830187612de6565b6133646020830186612de6565b61337160408301856132f4565b81810360608301526133838184612eee565b905095945050505050565b600060208201905081810360008301526133a88184612df5565b905092915050565b600060208201905081810360008301526133ca8184612e6a565b905092915050565b60006020820190506133e76000830184612edf565b92915050565b60006020820190506134026000830184612f27565b92915050565b600060208201905081810360008301526134228184612f6f565b905092915050565b600060408201905081810360008301526134448185612f6f565b905061345360208301846132f4565b9392505050565b6000602082019050818103600083015261347381612fd9565b9050919050565b6000602082019050818103600083015261349381612ffc565b9050919050565b600060208201905081810360008301526134b38161301f565b9050919050565b600060208201905081810360008301526134d381613042565b9050919050565b600060208201905081810360008301526134f381613065565b9050919050565b6000602082019050818103600083015261351381613088565b9050919050565b60006020820190508181036000830152613533816130ab565b9050919050565b60006020820190508181036000830152613553816130ce565b9050919050565b60006020820190508181036000830152613573816130f1565b9050919050565b6000602082019050818103600083015261359381613114565b9050919050565b600060208201905081810360008301526135b381613137565b9050919050565b600060208201905081810360008301526135d38161315a565b9050919050565b600060208201905081810360008301526135f38161317d565b9050919050565b60006020820190508181036000830152613613816131a0565b9050919050565b60006020820190508181036000830152613633816131c3565b9050919050565b60006020820190508181036000830152613653816131e6565b9050919050565b6000602082019050818103600083015261367381613209565b9050919050565b600060208201905081810360008301526136938161322c565b9050919050565b600060208201905081810360008301526136b38161324f565b9050919050565b600060208201905081810360008301526136d381613272565b9050919050565b60006020820190506136ef60008301846132f4565b92915050565b60006136ff613710565b905061370b8282613a33565b919050565b6000604051905090565b600067ffffffffffffffff82111561373557613734613b6b565b5b61373e82613b9a565b9050602081019050919050565b600067ffffffffffffffff82111561376657613765613b6b565b5b61376f82613b9a565b9050602081019050919050565b6000819050602082019050919050565b6000819050602082019050919050565b600081519050919050565b600081519050919050565b600081519050919050565b600081519050919050565b6000602082019050919050565b6000602082019050919050565b600082825260208201905092915050565b600082825260208201905092915050565b600082825260208201905092915050565b600082825260208201905092915050565b600082825260208201905092915050565b600081905092915050565b600061384d82613967565b915061385883613967565b9250827fffffffffffffffffffffffffffffffffffffffffffffffffffffffffffffffff0382111561388d5761388c613ade565b5b828201905092915050565b60006138a382613967565b91506138ae83613967565b9250826138be576138bd613b0d565b5b828204905092915050565b60006138d482613967565b91506138df83613967565b9250828210156138f2576138f1613ade565b5b828203905092915050565b600061390882613947565b9050919050565b60008115159050919050565b60007fffffffff0000000000000000000000000000000000000000000000000000000082169050919050565b600073ffffffffffffffffffffffffffffffffffffffff82169050919050565b6000819050919050565b600061397c82613983565b9050919050565b600061398e82613947565b9050919050565b82818337600083830152505050565b60005b838110156139c25780820151818401526020810190506139a7565b838111156139d1576000848401525b50505050565b60006139e282613967565b915060008214156139f6576139f5613ade565b5b600182039050919050565b60006002820490506001821680613a1957607f821691505b60208210811415613a2d57613a2c613b3c565b5b50919050565b613a3c82613b9a565b810181811067ffffffffffffffff82111715613a5b57613a5a613b6b565b5b80604052505050565b6000613a6f82613967565b91507fffffffffffffffffffffffffffffffffffffffffffffffffffffffffffffffff821415613aa257613aa1613ade565b5b600182019050919050565b6000613ab882613967565b9150613ac383613967565b925082613ad357613ad2613b0d565b5b828206905092915050565b7f4e487b7100000000000000000000000000000000000000000000000000000000600052601160045260246000fd5b7f4e487b7100000000000000000000000000000000000000000000000000000000600052601260045260246000fd5b7f4e487b7100000000000000000000000000000000000000000000000000000000600052602260045260246000fd5b7f4e487b7100000000000000000000000000000000000000000000000000000000600052604160045260246000fd5b6000601f19601f8301169050919050565b7f546865726520617265206e6f20746f6b656e7320696e2074686520636f6e747260008201527f6163742e00000000000000000000000000000000000000000000000000000000602082015250565b7f455243373231456e756d657261626c653a206f776e657220696e646578206f7560008201527f74206f6620626f756e6473000000000000000000000000000000000000000000602082015250565b7f4552433732313a207472616e7366657220746f206e6f6e20455243373231526560008201527f63656976657220696d706c656d656e7465720000000000000000000000000000602082015250565b7f4552433732313a207472616e736665722066726f6d20696e636f72726563742060008201527f6f776e6572000000000000000000000000000000000000000000000000000000602082015250565b7f4552433732313a20746f6b656e20616c7265616479206d696e74656400000000600082015250565b7f4552433732313a207472616e7366657220746f20746865207a65726f2061646460008201527f7265737300000000000000000000000000000000000000000000000000000000602082015250565b7f4552433732313a20617070726f766520746f2063616c6c657200000000000000600082015250565b7f4552433732313a206f70657261746f7220717565727920666f72206e6f6e657860008201527f697374656e7420746f6b656e0000000000000000000000000000000000000000602082015250565b7f4552433732313a20617070726f76652063616c6c6572206973206e6f74206f7760008201527f6e6572206e6f7220617070726f76656420666f7220616c6c0000000000000000602082015250565b7f4552433732313a2062616c616e636520717565727920666f7220746865207a6560008201527f726f206164647265737300000000000000000000000000000000000000000000602082015250565b7f4552433732313a206f776e657220717565727920666f72206e6f6e657869737460008201527f656e7420746f6b656e0000000000000000000000000000000000000000000000602082015250565b7f45524337323155524953746f726167653a2055524920736574206f66206e6f6e60008201527f6578697374656e7420746f6b656e000000000000000000000000000000000000602082015250565b7f4552433732313a206d696e7420746f20746865207a65726f2061646472657373600082015250565b7f45524337323155524953746f726167653a2055524920717565727920666f722060008201527f6e6f6e6578697374656e7420746f6b656e000000000000000000000000000000602082015250565b7f4552433732313a20617070726f76656420717565727920666f72206e6f6e657860008201527f697374656e7420746f6b656e0000000000000000000000000000000000000000602082015250565b7f4552433732314d657461646174613a2055524920717565727920666f72206e6f60008201527f6e6578697374656e7420746f6b656e0000000000000000000000000000000000602082015250565b7f4f776e657220646964206e6f74206861766520746f6b656e2e00000000000000600082015250565b7f4552433732313a20617070726f76616c20746f2063757272656e74206f776e6560008201527f7200000000000000000000000000000000000000000000000000000000000000602082015250565b7f4552433732313a207472616e736665722063616c6c6572206973206e6f74206f60008201527f776e6572206e6f7220617070726f766564000000000000000000000000000000602082015250565b7f455243373231456e756d657261626c653a20676c6f62616c20696e646578206f60008201527f7574206f6620626f756e64730000000000000000000000000000000000000000602082015250565b614148816138fd565b811461415357600080fd5b50565b61415f8161390f565b811461416a57600080fd5b50565b6141768161391b565b811461418157600080fd5b50565b61418d81613967565b811461419857600080fd5b5056fea264697066735822122040b0aa21b77b998ca19dd4cf0f18ae507b6cb6d8d317868b6c93e78e01db5b4e64736f6c63430008010033",
    "linkReferences": {},
    "deployedLinkReferences": {}
}