{
    "contractAddress": "0x870ee1289Da23251DF5598e391dA27030256CcfB",
    "_format": "hh-sol-artifact-1",
    "contractName": "Payment",
    "sourceName": "contracts/Payment.sol",
    "abi": [
        {
            "anonymous": false,
            "inputs": [
                {
                    "indexed": true,
                    "internalType": "address",
                    "name": "from",
                    "type": "address"
                },
                {
                    "indexed": false,
                    "internalType": "address",
                    "name": "to",
                    "type": "address"
                },
                {
                    "indexed": false,
                    "internalType": "uint256",
                    "name": "amount",
                    "type": "uint256"
                },
                {
                    "indexed": true,
                    "internalType": "uint256",
                    "name": "planId",
                    "type": "uint256"
                },
                {
                    "indexed": false,
                    "internalType": "uint256",
                    "name": "date",
                    "type": "uint256"
                }
            ],
            "name": "PaymentSent",
            "type": "event"
        },
        {
            "anonymous": false,
            "inputs": [
                {
                    "indexed": true,
                    "internalType": "address",
                    "name": "merchant",
                    "type": "address"
                },
                {
                    "indexed": true,
                    "internalType": "uint256",
                    "name": "planId",
                    "type": "uint256"
                },
                {
                    "indexed": false,
                    "internalType": "uint256",
                    "name": "date",
                    "type": "uint256"
                }
            ],
            "name": "PlanCreated",
            "type": "event"
        },
        {
            "anonymous": false,
            "inputs": [
                {
                    "indexed": true,
                    "internalType": "address",
                    "name": "merchant",
                    "type": "address"
                },
                {
                    "indexed": true,
                    "internalType": "address",
                    "name": "buyer",
                    "type": "address"
                },
                {
                    "indexed": false,
                    "internalType": "uint256",
                    "name": "amount",
                    "type": "uint256"
                },
                {
                    "indexed": false,
                    "internalType": "uint256",
                    "name": "date",
                    "type": "uint256"
                }
            ],
            "name": "Subscribing",
            "type": "event"
        },
        {
            "anonymous": false,
            "inputs": [
                {
                    "indexed": true,
                    "internalType": "address",
                    "name": "subscriber",
                    "type": "address"
                },
                {
                    "indexed": true,
                    "internalType": "uint256",
                    "name": "planId",
                    "type": "uint256"
                },
                {
                    "indexed": false,
                    "internalType": "uint256",
                    "name": "date",
                    "type": "uint256"
                }
            ],
            "name": "SubscriptionCancelled",
            "type": "event"
        },
        {
            "anonymous": false,
            "inputs": [
                {
                    "indexed": true,
                    "internalType": "address",
                    "name": "subscriber",
                    "type": "address"
                },
                {
                    "indexed": true,
                    "internalType": "uint256",
                    "name": "planId",
                    "type": "uint256"
                },
                {
                    "indexed": false,
                    "internalType": "uint256",
                    "name": "date",
                    "type": "uint256"
                }
            ],
            "name": "SubscriptionCreated",
            "type": "event"
        },
        {
            "inputs": [
                {
                    "internalType": "uint256",
                    "name": "planId",
                    "type": "uint256"
                }
            ],
            "name": "cancel",
            "outputs": [],
            "stateMutability": "nonpayable",
            "type": "function"
        },
        {
            "inputs": [
                {
                    "internalType": "uint256",
                    "name": "amount",
                    "type": "uint256"
                },
                {
                    "internalType": "uint256",
                    "name": "frequency",
                    "type": "uint256"
                },
                {
                    "internalType": "enum Payment.Target",
                    "name": "target",
                    "type": "uint8"
                }
            ],
            "name": "createPlan",
            "outputs": [],
            "stateMutability": "nonpayable",
            "type": "function"
        },
        {
            "inputs": [],
            "name": "getAllPlans",
            "outputs": [
                {
                    "components": [
                        {
                            "internalType": "uint256",
                            "name": "planId",
                            "type": "uint256"
                        },
                        {
                            "internalType": "uint256",
                            "name": "amount",
                            "type": "uint256"
                        },
                        {
                            "internalType": "uint256",
                            "name": "frequency",
                            "type": "uint256"
                        },
                        {
                            "internalType": "enum Payment.Target",
                            "name": "target",
                            "type": "uint8"
                        }
                    ],
                    "internalType": "struct Payment.userPlan[]",
                    "name": "",
                    "type": "tuple[]"
                }
            ],
            "stateMutability": "view",
            "type": "function"
        },
        {
            "inputs": [],
            "name": "merchant",
            "outputs": [
                {
                    "internalType": "address",
                    "name": "",
                    "type": "address"
                }
            ],
            "stateMutability": "view",
            "type": "function"
        },
        {
            "inputs": [],
            "name": "nextPlanId",
            "outputs": [
                {
                    "internalType": "uint256",
                    "name": "",
                    "type": "uint256"
                }
            ],
            "stateMutability": "view",
            "type": "function"
        },
        {
            "inputs": [
                {
                    "internalType": "uint256",
                    "name": "planId",
                    "type": "uint256"
                }
            ],
            "name": "pay",
            "outputs": [],
            "stateMutability": "payable",
            "type": "function"
        },
        {
            "inputs": [
                {
                    "internalType": "uint256",
                    "name": "",
                    "type": "uint256"
                }
            ],
            "name": "plans",
            "outputs": [
                {
                    "internalType": "address",
                    "name": "merchant",
                    "type": "address"
                },
                {
                    "internalType": "uint256",
                    "name": "amount",
                    "type": "uint256"
                },
                {
                    "internalType": "uint256",
                    "name": "frequency",
                    "type": "uint256"
                },
                {
                    "internalType": "enum Payment.Target",
                    "name": "target",
                    "type": "uint8"
                }
            ],
            "stateMutability": "view",
            "type": "function"
        },
        {
            "inputs": [
                {
                    "internalType": "uint256",
                    "name": "planId",
                    "type": "uint256"
                }
            ],
            "name": "subscribe",
            "outputs": [],
            "stateMutability": "payable",
            "type": "function"
        },
        {
            "inputs": [
                {
                    "internalType": "uint256",
                    "name": "_mulMonth",
                    "type": "uint256"
                },
                {
                    "internalType": "uint256",
                    "name": "_getAmount",
                    "type": "uint256"
                }
            ],
            "name": "subscribes",
            "outputs": [],
            "stateMutability": "payable",
            "type": "function"
        },
        {
            "inputs": [
                {
                    "internalType": "address",
                    "name": "",
                    "type": "address"
                },
                {
                    "internalType": "uint256",
                    "name": "",
                    "type": "uint256"
                }
            ],
            "name": "subscriptions",
            "outputs": [
                {
                    "internalType": "address",
                    "name": "subscriber",
                    "type": "address"
                },
                {
                    "internalType": "uint256",
                    "name": "start",
                    "type": "uint256"
                },
                {
                    "internalType": "uint256",
                    "name": "nextPayment",
                    "type": "uint256"
                },
                {
                    "internalType": "bool",
                    "name": "isSubscribe",
                    "type": "bool"
                }
            ],
            "stateMutability": "view",
            "type": "function"
        }
    ],
    "bytecode": "0x608060405273f6d03c382509eae7c4b70b7639d237d80a5f6db2600160006101000a81548173ffffffffffffffffffffffffffffffffffffffff021916908373ffffffffffffffffffffffffffffffffffffffff16021790555034801561006557600080fd5b5061179f806100756000396000f3fe6080604052600436106100915760003560e01c806398de396a1161005957806398de396a1461016f578063997d5d8a1461019a578063a5ff7651146101b6578063b1620616146101e1578063c290d6911461022157610091565b80630f574ba71461009657806340e58ee5146100b257806354380e8e146100db5780635f8d26b214610104578063623da3d11461012f575b600080fd5b6100b060048036038101906100ab9190610fd2565b61023d565b005b3480156100be57600080fd5b506100d960048036038101906100d49190610fd2565b61054b565b005b3480156100e757600080fd5b5061010260048036038101906100fd9190611037565b6106a3565b005b34801561011057600080fd5b506101196108cd565b60405161012691906113f8565b60405180910390f35b34801561013b57600080fd5b5061015660048036038101906101519190610f96565b6108d3565b60405161016694939291906112ac565b60405180910390f35b34801561017b57600080fd5b5061018461093d565b6040516101919190611336565b60405180910390f35b6101b460048036038101906101af9190610ffb565b610ae8565b005b3480156101c257600080fd5b506101cb610c03565b6040516101d8919061125a565b60405180910390f35b3480156101ed57600080fd5b5061020860048036038101906102039190610fd2565b610c29565b60405161021894939291906112f1565b60405180910390f35b61023b60048036038101906102369190610fd2565b610c86565b005b6000600260008381526020019081526020016000209050600073ffffffffffffffffffffffffffffffffffffffff168160000160009054906101000a900473ffffffffffffffffffffffffffffffffffffffff1673ffffffffffffffffffffffffffffffffffffffff1614156102e8576040517f08c379a00000000000000000000000000000000000000000000000000000000081526004016102df90611398565b60405180910390fd5b8060000160009054906101000a900473ffffffffffffffffffffffffffffffffffffffff1673ffffffffffffffffffffffffffffffffffffffff166108fc82600101549081150290604051600060405180830381858888f19350505050158015610356573d6000803e3d6000fd5b50813373ffffffffffffffffffffffffffffffffffffffff167f577462848cc2ec95e5ef95bf0b154b97340221cd1002ea0511a3877a7f20fb8c8360000160009054906101000a900473ffffffffffffffffffffffffffffffffffffffff168460010154426040516103ca93929190611275565b60405180910390a360405180608001604052803373ffffffffffffffffffffffffffffffffffffffff16815260200142815260200182600201544261040f9190611486565b815260200160011515815250600360003373ffffffffffffffffffffffffffffffffffffffff1673ffffffffffffffffffffffffffffffffffffffff168152602001908152602001600020600084815260200190815260200160002060008201518160000160006101000a81548173ffffffffffffffffffffffffffffffffffffffff021916908373ffffffffffffffffffffffffffffffffffffffff160217905550602082015181600101556040820151816002015560608201518160030160006101000a81548160ff021916908315150217905550905050813373ffffffffffffffffffffffffffffffffffffffff167feec977e786e7248a658b0474ccf8f57f37ead019014ec4d5ba1542ddabeff1b48360020154426105329190611486565b60405161053f91906113f8565b60405180910390a35050565b6000600360003373ffffffffffffffffffffffffffffffffffffffff1673ffffffffffffffffffffffffffffffffffffffff16815260200190815260200160002060008381526020019081526020016000209050600073ffffffffffffffffffffffffffffffffffffffff168160000160009054906101000a900473ffffffffffffffffffffffffffffffffffffffff1673ffffffffffffffffffffffffffffffffffffffff161415610633576040517f08c379a000000000000000000000000000000000000000000000000000000000815260040161062a90611378565b60405180910390fd5b60008160030160006101000a81548160ff021916908315150217905550813373ffffffffffffffffffffffffffffffffffffffff167fde4047f3bd050ef9b8743c61b37fd72275056d1ccb33d1eb3f22c80cb14df2894260405161069791906113f8565b60405180910390a35050565b600083116106e6576040517f08c379a00000000000000000000000000000000000000000000000000000000081526004016106dd90611358565b60405180910390fd5b60008211610729576040517f08c379a0000000000000000000000000000000000000000000000000000000008152600401610720906113d8565b60405180910390fd5b60405180608001604052803373ffffffffffffffffffffffffffffffffffffffff168152602001848152602001838152602001826002811115610795577f4e487b7100000000000000000000000000000000000000000000000000000000600052602160045260246000fd5b815250600260008054815260200190815260200160002060008201518160000160006101000a81548173ffffffffffffffffffffffffffffffffffffffff021916908373ffffffffffffffffffffffffffffffffffffffff160217905550602082015181600101556040820151816002015560608201518160030160006101000a81548160ff02191690836002811115610858577f4e487b7100000000000000000000000000000000000000000000000000000000600052602160045260246000fd5b02179055509050506000543373ffffffffffffffffffffffffffffffffffffffff167f89d3f1cdfad4e5c26535ac23dc61cf9e975667801747518f01b1b653545d736a426040516108a991906113f8565b60405180910390a36000808154809291906108c3906115a3565b9190505550505050565b60005481565b6003602052816000526040600020602052806000526040600020600091509150508060000160009054906101000a900473ffffffffffffffffffffffffffffffffffffffff16908060010154908060020154908060030160009054906101000a900460ff16905084565b606060008054905060008167ffffffffffffffff811115610987577f4e487b7100000000000000000000000000000000000000000000000000000000600052604160045260246000fd5b6040519080825280602002602001820160405280156109c057816020015b6109ad610ef7565b8152602001906001900390816109a55790505b50905060005b82811015610adf5760006002600083815260200190815260200160002060010154905060006002600084815260200190815260200160002060020154905060006002600085815260200190815260200160002060030160009054906101000a900460ff1690506040518060800160405280858152602001848152602001838152602001826002811115610a82577f4e487b7100000000000000000000000000000000000000000000000000000000600052602160045260246000fd5b815250858581518110610abe577f4e487b7100000000000000000000000000000000000000000000000000000000600052603260045260246000fd5b60200260200101819052505050508080610ad7906115a3565b9150506109c6565b50809250505090565b6000610afd8383610ee190919063ffffffff16565b905034811115610b0c57600080fd5b600160009054906101000a900473ffffffffffffffffffffffffffffffffffffffff1673ffffffffffffffffffffffffffffffffffffffff166108fc349081150290604051600060405180830381858888f19350505050158015610b74573d6000803e3d6000fd5b503373ffffffffffffffffffffffffffffffffffffffff16600160009054906101000a900473ffffffffffffffffffffffffffffffffffffffff1673ffffffffffffffffffffffffffffffffffffffff167f18390e104fe0b384f3acb0e3bf597fb77f0bd8294f324130ade486572e0385b08342604051610bf6929190611413565b60405180910390a3505050565b600160009054906101000a900473ffffffffffffffffffffffffffffffffffffffff1681565b60026020528060005260406000206000915090508060000160009054906101000a900473ffffffffffffffffffffffffffffffffffffffff16908060010154908060020154908060030160009054906101000a900460ff16905084565b6000600360003373ffffffffffffffffffffffffffffffffffffffff1673ffffffffffffffffffffffffffffffffffffffff168152602001908152602001600020600083815260200190815260200160002090506000600260008481526020019081526020016000209050600073ffffffffffffffffffffffffffffffffffffffff168260000160009054906101000a900473ffffffffffffffffffffffffffffffffffffffff1673ffffffffffffffffffffffffffffffffffffffff161415610d85576040517f08c379a0000000000000000000000000000000000000000000000000000000008152600401610d7c90611378565b60405180910390fd5b81600201544211610dcb576040517f08c379a0000000000000000000000000000000000000000000000000000000008152600401610dc2906113b8565b60405180910390fd5b8060000160009054906101000a900473ffffffffffffffffffffffffffffffffffffffff1673ffffffffffffffffffffffffffffffffffffffff166108fc349081150290604051600060405180830381858888f19350505050158015610e35573d6000803e3d6000fd5b50823373ffffffffffffffffffffffffffffffffffffffff167f577462848cc2ec95e5ef95bf0b154b97340221cd1002ea0511a3877a7f20fb8c8360000160009054906101000a900473ffffffffffffffffffffffffffffffffffffffff168460010154856002015442610ea99190611486565b604051610eb893929190611275565b60405180910390a380600201548260020154610ed49190611486565b8260020181905550505050565b60008183610eef91906114dc565b905092915050565b604051806080016040528060008152602001600081526020016000815260200160006002811115610f51577f4e487b7100000000000000000000000000000000000000000000000000000000600052602160045260246000fd5b81525090565b600081359050610f668161172b565b92915050565b600081359050610f7b81611742565b92915050565b600081359050610f9081611752565b92915050565b60008060408385031215610fa957600080fd5b6000610fb785828601610f57565b9250506020610fc885828601610f81565b9150509250929050565b600060208284031215610fe457600080fd5b6000610ff284828501610f81565b91505092915050565b6000806040838503121561100e57600080fd5b600061101c85828601610f81565b925050602061102d85828601610f81565b9150509250929050565b60008060006060848603121561104c57600080fd5b600061105a86828701610f81565b935050602061106b86828701610f81565b925050604061107c86828701610f6c565b9150509250925092565b600061109283836111e7565b60808301905092915050565b6110a781611536565b82525050565b60006110b88261144c565b6110c28185611464565b93506110cd8361143c565b8060005b838110156110fe5781516110e58882611086565b97506110f083611457565b9250506001810190506110d1565b5085935050505092915050565b61111481611548565b82525050565b61112381611591565b82525050565b61113281611591565b82525050565b6000611145601683611475565b91506111508261164a565b602082019050919050565b6000611168602083611475565b915061117382611673565b602082019050919050565b600061118b601883611475565b91506111968261169c565b602082019050919050565b60006111ae600b83611475565b91506111b9826116c5565b602082019050919050565b60006111d1601983611475565b91506111dc826116ee565b602082019050919050565b6080820160008201516111fd600085018261123c565b506020820151611210602085018261123c565b506040820151611223604085018261123c565b506060820151611236606085018261111a565b50505050565b61124581611587565b82525050565b61125481611587565b82525050565b600060208201905061126f600083018461109e565b92915050565b600060608201905061128a600083018661109e565b611297602083018561124b565b6112a4604083018461124b565b949350505050565b60006080820190506112c1600083018761109e565b6112ce602083018661124b565b6112db604083018561124b565b6112e8606083018461110b565b95945050505050565b6000608082019050611306600083018761109e565b611313602083018661124b565b611320604083018561124b565b61132d6060830184611129565b95945050505050565b6000602082019050818103600083015261135081846110ad565b905092915050565b6000602082019050818103600083015261137181611138565b9050919050565b600060208201905081810360008301526113918161115b565b9050919050565b600060208201905081810360008301526113b18161117e565b9050919050565b600060208201905081810360008301526113d1816111a1565b9050919050565b600060208201905081810360008301526113f1816111c4565b9050919050565b600060208201905061140d600083018461124b565b92915050565b6000604082019050611428600083018561124b565b611435602083018461124b565b9392505050565b6000819050602082019050919050565b600081519050919050565b6000602082019050919050565b600082825260208201905092915050565b600082825260208201905092915050565b600061149182611587565b915061149c83611587565b9250827fffffffffffffffffffffffffffffffffffffffffffffffffffffffffffffffff038211156114d1576114d06115ec565b5b828201905092915050565b60006114e782611587565b91506114f283611587565b9250817fffffffffffffffffffffffffffffffffffffffffffffffffffffffffffffffff048311821515161561152b5761152a6115ec565b5b828202905092915050565b600061154182611567565b9050919050565b60008115159050919050565b600081905061156282611717565b919050565b600073ffffffffffffffffffffffffffffffffffffffff82169050919050565b6000819050919050565b600061159c82611554565b9050919050565b60006115ae82611587565b91507fffffffffffffffffffffffffffffffffffffffffffffffffffffffffffffffff8214156115e1576115e06115ec565b5b600182019050919050565b7f4e487b7100000000000000000000000000000000000000000000000000000000600052601160045260246000fd5b7f4e487b7100000000000000000000000000000000000000000000000000000000600052602160045260246000fd5b7f616d6f756e74206e6565647320746f206265203e203000000000000000000000600082015250565b7f7468697320737562736372697074696f6e20646f6573206e6f74206578697374600082015250565b7f7468697320706c616e20646f6573206e6f742065786973740000000000000000600082015250565b7f6e6f742064756520796574000000000000000000000000000000000000000000600082015250565b7f6672657175656e6379206e6565647320746f206265203e203000000000000000600082015250565b600381106117285761172761161b565b5b50565b61173481611536565b811461173f57600080fd5b50565b6003811061174f57600080fd5b50565b61175b81611587565b811461176657600080fd5b5056fea2646970667358221220f5dbe49dbe726b5ea9eb6413d311b2b025105de328975f28ef010d0718f5256e64736f6c63430008010033",
    "linkReferences": {},
    "deployedLinkReferences": {}
}