{
    "contractAddress": "0x0fc722bD90216a8a2c37eCc7057bA117c58A4Eb5",
    "_format": "hh-sol-artifact-1",
    "contractName": "Payment",
    "sourceName": "contracts/Payment.sol",
    "abi": [
        {
            "anonymous": false,
            "inputs": [
                {
                    "indexed": true,
                    "internalType": "address",
                    "name": "from",
                    "type": "address"
                },
                {
                    "indexed": false,
                    "internalType": "address",
                    "name": "to",
                    "type": "address"
                },
                {
                    "indexed": false,
                    "internalType": "uint256",
                    "name": "amount",
                    "type": "uint256"
                },
                {
                    "indexed": true,
                    "internalType": "uint256",
                    "name": "planId",
                    "type": "uint256"
                },
                {
                    "indexed": false,
                    "internalType": "uint256",
                    "name": "date",
                    "type": "uint256"
                }
            ],
            "name": "PaymentSent",
            "type": "event"
        },
        {
            "anonymous": false,
            "inputs": [
                {
                    "indexed": true,
                    "internalType": "address",
                    "name": "merchant",
                    "type": "address"
                },
                {
                    "indexed": true,
                    "internalType": "uint256",
                    "name": "planId",
                    "type": "uint256"
                },
                {
                    "indexed": false,
                    "internalType": "uint256",
                    "name": "date",
                    "type": "uint256"
                }
            ],
            "name": "PlanCreated",
            "type": "event"
        },
        {
            "anonymous": false,
            "inputs": [
                {
                    "indexed": true,
                    "internalType": "address",
                    "name": "subscriber",
                    "type": "address"
                },
                {
                    "indexed": true,
                    "internalType": "uint256",
                    "name": "planId",
                    "type": "uint256"
                },
                {
                    "indexed": false,
                    "internalType": "uint256",
                    "name": "date",
                    "type": "uint256"
                }
            ],
            "name": "SubscriptionCancelled",
            "type": "event"
        },
        {
            "anonymous": false,
            "inputs": [
                {
                    "indexed": true,
                    "internalType": "address",
                    "name": "subscriber",
                    "type": "address"
                },
                {
                    "indexed": true,
                    "internalType": "uint256",
                    "name": "planId",
                    "type": "uint256"
                },
                {
                    "indexed": false,
                    "internalType": "uint256",
                    "name": "date",
                    "type": "uint256"
                }
            ],
            "name": "SubscriptionCreated",
            "type": "event"
        },
        {
            "inputs": [
                {
                    "internalType": "uint256",
                    "name": "planId",
                    "type": "uint256"
                }
            ],
            "name": "cancel",
            "outputs": [],
            "stateMutability": "nonpayable",
            "type": "function"
        },
        {
            "inputs": [
                {
                    "internalType": "uint256",
                    "name": "amount",
                    "type": "uint256"
                },
                {
                    "internalType": "uint256",
                    "name": "frequency",
                    "type": "uint256"
                },
                {
                    "internalType": "enum Payment.Target",
                    "name": "target",
                    "type": "uint8"
                }
            ],
            "name": "createPlan",
            "outputs": [],
            "stateMutability": "nonpayable",
            "type": "function"
        },
        {
            "inputs": [],
            "name": "getAllPlans",
            "outputs": [
                {
                    "components": [
                        {
                            "internalType": "uint256",
                            "name": "planId",
                            "type": "uint256"
                        },
                        {
                            "internalType": "uint256",
                            "name": "amount",
                            "type": "uint256"
                        },
                        {
                            "internalType": "uint256",
                            "name": "frequency",
                            "type": "uint256"
                        },
                        {
                            "internalType": "enum Payment.Target",
                            "name": "target",
                            "type": "uint8"
                        }
                    ],
                    "internalType": "struct Payment.userPlan[]",
                    "name": "",
                    "type": "tuple[]"
                }
            ],
            "stateMutability": "view",
            "type": "function"
        },
        {
            "inputs": [],
            "name": "nextPlanId",
            "outputs": [
                {
                    "internalType": "uint256",
                    "name": "",
                    "type": "uint256"
                }
            ],
            "stateMutability": "view",
            "type": "function"
        },
        {
            "inputs": [
                {
                    "internalType": "uint256",
                    "name": "planId",
                    "type": "uint256"
                }
            ],
            "name": "pay",
            "outputs": [],
            "stateMutability": "payable",
            "type": "function"
        },
        {
            "inputs": [
                {
                    "internalType": "uint256",
                    "name": "",
                    "type": "uint256"
                }
            ],
            "name": "plans",
            "outputs": [
                {
                    "internalType": "address",
                    "name": "merchant",
                    "type": "address"
                },
                {
                    "internalType": "uint256",
                    "name": "amount",
                    "type": "uint256"
                },
                {
                    "internalType": "uint256",
                    "name": "frequency",
                    "type": "uint256"
                },
                {
                    "internalType": "enum Payment.Target",
                    "name": "target",
                    "type": "uint8"
                }
            ],
            "stateMutability": "view",
            "type": "function"
        },
        {
            "inputs": [
                {
                    "internalType": "uint256",
                    "name": "planId",
                    "type": "uint256"
                }
            ],
            "name": "subscribe",
            "outputs": [],
            "stateMutability": "payable",
            "type": "function"
        },
        {
            "inputs": [
                {
                    "internalType": "address",
                    "name": "",
                    "type": "address"
                },
                {
                    "internalType": "uint256",
                    "name": "",
                    "type": "uint256"
                }
            ],
            "name": "subscriptions",
            "outputs": [
                {
                    "internalType": "address",
                    "name": "subscriber",
                    "type": "address"
                },
                {
                    "internalType": "uint256",
                    "name": "start",
                    "type": "uint256"
                },
                {
                    "internalType": "uint256",
                    "name": "nextPayment",
                    "type": "uint256"
                },
                {
                    "internalType": "bool",
                    "name": "isSubscribe",
                    "type": "bool"
                }
            ],
            "stateMutability": "view",
            "type": "function"
        }
    ],
    "bytecode": "0x608060405234801561001057600080fd5b50611511806100206000396000f3fe60806040526004361061007b5760003560e01c8063623da3d11161004e578063623da3d11461011957806398de396a14610159578063b162061614610184578063c290d691146101c45761007b565b80630f574ba71461008057806340e58ee51461009c57806354380e8e146100c55780635f8d26b2146100ee575b600080fd5b61009a60048036038101906100959190610e1e565b6101e0565b005b3480156100a857600080fd5b506100c360048036038101906100be9190610e1e565b6104ee565b005b3480156100d157600080fd5b506100ec60048036038101906100e79190610e47565b610646565b005b3480156100fa57600080fd5b50610103610870565b60405161011091906111ed565b60405180910390f35b34801561012557600080fd5b50610140600480360381019061013b9190610de2565b610876565b60405161015094939291906110a1565b60405180910390f35b34801561016557600080fd5b5061016e6108e0565b60405161017b919061112b565b60405180910390f35b34801561019057600080fd5b506101ab60048036038101906101a69190610e1e565b610a8b565b6040516101bb94939291906110e6565b60405180910390f35b6101de60048036038101906101d99190610e1e565b610ae8565b005b6000600160008381526020019081526020016000209050600073ffffffffffffffffffffffffffffffffffffffff168160000160009054906101000a900473ffffffffffffffffffffffffffffffffffffffff1673ffffffffffffffffffffffffffffffffffffffff16141561028b576040517f08c379a00000000000000000000000000000000000000000000000000000000081526004016102829061118d565b60405180910390fd5b8060000160009054906101000a900473ffffffffffffffffffffffffffffffffffffffff1673ffffffffffffffffffffffffffffffffffffffff166108fc82600101549081150290604051600060405180830381858888f193505050501580156102f9573d6000803e3d6000fd5b50813373ffffffffffffffffffffffffffffffffffffffff167f577462848cc2ec95e5ef95bf0b154b97340221cd1002ea0511a3877a7f20fb8c8360000160009054906101000a900473ffffffffffffffffffffffffffffffffffffffff1684600101544260405161036d9392919061106a565b60405180910390a360405180608001604052803373ffffffffffffffffffffffffffffffffffffffff1681526020014281526020018260020154426103b29190611252565b815260200160011515815250600260003373ffffffffffffffffffffffffffffffffffffffff1673ffffffffffffffffffffffffffffffffffffffff168152602001908152602001600020600084815260200190815260200160002060008201518160000160006101000a81548173ffffffffffffffffffffffffffffffffffffffff021916908373ffffffffffffffffffffffffffffffffffffffff160217905550602082015181600101556040820151816002015560608201518160030160006101000a81548160ff021916908315150217905550905050813373ffffffffffffffffffffffffffffffffffffffff167feec977e786e7248a658b0474ccf8f57f37ead019014ec4d5ba1542ddabeff1b48360020154426104d59190611252565b6040516104e291906111ed565b60405180910390a35050565b6000600260003373ffffffffffffffffffffffffffffffffffffffff1673ffffffffffffffffffffffffffffffffffffffff16815260200190815260200160002060008381526020019081526020016000209050600073ffffffffffffffffffffffffffffffffffffffff168160000160009054906101000a900473ffffffffffffffffffffffffffffffffffffffff1673ffffffffffffffffffffffffffffffffffffffff1614156105d6576040517f08c379a00000000000000000000000000000000000000000000000000000000081526004016105cd9061116d565b60405180910390fd5b60008160030160006101000a81548160ff021916908315150217905550813373ffffffffffffffffffffffffffffffffffffffff167fde4047f3bd050ef9b8743c61b37fd72275056d1ccb33d1eb3f22c80cb14df2894260405161063a91906111ed565b60405180910390a35050565b60008311610689576040517f08c379a00000000000000000000000000000000000000000000000000000000081526004016106809061114d565b60405180910390fd5b600082116106cc576040517f08c379a00000000000000000000000000000000000000000000000000000000081526004016106c3906111cd565b60405180910390fd5b60405180608001604052803373ffffffffffffffffffffffffffffffffffffffff168152602001848152602001838152602001826002811115610738577f4e487b7100000000000000000000000000000000000000000000000000000000600052602160045260246000fd5b815250600160008054815260200190815260200160002060008201518160000160006101000a81548173ffffffffffffffffffffffffffffffffffffffff021916908373ffffffffffffffffffffffffffffffffffffffff160217905550602082015181600101556040820151816002015560608201518160030160006101000a81548160ff021916908360028111156107fb577f4e487b7100000000000000000000000000000000000000000000000000000000600052602160045260246000fd5b02179055509050506000543373ffffffffffffffffffffffffffffffffffffffff167f89d3f1cdfad4e5c26535ac23dc61cf9e975667801747518f01b1b653545d736a4260405161084c91906111ed565b60405180910390a360008081548092919061086690611315565b9190505550505050565b60005481565b6002602052816000526040600020602052806000526040600020600091509150508060000160009054906101000a900473ffffffffffffffffffffffffffffffffffffffff16908060010154908060020154908060030160009054906101000a900460ff16905084565b606060008054905060008167ffffffffffffffff81111561092a577f4e487b7100000000000000000000000000000000000000000000000000000000600052604160045260246000fd5b60405190808252806020026020018201604052801561096357816020015b610950610d43565b8152602001906001900390816109485790505b50905060005b82811015610a825760006001600083815260200190815260200160002060010154905060006001600084815260200190815260200160002060020154905060006001600085815260200190815260200160002060030160009054906101000a900460ff1690506040518060800160405280858152602001848152602001838152602001826002811115610a25577f4e487b7100000000000000000000000000000000000000000000000000000000600052602160045260246000fd5b815250858581518110610a61577f4e487b7100000000000000000000000000000000000000000000000000000000600052603260045260246000fd5b60200260200101819052505050508080610a7a90611315565b915050610969565b50809250505090565b60016020528060005260406000206000915090508060000160009054906101000a900473ffffffffffffffffffffffffffffffffffffffff16908060010154908060020154908060030160009054906101000a900460ff16905084565b6000600260003373ffffffffffffffffffffffffffffffffffffffff1673ffffffffffffffffffffffffffffffffffffffff168152602001908152602001600020600083815260200190815260200160002090506000600160008481526020019081526020016000209050600073ffffffffffffffffffffffffffffffffffffffff168260000160009054906101000a900473ffffffffffffffffffffffffffffffffffffffff1673ffffffffffffffffffffffffffffffffffffffff161415610be7576040517f08c379a0000000000000000000000000000000000000000000000000000000008152600401610bde9061116d565b60405180910390fd5b81600201544211610c2d576040517f08c379a0000000000000000000000000000000000000000000000000000000008152600401610c24906111ad565b60405180910390fd5b8060000160009054906101000a900473ffffffffffffffffffffffffffffffffffffffff1673ffffffffffffffffffffffffffffffffffffffff166108fc349081150290604051600060405180830381858888f19350505050158015610c97573d6000803e3d6000fd5b50823373ffffffffffffffffffffffffffffffffffffffff167f577462848cc2ec95e5ef95bf0b154b97340221cd1002ea0511a3877a7f20fb8c8360000160009054906101000a900473ffffffffffffffffffffffffffffffffffffffff168460010154856002015442610d0b9190611252565b604051610d1a9392919061106a565b60405180910390a380600201548260020154610d369190611252565b8260020181905550505050565b604051806080016040528060008152602001600081526020016000815260200160006002811115610d9d577f4e487b7100000000000000000000000000000000000000000000000000000000600052602160045260246000fd5b81525090565b600081359050610db28161149d565b92915050565b600081359050610dc7816114b4565b92915050565b600081359050610ddc816114c4565b92915050565b60008060408385031215610df557600080fd5b6000610e0385828601610da3565b9250506020610e1485828601610dcd565b9150509250929050565b600060208284031215610e3057600080fd5b6000610e3e84828501610dcd565b91505092915050565b600080600060608486031215610e5c57600080fd5b6000610e6a86828701610dcd565b9350506020610e7b86828701610dcd565b9250506040610e8c86828701610db8565b9150509250925092565b6000610ea28383610ff7565b60808301905092915050565b610eb7816112a8565b82525050565b6000610ec882611218565b610ed28185611230565b9350610edd83611208565b8060005b83811015610f0e578151610ef58882610e96565b9750610f0083611223565b925050600181019050610ee1565b5085935050505092915050565b610f24816112ba565b82525050565b610f3381611303565b82525050565b610f4281611303565b82525050565b6000610f55601683611241565b9150610f60826113bc565b602082019050919050565b6000610f78602083611241565b9150610f83826113e5565b602082019050919050565b6000610f9b601883611241565b9150610fa68261140e565b602082019050919050565b6000610fbe600b83611241565b9150610fc982611437565b602082019050919050565b6000610fe1601983611241565b9150610fec82611460565b602082019050919050565b60808201600082015161100d600085018261104c565b506020820151611020602085018261104c565b506040820151611033604085018261104c565b5060608201516110466060850182610f2a565b50505050565b611055816112f9565b82525050565b611064816112f9565b82525050565b600060608201905061107f6000830186610eae565b61108c602083018561105b565b611099604083018461105b565b949350505050565b60006080820190506110b66000830187610eae565b6110c3602083018661105b565b6110d0604083018561105b565b6110dd6060830184610f1b565b95945050505050565b60006080820190506110fb6000830187610eae565b611108602083018661105b565b611115604083018561105b565b6111226060830184610f39565b95945050505050565b600060208201905081810360008301526111458184610ebd565b905092915050565b6000602082019050818103600083015261116681610f48565b9050919050565b6000602082019050818103600083015261118681610f6b565b9050919050565b600060208201905081810360008301526111a681610f8e565b9050919050565b600060208201905081810360008301526111c681610fb1565b9050919050565b600060208201905081810360008301526111e681610fd4565b9050919050565b6000602082019050611202600083018461105b565b92915050565b6000819050602082019050919050565b600081519050919050565b6000602082019050919050565b600082825260208201905092915050565b600082825260208201905092915050565b600061125d826112f9565b9150611268836112f9565b9250827fffffffffffffffffffffffffffffffffffffffffffffffffffffffffffffffff0382111561129d5761129c61135e565b5b828201905092915050565b60006112b3826112d9565b9050919050565b60008115159050919050565b60008190506112d482611489565b919050565b600073ffffffffffffffffffffffffffffffffffffffff82169050919050565b6000819050919050565b600061130e826112c6565b9050919050565b6000611320826112f9565b91507fffffffffffffffffffffffffffffffffffffffffffffffffffffffffffffffff8214156113535761135261135e565b5b600182019050919050565b7f4e487b7100000000000000000000000000000000000000000000000000000000600052601160045260246000fd5b7f4e487b7100000000000000000000000000000000000000000000000000000000600052602160045260246000fd5b7f616d6f756e74206e6565647320746f206265203e203000000000000000000000600082015250565b7f7468697320737562736372697074696f6e20646f6573206e6f74206578697374600082015250565b7f7468697320706c616e20646f6573206e6f742065786973740000000000000000600082015250565b7f6e6f742064756520796574000000000000000000000000000000000000000000600082015250565b7f6672657175656e6379206e6565647320746f206265203e203000000000000000600082015250565b6003811061149a5761149961138d565b5b50565b6114a6816112a8565b81146114b157600080fd5b50565b600381106114c157600080fd5b50565b6114cd816112f9565b81146114d857600080fd5b5056fea2646970667358221220ad72292cdad302f0a7c03ecb594ef3fa68f746ecd06de0ad387a55bf4df0215564736f6c63430008010033",
    "linkReferences": {},
    "deployedLinkReferences": {}
}