{
    "contractAddress": "0x449BE2a4c8EB110F46525aC8F4f74fD7fCc87e26",
    "_format": "hh-sol-artifact-1",
    "contractName": "Payment",
    "sourceName": "contracts/Payment.sol",
    "abi": [
        {
            "anonymous": false,
            "inputs": [
                {
                    "indexed": true,
                    "internalType": "address",
                    "name": "from",
                    "type": "address"
                },
                {
                    "indexed": false,
                    "internalType": "address",
                    "name": "to",
                    "type": "address"
                },
                {
                    "indexed": false,
                    "internalType": "uint256",
                    "name": "amount",
                    "type": "uint256"
                },
                {
                    "indexed": true,
                    "internalType": "uint256",
                    "name": "planId",
                    "type": "uint256"
                },
                {
                    "indexed": false,
                    "internalType": "uint256",
                    "name": "date",
                    "type": "uint256"
                }
            ],
            "name": "PaymentSent",
            "type": "event"
        },
        {
            "anonymous": false,
            "inputs": [
                {
                    "indexed": true,
                    "internalType": "address",
                    "name": "merchant",
                    "type": "address"
                },
                {
                    "indexed": true,
                    "internalType": "uint256",
                    "name": "planId",
                    "type": "uint256"
                },
                {
                    "indexed": false,
                    "internalType": "uint256",
                    "name": "date",
                    "type": "uint256"
                }
            ],
            "name": "PlanCreated",
            "type": "event"
        },
        {
            "anonymous": false,
            "inputs": [
                {
                    "indexed": true,
                    "internalType": "address",
                    "name": "subscriber",
                    "type": "address"
                },
                {
                    "indexed": true,
                    "internalType": "uint256",
                    "name": "planId",
                    "type": "uint256"
                },
                {
                    "indexed": false,
                    "internalType": "uint256",
                    "name": "date",
                    "type": "uint256"
                }
            ],
            "name": "SubscriptionCancelled",
            "type": "event"
        },
        {
            "anonymous": false,
            "inputs": [
                {
                    "indexed": true,
                    "internalType": "address",
                    "name": "subscriber",
                    "type": "address"
                },
                {
                    "indexed": true,
                    "internalType": "uint256",
                    "name": "planId",
                    "type": "uint256"
                },
                {
                    "indexed": false,
                    "internalType": "uint256",
                    "name": "date",
                    "type": "uint256"
                }
            ],
            "name": "SubscriptionCreated",
            "type": "event"
        },
        {
            "inputs": [
                {
                    "internalType": "uint256",
                    "name": "planId",
                    "type": "uint256"
                }
            ],
            "name": "cancel",
            "outputs": [],
            "stateMutability": "nonpayable",
            "type": "function"
        },
        {
            "inputs": [
                {
                    "internalType": "uint256",
                    "name": "amount",
                    "type": "uint256"
                },
                {
                    "internalType": "uint256",
                    "name": "frequency",
                    "type": "uint256"
                }
            ],
            "name": "createPlan",
            "outputs": [],
            "stateMutability": "nonpayable",
            "type": "function"
        },
        {
            "inputs": [],
            "name": "nextPlanId",
            "outputs": [
                {
                    "internalType": "uint256",
                    "name": "",
                    "type": "uint256"
                }
            ],
            "stateMutability": "view",
            "type": "function"
        },
        {
            "inputs": [
                {
                    "internalType": "uint256",
                    "name": "planId",
                    "type": "uint256"
                }
            ],
            "name": "pay",
            "outputs": [],
            "stateMutability": "payable",
            "type": "function"
        },
        {
            "inputs": [
                {
                    "internalType": "uint256",
                    "name": "",
                    "type": "uint256"
                }
            ],
            "name": "plans",
            "outputs": [
                {
                    "internalType": "address",
                    "name": "merchant",
                    "type": "address"
                },
                {
                    "internalType": "uint256",
                    "name": "amount",
                    "type": "uint256"
                },
                {
                    "internalType": "uint256",
                    "name": "frequency",
                    "type": "uint256"
                }
            ],
            "stateMutability": "view",
            "type": "function"
        },
        {
            "inputs": [
                {
                    "internalType": "uint256",
                    "name": "planId",
                    "type": "uint256"
                }
            ],
            "name": "subscribe",
            "outputs": [],
            "stateMutability": "payable",
            "type": "function"
        },
        {
            "inputs": [
                {
                    "internalType": "address",
                    "name": "",
                    "type": "address"
                },
                {
                    "internalType": "uint256",
                    "name": "",
                    "type": "uint256"
                }
            ],
            "name": "subscriptions",
            "outputs": [
                {
                    "internalType": "address",
                    "name": "subscriber",
                    "type": "address"
                },
                {
                    "internalType": "uint256",
                    "name": "start",
                    "type": "uint256"
                },
                {
                    "internalType": "uint256",
                    "name": "nextPayment",
                    "type": "uint256"
                },
                {
                    "internalType": "bool",
                    "name": "isSubscribe",
                    "type": "bool"
                }
            ],
            "stateMutability": "view",
            "type": "function"
        }
    ],
    "bytecode": "0x608060405234801561001057600080fd5b50610fef806100206000396000f3fe6080604052600436106100705760003560e01c8063623da3d11161004e578063623da3d1146100e5578063b162061614610125578063b197df5414610164578063c290d6911461018d57610070565b80630f574ba71461007557806340e58ee5146100915780635f8d26b2146100ba575b600080fd5b61008f600480360381019061008a9190610b1f565b6101a9565b005b34801561009d57600080fd5b506100b860048036038101906100b39190610b1f565b6104b7565b005b3480156100c657600080fd5b506100cf61060f565b6040516100dc9190610d7c565b60405180910390f35b3480156100f157600080fd5b5061010c60048036038101906101079190610ae3565b610615565b60405161011c9493929190610c97565b60405180910390f35b34801561013157600080fd5b5061014c60048036038101906101479190610b1f565b61067f565b60405161015b93929190610c60565b60405180910390f35b34801561017057600080fd5b5061018b60048036038101906101869190610b48565b6106c9565b005b6101a760048036038101906101a29190610b1f565b61085e565b005b6000600160008381526020019081526020016000209050600073ffffffffffffffffffffffffffffffffffffffff168160000160009054906101000a900473ffffffffffffffffffffffffffffffffffffffff1673ffffffffffffffffffffffffffffffffffffffff161415610254576040517f08c379a000000000000000000000000000000000000000000000000000000000815260040161024b90610d1c565b60405180910390fd5b8060000160009054906101000a900473ffffffffffffffffffffffffffffffffffffffff1673ffffffffffffffffffffffffffffffffffffffff166108fc82600101549081150290604051600060405180830381858888f193505050501580156102c2573d6000803e3d6000fd5b50813373ffffffffffffffffffffffffffffffffffffffff167f577462848cc2ec95e5ef95bf0b154b97340221cd1002ea0511a3877a7f20fb8c8360000160009054906101000a900473ffffffffffffffffffffffffffffffffffffffff1684600101544260405161033693929190610c60565b60405180910390a360405180608001604052803373ffffffffffffffffffffffffffffffffffffffff16815260200142815260200182600201544261037b9190610da8565b815260200160011515815250600260003373ffffffffffffffffffffffffffffffffffffffff1673ffffffffffffffffffffffffffffffffffffffff168152602001908152602001600020600084815260200190815260200160002060008201518160000160006101000a81548173ffffffffffffffffffffffffffffffffffffffff021916908373ffffffffffffffffffffffffffffffffffffffff160217905550602082015181600101556040820151816002015560608201518160030160006101000a81548160ff021916908315150217905550905050813373ffffffffffffffffffffffffffffffffffffffff167feec977e786e7248a658b0474ccf8f57f37ead019014ec4d5ba1542ddabeff1b483600201544261049e9190610da8565b6040516104ab9190610d7c565b60405180910390a35050565b6000600260003373ffffffffffffffffffffffffffffffffffffffff1673ffffffffffffffffffffffffffffffffffffffff16815260200190815260200160002060008381526020019081526020016000209050600073ffffffffffffffffffffffffffffffffffffffff168160000160009054906101000a900473ffffffffffffffffffffffffffffffffffffffff1673ffffffffffffffffffffffffffffffffffffffff16141561059f576040517f08c379a000000000000000000000000000000000000000000000000000000000815260040161059690610cfc565b60405180910390fd5b60008160030160006101000a81548160ff021916908315150217905550813373ffffffffffffffffffffffffffffffffffffffff167fde4047f3bd050ef9b8743c61b37fd72275056d1ccb33d1eb3f22c80cb14df289426040516106039190610d7c565b60405180910390a35050565b60005481565b6002602052816000526040600020602052806000526040600020600091509150508060000160009054906101000a900473ffffffffffffffffffffffffffffffffffffffff16908060010154908060020154908060030160009054906101000a900460ff16905084565b60016020528060005260406000206000915090508060000160009054906101000a900473ffffffffffffffffffffffffffffffffffffffff16908060010154908060020154905083565b6000821161070c576040517f08c379a000000000000000000000000000000000000000000000000000000000815260040161070390610cdc565b60405180910390fd5b6000811161074f576040517f08c379a000000000000000000000000000000000000000000000000000000000815260040161074690610d5c565b60405180910390fd5b60405180606001604052803373ffffffffffffffffffffffffffffffffffffffff16815260200183815260200182815250600160008054815260200190815260200160002060008201518160000160006101000a81548173ffffffffffffffffffffffffffffffffffffffff021916908373ffffffffffffffffffffffffffffffffffffffff16021790555060208201518160010155604082015181600201559050506000543373ffffffffffffffffffffffffffffffffffffffff167f89d3f1cdfad4e5c26535ac23dc61cf9e975667801747518f01b1b653545d736a4260405161083b9190610d7c565b60405180910390a360008081548092919061085590610e46565b91905055505050565b6000600260003373ffffffffffffffffffffffffffffffffffffffff1673ffffffffffffffffffffffffffffffffffffffff168152602001908152602001600020600083815260200190815260200160002090506000600160008481526020019081526020016000209050600073ffffffffffffffffffffffffffffffffffffffff168260000160009054906101000a900473ffffffffffffffffffffffffffffffffffffffff1673ffffffffffffffffffffffffffffffffffffffff16141561095d576040517f08c379a000000000000000000000000000000000000000000000000000000000815260040161095490610cfc565b60405180910390fd5b816002015442116109a3576040517f08c379a000000000000000000000000000000000000000000000000000000000815260040161099a90610d3c565b60405180910390fd5b8060000160009054906101000a900473ffffffffffffffffffffffffffffffffffffffff1673ffffffffffffffffffffffffffffffffffffffff166108fc349081150290604051600060405180830381858888f19350505050158015610a0d573d6000803e3d6000fd5b50823373ffffffffffffffffffffffffffffffffffffffff167f577462848cc2ec95e5ef95bf0b154b97340221cd1002ea0511a3877a7f20fb8c8360000160009054906101000a900473ffffffffffffffffffffffffffffffffffffffff168460010154856002015442610a819190610da8565b604051610a9093929190610c60565b60405180910390a380600201548260020154610aac9190610da8565b8260020181905550505050565b600081359050610ac881610f8b565b92915050565b600081359050610add81610fa2565b92915050565b60008060408385031215610af657600080fd5b6000610b0485828601610ab9565b9250506020610b1585828601610ace565b9150509250929050565b600060208284031215610b3157600080fd5b6000610b3f84828501610ace565b91505092915050565b60008060408385031215610b5b57600080fd5b6000610b6985828601610ace565b9250506020610b7a85828601610ace565b9150509250929050565b610b8d81610dfe565b82525050565b610b9c81610e10565b82525050565b6000610baf601683610d97565b9150610bba82610ebe565b602082019050919050565b6000610bd2602083610d97565b9150610bdd82610ee7565b602082019050919050565b6000610bf5601883610d97565b9150610c0082610f10565b602082019050919050565b6000610c18600b83610d97565b9150610c2382610f39565b602082019050919050565b6000610c3b601983610d97565b9150610c4682610f62565b602082019050919050565b610c5a81610e3c565b82525050565b6000606082019050610c756000830186610b84565b610c826020830185610c51565b610c8f6040830184610c51565b949350505050565b6000608082019050610cac6000830187610b84565b610cb96020830186610c51565b610cc66040830185610c51565b610cd36060830184610b93565b95945050505050565b60006020820190508181036000830152610cf581610ba2565b9050919050565b60006020820190508181036000830152610d1581610bc5565b9050919050565b60006020820190508181036000830152610d3581610be8565b9050919050565b60006020820190508181036000830152610d5581610c0b565b9050919050565b60006020820190508181036000830152610d7581610c2e565b9050919050565b6000602082019050610d916000830184610c51565b92915050565b600082825260208201905092915050565b6000610db382610e3c565b9150610dbe83610e3c565b9250827fffffffffffffffffffffffffffffffffffffffffffffffffffffffffffffffff03821115610df357610df2610e8f565b5b828201905092915050565b6000610e0982610e1c565b9050919050565b60008115159050919050565b600073ffffffffffffffffffffffffffffffffffffffff82169050919050565b6000819050919050565b6000610e5182610e3c565b91507fffffffffffffffffffffffffffffffffffffffffffffffffffffffffffffffff821415610e8457610e83610e8f565b5b600182019050919050565b7f4e487b7100000000000000000000000000000000000000000000000000000000600052601160045260246000fd5b7f616d6f756e74206e6565647320746f206265203e203000000000000000000000600082015250565b7f7468697320737562736372697074696f6e20646f6573206e6f74206578697374600082015250565b7f7468697320706c616e20646f6573206e6f742065786973740000000000000000600082015250565b7f6e6f742064756520796574000000000000000000000000000000000000000000600082015250565b7f6672657175656e6379206e6565647320746f206265203e203000000000000000600082015250565b610f9481610dfe565b8114610f9f57600080fd5b50565b610fab81610e3c565b8114610fb657600080fd5b5056fea264697066735822122098222fee5fe73491b472702b3c9271d43e91b078ed5f782329ef32c53619cb7764736f6c63430008010033",
    "linkReferences": {},
    "deployedLinkReferences": {}
}