{
    "contractAddress": "0xE6723c034C7EF3161FD8d03d3F8721b16171c99b",
    "_format": "hh-sol-artifact-1",
    "contractName": "Payment",
    "sourceName": "contracts/Payment.sol",
    "abi": [
        {
            "anonymous": false,
            "inputs": [
                {
                    "indexed": true,
                    "internalType": "address",
                    "name": "from",
                    "type": "address"
                },
                {
                    "indexed": false,
                    "internalType": "address",
                    "name": "to",
                    "type": "address"
                },
                {
                    "indexed": false,
                    "internalType": "uint256",
                    "name": "amount",
                    "type": "uint256"
                },
                {
                    "indexed": true,
                    "internalType": "uint256",
                    "name": "planId",
                    "type": "uint256"
                },
                {
                    "indexed": false,
                    "internalType": "uint256",
                    "name": "date",
                    "type": "uint256"
                }
            ],
            "name": "PaymentSent",
            "type": "event"
        },
        {
            "anonymous": false,
            "inputs": [
                {
                    "indexed": true,
                    "internalType": "address",
                    "name": "merchant",
                    "type": "address"
                },
                {
                    "indexed": true,
                    "internalType": "uint256",
                    "name": "planId",
                    "type": "uint256"
                },
                {
                    "indexed": false,
                    "internalType": "uint256",
                    "name": "date",
                    "type": "uint256"
                }
            ],
            "name": "PlanCreated",
            "type": "event"
        },
        {
            "anonymous": false,
            "inputs": [
                {
                    "indexed": true,
                    "internalType": "address",
                    "name": "subscriber",
                    "type": "address"
                },
                {
                    "indexed": true,
                    "internalType": "uint256",
                    "name": "planId",
                    "type": "uint256"
                },
                {
                    "indexed": false,
                    "internalType": "uint256",
                    "name": "date",
                    "type": "uint256"
                }
            ],
            "name": "SubscriptionCancelled",
            "type": "event"
        },
        {
            "anonymous": false,
            "inputs": [
                {
                    "indexed": true,
                    "internalType": "address",
                    "name": "subscriber",
                    "type": "address"
                },
                {
                    "indexed": true,
                    "internalType": "uint256",
                    "name": "planId",
                    "type": "uint256"
                },
                {
                    "indexed": false,
                    "internalType": "uint256",
                    "name": "date",
                    "type": "uint256"
                }
            ],
            "name": "SubscriptionCreated",
            "type": "event"
        },
        {
            "inputs": [
                {
                    "internalType": "uint256",
                    "name": "planId",
                    "type": "uint256"
                }
            ],
            "name": "cancel",
            "outputs": [],
            "stateMutability": "nonpayable",
            "type": "function"
        },
        {
            "inputs": [
                {
                    "internalType": "uint256",
                    "name": "amount",
                    "type": "uint256"
                },
                {
                    "internalType": "uint256",
                    "name": "frequency",
                    "type": "uint256"
                },
                {
                    "internalType": "enum Payment.Target",
                    "name": "target",
                    "type": "uint8"
                }
            ],
            "name": "createPlan",
            "outputs": [],
            "stateMutability": "nonpayable",
            "type": "function"
        },
        {
            "inputs": [],
            "name": "getAllPlans",
            "outputs": [
                {
                    "components": [
                        {
                            "internalType": "uint256",
                            "name": "amount",
                            "type": "uint256"
                        },
                        {
                            "internalType": "uint256",
                            "name": "frequency",
                            "type": "uint256"
                        },
                        {
                            "internalType": "enum Payment.Target",
                            "name": "target",
                            "type": "uint8"
                        }
                    ],
                    "internalType": "struct Payment.userPlan[]",
                    "name": "",
                    "type": "tuple[]"
                }
            ],
            "stateMutability": "view",
            "type": "function"
        },
        {
            "inputs": [],
            "name": "nextPlanId",
            "outputs": [
                {
                    "internalType": "uint256",
                    "name": "",
                    "type": "uint256"
                }
            ],
            "stateMutability": "view",
            "type": "function"
        },
        {
            "inputs": [
                {
                    "internalType": "uint256",
                    "name": "planId",
                    "type": "uint256"
                }
            ],
            "name": "pay",
            "outputs": [],
            "stateMutability": "payable",
            "type": "function"
        },
        {
            "inputs": [
                {
                    "internalType": "uint256",
                    "name": "",
                    "type": "uint256"
                }
            ],
            "name": "plans",
            "outputs": [
                {
                    "internalType": "address",
                    "name": "merchant",
                    "type": "address"
                },
                {
                    "internalType": "uint256",
                    "name": "amount",
                    "type": "uint256"
                },
                {
                    "internalType": "uint256",
                    "name": "frequency",
                    "type": "uint256"
                },
                {
                    "internalType": "enum Payment.Target",
                    "name": "target",
                    "type": "uint8"
                }
            ],
            "stateMutability": "view",
            "type": "function"
        },
        {
            "inputs": [
                {
                    "internalType": "uint256",
                    "name": "planId",
                    "type": "uint256"
                }
            ],
            "name": "subscribe",
            "outputs": [],
            "stateMutability": "payable",
            "type": "function"
        },
        {
            "inputs": [
                {
                    "internalType": "address",
                    "name": "",
                    "type": "address"
                },
                {
                    "internalType": "uint256",
                    "name": "",
                    "type": "uint256"
                }
            ],
            "name": "subscriptions",
            "outputs": [
                {
                    "internalType": "address",
                    "name": "subscriber",
                    "type": "address"
                },
                {
                    "internalType": "uint256",
                    "name": "start",
                    "type": "uint256"
                },
                {
                    "internalType": "uint256",
                    "name": "nextPayment",
                    "type": "uint256"
                },
                {
                    "internalType": "bool",
                    "name": "isSubscribe",
                    "type": "bool"
                }
            ],
            "stateMutability": "view",
            "type": "function"
        }
    ],
    "bytecode": "0x608060405234801561001057600080fd5b506114f1806100206000396000f3fe60806040526004361061007b5760003560e01c8063623da3d11161004e578063623da3d11461011957806398de396a14610159578063b162061614610184578063c290d691146101c45761007b565b80630f574ba71461008057806340e58ee51461009c57806354380e8e146100c55780635f8d26b2146100ee575b600080fd5b61009a60048036038101906100959190610e11565b6101e0565b005b3480156100a857600080fd5b506100c360048036038101906100be9190610e11565b6104ee565b005b3480156100d157600080fd5b506100ec60048036038101906100e79190610e3a565b610646565b005b3480156100fa57600080fd5b50610103610870565b60405161011091906111cd565b60405180910390f35b34801561012557600080fd5b50610140600480360381019061013b9190610dd5565b610876565b6040516101509493929190611081565b60405180910390f35b34801561016557600080fd5b5061016e6108e0565b60405161017b919061110b565b60405180910390f35b34801561019057600080fd5b506101ab60048036038101906101a69190610e11565b610a85565b6040516101bb94939291906110c6565b60405180910390f35b6101de60048036038101906101d99190610e11565b610ae2565b005b6000600160008381526020019081526020016000209050600073ffffffffffffffffffffffffffffffffffffffff168160000160009054906101000a900473ffffffffffffffffffffffffffffffffffffffff1673ffffffffffffffffffffffffffffffffffffffff16141561028b576040517f08c379a00000000000000000000000000000000000000000000000000000000081526004016102829061116d565b60405180910390fd5b8060000160009054906101000a900473ffffffffffffffffffffffffffffffffffffffff1673ffffffffffffffffffffffffffffffffffffffff166108fc82600101549081150290604051600060405180830381858888f193505050501580156102f9573d6000803e3d6000fd5b50813373ffffffffffffffffffffffffffffffffffffffff167f577462848cc2ec95e5ef95bf0b154b97340221cd1002ea0511a3877a7f20fb8c8360000160009054906101000a900473ffffffffffffffffffffffffffffffffffffffff1684600101544260405161036d9392919061104a565b60405180910390a360405180608001604052803373ffffffffffffffffffffffffffffffffffffffff1681526020014281526020018260020154426103b29190611232565b815260200160011515815250600260003373ffffffffffffffffffffffffffffffffffffffff1673ffffffffffffffffffffffffffffffffffffffff168152602001908152602001600020600084815260200190815260200160002060008201518160000160006101000a81548173ffffffffffffffffffffffffffffffffffffffff021916908373ffffffffffffffffffffffffffffffffffffffff160217905550602082015181600101556040820151816002015560608201518160030160006101000a81548160ff021916908315150217905550905050813373ffffffffffffffffffffffffffffffffffffffff167feec977e786e7248a658b0474ccf8f57f37ead019014ec4d5ba1542ddabeff1b48360020154426104d59190611232565b6040516104e291906111cd565b60405180910390a35050565b6000600260003373ffffffffffffffffffffffffffffffffffffffff1673ffffffffffffffffffffffffffffffffffffffff16815260200190815260200160002060008381526020019081526020016000209050600073ffffffffffffffffffffffffffffffffffffffff168160000160009054906101000a900473ffffffffffffffffffffffffffffffffffffffff1673ffffffffffffffffffffffffffffffffffffffff1614156105d6576040517f08c379a00000000000000000000000000000000000000000000000000000000081526004016105cd9061114d565b60405180910390fd5b60008160030160006101000a81548160ff021916908315150217905550813373ffffffffffffffffffffffffffffffffffffffff167fde4047f3bd050ef9b8743c61b37fd72275056d1ccb33d1eb3f22c80cb14df2894260405161063a91906111cd565b60405180910390a35050565b60008311610689576040517f08c379a00000000000000000000000000000000000000000000000000000000081526004016106809061112d565b60405180910390fd5b600082116106cc576040517f08c379a00000000000000000000000000000000000000000000000000000000081526004016106c3906111ad565b60405180910390fd5b60405180608001604052803373ffffffffffffffffffffffffffffffffffffffff168152602001848152602001838152602001826002811115610738577f4e487b7100000000000000000000000000000000000000000000000000000000600052602160045260246000fd5b815250600160008054815260200190815260200160002060008201518160000160006101000a81548173ffffffffffffffffffffffffffffffffffffffff021916908373ffffffffffffffffffffffffffffffffffffffff160217905550602082015181600101556040820151816002015560608201518160030160006101000a81548160ff021916908360028111156107fb577f4e487b7100000000000000000000000000000000000000000000000000000000600052602160045260246000fd5b02179055509050506000543373ffffffffffffffffffffffffffffffffffffffff167f89d3f1cdfad4e5c26535ac23dc61cf9e975667801747518f01b1b653545d736a4260405161084c91906111cd565b60405180910390a3600080815480929190610866906112f5565b9190505550505050565b60005481565b6002602052816000526040600020602052806000526040600020600091509150508060000160009054906101000a900473ffffffffffffffffffffffffffffffffffffffff16908060010154908060020154908060030160009054906101000a900460ff16905084565b606060008054905060008167ffffffffffffffff81111561092a577f4e487b7100000000000000000000000000000000000000000000000000000000600052604160045260246000fd5b60405190808252806020026020018201604052801561096357816020015b610950610d3d565b8152602001906001900390816109485790505b50905060005b82811015610a7c5760006001600083815260200190815260200160002060010154905060006001600084815260200190815260200160002060020154905060006001600085815260200190815260200160002060030160009054906101000a900460ff1690506040518060600160405280848152602001838152602001826002811115610a1f577f4e487b7100000000000000000000000000000000000000000000000000000000600052602160045260246000fd5b815250858581518110610a5b577f4e487b7100000000000000000000000000000000000000000000000000000000600052603260045260246000fd5b60200260200101819052505050508080610a74906112f5565b915050610969565b50809250505090565b60016020528060005260406000206000915090508060000160009054906101000a900473ffffffffffffffffffffffffffffffffffffffff16908060010154908060020154908060030160009054906101000a900460ff16905084565b6000600260003373ffffffffffffffffffffffffffffffffffffffff1673ffffffffffffffffffffffffffffffffffffffff168152602001908152602001600020600083815260200190815260200160002090506000600160008481526020019081526020016000209050600073ffffffffffffffffffffffffffffffffffffffff168260000160009054906101000a900473ffffffffffffffffffffffffffffffffffffffff1673ffffffffffffffffffffffffffffffffffffffff161415610be1576040517f08c379a0000000000000000000000000000000000000000000000000000000008152600401610bd89061114d565b60405180910390fd5b81600201544211610c27576040517f08c379a0000000000000000000000000000000000000000000000000000000008152600401610c1e9061118d565b60405180910390fd5b8060000160009054906101000a900473ffffffffffffffffffffffffffffffffffffffff1673ffffffffffffffffffffffffffffffffffffffff166108fc349081150290604051600060405180830381858888f19350505050158015610c91573d6000803e3d6000fd5b50823373ffffffffffffffffffffffffffffffffffffffff167f577462848cc2ec95e5ef95bf0b154b97340221cd1002ea0511a3877a7f20fb8c8360000160009054906101000a900473ffffffffffffffffffffffffffffffffffffffff168460010154856002015442610d059190611232565b604051610d149392919061104a565b60405180910390a380600201548260020154610d309190611232565b8260020181905550505050565b6040518060600160405280600081526020016000815260200160006002811115610d90577f4e487b7100000000000000000000000000000000000000000000000000000000600052602160045260246000fd5b81525090565b600081359050610da58161147d565b92915050565b600081359050610dba81611494565b92915050565b600081359050610dcf816114a4565b92915050565b60008060408385031215610de857600080fd5b6000610df685828601610d96565b9250506020610e0785828601610dc0565b9150509250929050565b600060208284031215610e2357600080fd5b6000610e3184828501610dc0565b91505092915050565b600080600060608486031215610e4f57600080fd5b6000610e5d86828701610dc0565b9350506020610e6e86828701610dc0565b9250506040610e7f86828701610dab565b9150509250925092565b6000610e958383610fea565b60608301905092915050565b610eaa81611288565b82525050565b6000610ebb826111f8565b610ec58185611210565b9350610ed0836111e8565b8060005b83811015610f01578151610ee88882610e89565b9750610ef383611203565b925050600181019050610ed4565b5085935050505092915050565b610f178161129a565b82525050565b610f26816112e3565b82525050565b610f35816112e3565b82525050565b6000610f48601683611221565b9150610f538261139c565b602082019050919050565b6000610f6b602083611221565b9150610f76826113c5565b602082019050919050565b6000610f8e601883611221565b9150610f99826113ee565b602082019050919050565b6000610fb1600b83611221565b9150610fbc82611417565b602082019050919050565b6000610fd4601983611221565b9150610fdf82611440565b602082019050919050565b606082016000820151611000600085018261102c565b506020820151611013602085018261102c565b5060408201516110266040850182610f1d565b50505050565b611035816112d9565b82525050565b611044816112d9565b82525050565b600060608201905061105f6000830186610ea1565b61106c602083018561103b565b611079604083018461103b565b949350505050565b60006080820190506110966000830187610ea1565b6110a3602083018661103b565b6110b0604083018561103b565b6110bd6060830184610f0e565b95945050505050565b60006080820190506110db6000830187610ea1565b6110e8602083018661103b565b6110f5604083018561103b565b6111026060830184610f2c565b95945050505050565b600060208201905081810360008301526111258184610eb0565b905092915050565b6000602082019050818103600083015261114681610f3b565b9050919050565b6000602082019050818103600083015261116681610f5e565b9050919050565b6000602082019050818103600083015261118681610f81565b9050919050565b600060208201905081810360008301526111a681610fa4565b9050919050565b600060208201905081810360008301526111c681610fc7565b9050919050565b60006020820190506111e2600083018461103b565b92915050565b6000819050602082019050919050565b600081519050919050565b6000602082019050919050565b600082825260208201905092915050565b600082825260208201905092915050565b600061123d826112d9565b9150611248836112d9565b9250827fffffffffffffffffffffffffffffffffffffffffffffffffffffffffffffffff0382111561127d5761127c61133e565b5b828201905092915050565b6000611293826112b9565b9050919050565b60008115159050919050565b60008190506112b482611469565b919050565b600073ffffffffffffffffffffffffffffffffffffffff82169050919050565b6000819050919050565b60006112ee826112a6565b9050919050565b6000611300826112d9565b91507fffffffffffffffffffffffffffffffffffffffffffffffffffffffffffffffff8214156113335761133261133e565b5b600182019050919050565b7f4e487b7100000000000000000000000000000000000000000000000000000000600052601160045260246000fd5b7f4e487b7100000000000000000000000000000000000000000000000000000000600052602160045260246000fd5b7f616d6f756e74206e6565647320746f206265203e203000000000000000000000600082015250565b7f7468697320737562736372697074696f6e20646f6573206e6f74206578697374600082015250565b7f7468697320706c616e20646f6573206e6f742065786973740000000000000000600082015250565b7f6e6f742064756520796574000000000000000000000000000000000000000000600082015250565b7f6672657175656e6379206e6565647320746f206265203e203000000000000000600082015250565b6003811061147a5761147961136d565b5b50565b61148681611288565b811461149157600080fd5b50565b600381106114a157600080fd5b50565b6114ad816112d9565b81146114b857600080fd5b5056fea2646970667358221220246b1ab9156ee0661fcd41f7200971a86475a624c422a6a89c48e94486670abf64736f6c63430008010033",
    "linkReferences": {},
    "deployedLinkReferences": {}
}