{
    "contractAddress": "0x3917A34b221Be01c6CC162F6e8fcacE3B7777DD6",
    "_format": "hh-sol-artifact-1",
    "contractName": "Payment",
    "sourceName": "contracts/Payment.sol",
    "abi": [
        {
            "anonymous": false,
            "inputs": [
                {
                    "indexed": true,
                    "internalType": "address",
                    "name": "from",
                    "type": "address"
                },
                {
                    "indexed": false,
                    "internalType": "address",
                    "name": "to",
                    "type": "address"
                },
                {
                    "indexed": false,
                    "internalType": "uint256",
                    "name": "amount",
                    "type": "uint256"
                },
                {
                    "indexed": true,
                    "internalType": "uint256",
                    "name": "planId",
                    "type": "uint256"
                },
                {
                    "indexed": false,
                    "internalType": "uint256",
                    "name": "date",
                    "type": "uint256"
                }
            ],
            "name": "PaymentSent",
            "type": "event"
        },
        {
            "anonymous": false,
            "inputs": [
                {
                    "indexed": true,
                    "internalType": "address",
                    "name": "merchant",
                    "type": "address"
                },
                {
                    "indexed": true,
                    "internalType": "uint256",
                    "name": "planId",
                    "type": "uint256"
                },
                {
                    "indexed": false,
                    "internalType": "uint256",
                    "name": "date",
                    "type": "uint256"
                }
            ],
            "name": "PlanCreated",
            "type": "event"
        },
        {
            "anonymous": false,
            "inputs": [
                {
                    "indexed": true,
                    "internalType": "address",
                    "name": "subscriber",
                    "type": "address"
                },
                {
                    "indexed": true,
                    "internalType": "uint256",
                    "name": "planId",
                    "type": "uint256"
                },
                {
                    "indexed": false,
                    "internalType": "uint256",
                    "name": "date",
                    "type": "uint256"
                }
            ],
            "name": "SubscriptionCancelled",
            "type": "event"
        },
        {
            "anonymous": false,
            "inputs": [
                {
                    "indexed": true,
                    "internalType": "address",
                    "name": "subscriber",
                    "type": "address"
                },
                {
                    "indexed": true,
                    "internalType": "uint256",
                    "name": "planId",
                    "type": "uint256"
                },
                {
                    "indexed": false,
                    "internalType": "uint256",
                    "name": "date",
                    "type": "uint256"
                }
            ],
            "name": "SubscriptionCreated",
            "type": "event"
        },
        {
            "inputs": [
                {
                    "internalType": "uint256",
                    "name": "planId",
                    "type": "uint256"
                }
            ],
            "name": "cancel",
            "outputs": [],
            "stateMutability": "nonpayable",
            "type": "function"
        },
        {
            "inputs": [
                {
                    "internalType": "uint256",
                    "name": "amount",
                    "type": "uint256"
                },
                {
                    "internalType": "uint256",
                    "name": "frequency",
                    "type": "uint256"
                },
                {
                    "internalType": "enum Payment.Target",
                    "name": "target",
                    "type": "uint8"
                }
            ],
            "name": "createPlan",
            "outputs": [],
            "stateMutability": "nonpayable",
            "type": "function"
        },
        {
            "inputs": [],
            "name": "getAllPlans",
            "outputs": [
                {
                    "components": [
                        {
                            "internalType": "uint256",
                            "name": "planId",
                            "type": "uint256"
                        },
                        {
                            "internalType": "uint256",
                            "name": "amount",
                            "type": "uint256"
                        },
                        {
                            "internalType": "uint256",
                            "name": "frequency",
                            "type": "uint256"
                        },
                        {
                            "internalType": "enum Payment.Target",
                            "name": "target",
                            "type": "uint8"
                        }
                    ],
                    "internalType": "struct Payment.userPlan[]",
                    "name": "",
                    "type": "tuple[]"
                }
            ],
            "stateMutability": "view",
            "type": "function"
        },
        {
            "inputs": [],
            "name": "merchant",
            "outputs": [
                {
                    "internalType": "address",
                    "name": "",
                    "type": "address"
                }
            ],
            "stateMutability": "view",
            "type": "function"
        },
        {
            "inputs": [],
            "name": "nextPlanId",
            "outputs": [
                {
                    "internalType": "uint256",
                    "name": "",
                    "type": "uint256"
                }
            ],
            "stateMutability": "view",
            "type": "function"
        },
        {
            "inputs": [
                {
                    "internalType": "uint256",
                    "name": "planId",
                    "type": "uint256"
                }
            ],
            "name": "pay",
            "outputs": [],
            "stateMutability": "payable",
            "type": "function"
        },
        {
            "inputs": [
                {
                    "internalType": "uint256",
                    "name": "",
                    "type": "uint256"
                }
            ],
            "name": "plans",
            "outputs": [
                {
                    "internalType": "address",
                    "name": "merchant",
                    "type": "address"
                },
                {
                    "internalType": "uint256",
                    "name": "amount",
                    "type": "uint256"
                },
                {
                    "internalType": "uint256",
                    "name": "frequency",
                    "type": "uint256"
                },
                {
                    "internalType": "enum Payment.Target",
                    "name": "target",
                    "type": "uint8"
                }
            ],
            "stateMutability": "view",
            "type": "function"
        },
        {
            "inputs": [
                {
                    "internalType": "uint256",
                    "name": "planId",
                    "type": "uint256"
                }
            ],
            "name": "subscribe",
            "outputs": [],
            "stateMutability": "payable",
            "type": "function"
        },
        {
            "inputs": [
                {
                    "internalType": "address",
                    "name": "",
                    "type": "address"
                },
                {
                    "internalType": "uint256",
                    "name": "",
                    "type": "uint256"
                }
            ],
            "name": "subscriptions",
            "outputs": [
                {
                    "internalType": "address",
                    "name": "subscriber",
                    "type": "address"
                },
                {
                    "internalType": "uint256",
                    "name": "start",
                    "type": "uint256"
                },
                {
                    "internalType": "uint256",
                    "name": "nextPayment",
                    "type": "uint256"
                },
                {
                    "internalType": "bool",
                    "name": "isSubscribe",
                    "type": "bool"
                }
            ],
            "stateMutability": "view",
            "type": "function"
        }
    ],
    "bytecode": "0x608060405273f6d03c382509eae7c4b70b7639d237d80a5f6db2600160006101000a81548173ffffffffffffffffffffffffffffffffffffffff021916908373ffffffffffffffffffffffffffffffffffffffff16021790555034801561006557600080fd5b50611588806100756000396000f3fe6080604052600436106100865760003560e01c8063623da3d111610059578063623da3d11461012457806398de396a14610164578063a5ff76511461018f578063b1620616146101ba578063c290d691146101fa57610086565b80630f574ba71461008b57806340e58ee5146100a757806354380e8e146100d05780635f8d26b2146100f9575b600080fd5b6100a560048036038101906100a09190610e7a565b610216565b005b3480156100b357600080fd5b506100ce60048036038101906100c99190610e7a565b610524565b005b3480156100dc57600080fd5b506100f760048036038101906100f29190610ea3565b61067c565b005b34801561010557600080fd5b5061010e6108a6565b60405161011b9190611264565b60405180910390f35b34801561013057600080fd5b5061014b60048036038101906101469190610e3e565b6108ac565b60405161015b9493929190611118565b60405180910390f35b34801561017057600080fd5b50610179610916565b60405161018691906111a2565b60405180910390f35b34801561019b57600080fd5b506101a4610ac1565b6040516101b191906110c6565b60405180910390f35b3480156101c657600080fd5b506101e160048036038101906101dc9190610e7a565b610ae7565b6040516101f1949392919061115d565b60405180910390f35b610214600480360381019061020f9190610e7a565b610b44565b005b6000600260008381526020019081526020016000209050600073ffffffffffffffffffffffffffffffffffffffff168160000160009054906101000a900473ffffffffffffffffffffffffffffffffffffffff1673ffffffffffffffffffffffffffffffffffffffff1614156102c1576040517f08c379a00000000000000000000000000000000000000000000000000000000081526004016102b890611204565b60405180910390fd5b8060000160009054906101000a900473ffffffffffffffffffffffffffffffffffffffff1673ffffffffffffffffffffffffffffffffffffffff166108fc82600101549081150290604051600060405180830381858888f1935050505015801561032f573d6000803e3d6000fd5b50813373ffffffffffffffffffffffffffffffffffffffff167f577462848cc2ec95e5ef95bf0b154b97340221cd1002ea0511a3877a7f20fb8c8360000160009054906101000a900473ffffffffffffffffffffffffffffffffffffffff168460010154426040516103a3939291906110e1565b60405180910390a360405180608001604052803373ffffffffffffffffffffffffffffffffffffffff1681526020014281526020018260020154426103e891906112c9565b815260200160011515815250600360003373ffffffffffffffffffffffffffffffffffffffff1673ffffffffffffffffffffffffffffffffffffffff168152602001908152602001600020600084815260200190815260200160002060008201518160000160006101000a81548173ffffffffffffffffffffffffffffffffffffffff021916908373ffffffffffffffffffffffffffffffffffffffff160217905550602082015181600101556040820151816002015560608201518160030160006101000a81548160ff021916908315150217905550905050813373ffffffffffffffffffffffffffffffffffffffff167feec977e786e7248a658b0474ccf8f57f37ead019014ec4d5ba1542ddabeff1b483600201544261050b91906112c9565b6040516105189190611264565b60405180910390a35050565b6000600360003373ffffffffffffffffffffffffffffffffffffffff1673ffffffffffffffffffffffffffffffffffffffff16815260200190815260200160002060008381526020019081526020016000209050600073ffffffffffffffffffffffffffffffffffffffff168160000160009054906101000a900473ffffffffffffffffffffffffffffffffffffffff1673ffffffffffffffffffffffffffffffffffffffff16141561060c576040517f08c379a0000000000000000000000000000000000000000000000000000000008152600401610603906111e4565b60405180910390fd5b60008160030160006101000a81548160ff021916908315150217905550813373ffffffffffffffffffffffffffffffffffffffff167fde4047f3bd050ef9b8743c61b37fd72275056d1ccb33d1eb3f22c80cb14df289426040516106709190611264565b60405180910390a35050565b600083116106bf576040517f08c379a00000000000000000000000000000000000000000000000000000000081526004016106b6906111c4565b60405180910390fd5b60008211610702576040517f08c379a00000000000000000000000000000000000000000000000000000000081526004016106f990611244565b60405180910390fd5b60405180608001604052803373ffffffffffffffffffffffffffffffffffffffff16815260200184815260200183815260200182600281111561076e577f4e487b7100000000000000000000000000000000000000000000000000000000600052602160045260246000fd5b815250600260008054815260200190815260200160002060008201518160000160006101000a81548173ffffffffffffffffffffffffffffffffffffffff021916908373ffffffffffffffffffffffffffffffffffffffff160217905550602082015181600101556040820151816002015560608201518160030160006101000a81548160ff02191690836002811115610831577f4e487b7100000000000000000000000000000000000000000000000000000000600052602160045260246000fd5b02179055509050506000543373ffffffffffffffffffffffffffffffffffffffff167f89d3f1cdfad4e5c26535ac23dc61cf9e975667801747518f01b1b653545d736a426040516108829190611264565b60405180910390a360008081548092919061089c9061138c565b9190505550505050565b60005481565b6003602052816000526040600020602052806000526040600020600091509150508060000160009054906101000a900473ffffffffffffffffffffffffffffffffffffffff16908060010154908060020154908060030160009054906101000a900460ff16905084565b606060008054905060008167ffffffffffffffff811115610960577f4e487b7100000000000000000000000000000000000000000000000000000000600052604160045260246000fd5b60405190808252806020026020018201604052801561099957816020015b610986610d9f565b81526020019060019003908161097e5790505b50905060005b82811015610ab85760006002600083815260200190815260200160002060010154905060006002600084815260200190815260200160002060020154905060006002600085815260200190815260200160002060030160009054906101000a900460ff1690506040518060800160405280858152602001848152602001838152602001826002811115610a5b577f4e487b7100000000000000000000000000000000000000000000000000000000600052602160045260246000fd5b815250858581518110610a97577f4e487b7100000000000000000000000000000000000000000000000000000000600052603260045260246000fd5b60200260200101819052505050508080610ab09061138c565b91505061099f565b50809250505090565b600160009054906101000a900473ffffffffffffffffffffffffffffffffffffffff1681565b60026020528060005260406000206000915090508060000160009054906101000a900473ffffffffffffffffffffffffffffffffffffffff16908060010154908060020154908060030160009054906101000a900460ff16905084565b6000600360003373ffffffffffffffffffffffffffffffffffffffff1673ffffffffffffffffffffffffffffffffffffffff168152602001908152602001600020600083815260200190815260200160002090506000600260008481526020019081526020016000209050600073ffffffffffffffffffffffffffffffffffffffff168260000160009054906101000a900473ffffffffffffffffffffffffffffffffffffffff1673ffffffffffffffffffffffffffffffffffffffff161415610c43576040517f08c379a0000000000000000000000000000000000000000000000000000000008152600401610c3a906111e4565b60405180910390fd5b81600201544211610c89576040517f08c379a0000000000000000000000000000000000000000000000000000000008152600401610c8090611224565b60405180910390fd5b8060000160009054906101000a900473ffffffffffffffffffffffffffffffffffffffff1673ffffffffffffffffffffffffffffffffffffffff166108fc349081150290604051600060405180830381858888f19350505050158015610cf3573d6000803e3d6000fd5b50823373ffffffffffffffffffffffffffffffffffffffff167f577462848cc2ec95e5ef95bf0b154b97340221cd1002ea0511a3877a7f20fb8c8360000160009054906101000a900473ffffffffffffffffffffffffffffffffffffffff168460010154856002015442610d6791906112c9565b604051610d76939291906110e1565b60405180910390a380600201548260020154610d9291906112c9565b8260020181905550505050565b604051806080016040528060008152602001600081526020016000815260200160006002811115610df9577f4e487b7100000000000000000000000000000000000000000000000000000000600052602160045260246000fd5b81525090565b600081359050610e0e81611514565b92915050565b600081359050610e238161152b565b92915050565b600081359050610e388161153b565b92915050565b60008060408385031215610e5157600080fd5b6000610e5f85828601610dff565b9250506020610e7085828601610e29565b9150509250929050565b600060208284031215610e8c57600080fd5b6000610e9a84828501610e29565b91505092915050565b600080600060608486031215610eb857600080fd5b6000610ec686828701610e29565b9350506020610ed786828701610e29565b9250506040610ee886828701610e14565b9150509250925092565b6000610efe8383611053565b60808301905092915050565b610f138161131f565b82525050565b6000610f248261128f565b610f2e81856112a7565b9350610f398361127f565b8060005b83811015610f6a578151610f518882610ef2565b9750610f5c8361129a565b925050600181019050610f3d565b5085935050505092915050565b610f8081611331565b82525050565b610f8f8161137a565b82525050565b610f9e8161137a565b82525050565b6000610fb16016836112b8565b9150610fbc82611433565b602082019050919050565b6000610fd46020836112b8565b9150610fdf8261145c565b602082019050919050565b6000610ff76018836112b8565b915061100282611485565b602082019050919050565b600061101a600b836112b8565b9150611025826114ae565b602082019050919050565b600061103d6019836112b8565b9150611048826114d7565b602082019050919050565b60808201600082015161106960008501826110a8565b50602082015161107c60208501826110a8565b50604082015161108f60408501826110a8565b5060608201516110a26060850182610f86565b50505050565b6110b181611370565b82525050565b6110c081611370565b82525050565b60006020820190506110db6000830184610f0a565b92915050565b60006060820190506110f66000830186610f0a565b61110360208301856110b7565b61111060408301846110b7565b949350505050565b600060808201905061112d6000830187610f0a565b61113a60208301866110b7565b61114760408301856110b7565b6111546060830184610f77565b95945050505050565b60006080820190506111726000830187610f0a565b61117f60208301866110b7565b61118c60408301856110b7565b6111996060830184610f95565b95945050505050565b600060208201905081810360008301526111bc8184610f19565b905092915050565b600060208201905081810360008301526111dd81610fa4565b9050919050565b600060208201905081810360008301526111fd81610fc7565b9050919050565b6000602082019050818103600083015261121d81610fea565b9050919050565b6000602082019050818103600083015261123d8161100d565b9050919050565b6000602082019050818103600083015261125d81611030565b9050919050565b600060208201905061127960008301846110b7565b92915050565b6000819050602082019050919050565b600081519050919050565b6000602082019050919050565b600082825260208201905092915050565b600082825260208201905092915050565b60006112d482611370565b91506112df83611370565b9250827fffffffffffffffffffffffffffffffffffffffffffffffffffffffffffffffff03821115611314576113136113d5565b5b828201905092915050565b600061132a82611350565b9050919050565b60008115159050919050565b600081905061134b82611500565b919050565b600073ffffffffffffffffffffffffffffffffffffffff82169050919050565b6000819050919050565b60006113858261133d565b9050919050565b600061139782611370565b91507fffffffffffffffffffffffffffffffffffffffffffffffffffffffffffffffff8214156113ca576113c96113d5565b5b600182019050919050565b7f4e487b7100000000000000000000000000000000000000000000000000000000600052601160045260246000fd5b7f4e487b7100000000000000000000000000000000000000000000000000000000600052602160045260246000fd5b7f616d6f756e74206e6565647320746f206265203e203000000000000000000000600082015250565b7f7468697320737562736372697074696f6e20646f6573206e6f74206578697374600082015250565b7f7468697320706c616e20646f6573206e6f742065786973740000000000000000600082015250565b7f6e6f742064756520796574000000000000000000000000000000000000000000600082015250565b7f6672657175656e6379206e6565647320746f206265203e203000000000000000600082015250565b6003811061151157611510611404565b5b50565b61151d8161131f565b811461152857600080fd5b50565b6003811061153857600080fd5b50565b61154481611370565b811461154f57600080fd5b5056fea2646970667358221220b08698ff9fb88509a50332a1c219f6d9ed048b09dd5a7d1cc3f3c0d0e18de98a64736f6c63430008010033",
    "linkReferences": {},
    "deployedLinkReferences": {}
}