{
    "contractAddress": "0x38d7E3eF054e0c89091d391D38ba06F958e2fa2A",
    "_format": "hh-sol-artifact-1",
    "contractName": "SaleMusicToken",
    "sourceName": "contracts/SaleMusicToken.sol",
    "abi": [
        {
            "inputs": [
                {
                    "internalType": "address",
                    "name": "_mintMusicTokenAddress",
                    "type": "address"
                }
            ],
            "stateMutability": "nonpayable",
            "type": "constructor"
        },
        {
            "anonymous": false,
            "inputs": [
                {
                    "indexed": true,
                    "internalType": "uint256",
                    "name": "tokenID",
                    "type": "uint256"
                },
                {
                    "indexed": true,
                    "internalType": "uint256",
                    "name": "price",
                    "type": "uint256"
                },
                {
                    "indexed": true,
                    "internalType": "address",
                    "name": "buyer",
                    "type": "address"
                },
                {
                    "indexed": false,
                    "internalType": "address",
                    "name": "seller",
                    "type": "address"
                },
                {
                    "indexed": false,
                    "internalType": "uint256",
                    "name": "timeStamp",
                    "type": "uint256"
                }
            ],
            "name": "PurchaseChart",
            "type": "event"
        },
        {
            "inputs": [
                {
                    "internalType": "uint256",
                    "name": "_musicTokenId",
                    "type": "uint256"
                }
            ],
            "name": "cancelSaleMusicToken",
            "outputs": [],
            "stateMutability": "nonpayable",
            "type": "function"
        },
        {
            "inputs": [
                {
                    "internalType": "uint256",
                    "name": "_musicTokenId",
                    "type": "uint256"
                }
            ],
            "name": "getMusicTokenPrice",
            "outputs": [
                {
                    "internalType": "uint256",
                    "name": "",
                    "type": "uint256"
                }
            ],
            "stateMutability": "view",
            "type": "function"
        },
        {
            "inputs": [],
            "name": "getOnSaleMusicTokenArrayLength",
            "outputs": [
                {
                    "internalType": "uint256",
                    "name": "",
                    "type": "uint256"
                }
            ],
            "stateMutability": "view",
            "type": "function"
        },
        {
            "inputs": [],
            "name": "getOnSaleMusicTokens",
            "outputs": [
                {
                    "components": [
                        {
                            "internalType": "uint256",
                            "name": "musicTokenId",
                            "type": "uint256"
                        },
                        {
                            "internalType": "string",
                            "name": "musicTokenURI",
                            "type": "string"
                        },
                        {
                            "internalType": "uint256",
                            "name": "musicTokenPrice",
                            "type": "uint256"
                        }
                    ],
                    "internalType": "struct SaleMusicToken.OnSaleMusicTokenData[]",
                    "name": "",
                    "type": "tuple[]"
                }
            ],
            "stateMutability": "view",
            "type": "function"
        },
        {
            "inputs": [],
            "name": "mintMusicTokenAddress",
            "outputs": [
                {
                    "internalType": "contract MintMusicToken",
                    "name": "",
                    "type": "address"
                }
            ],
            "stateMutability": "view",
            "type": "function"
        },
        {
            "inputs": [
                {
                    "internalType": "uint256",
                    "name": "",
                    "type": "uint256"
                }
            ],
            "name": "musicTokenPrices",
            "outputs": [
                {
                    "internalType": "uint256",
                    "name": "",
                    "type": "uint256"
                }
            ],
            "stateMutability": "view",
            "type": "function"
        },
        {
            "inputs": [
                {
                    "internalType": "uint256",
                    "name": "",
                    "type": "uint256"
                }
            ],
            "name": "onSaleMusicTokenArray",
            "outputs": [
                {
                    "internalType": "uint256",
                    "name": "",
                    "type": "uint256"
                }
            ],
            "stateMutability": "view",
            "type": "function"
        },
        {
            "inputs": [
                {
                    "internalType": "uint256",
                    "name": "_musicTokenId",
                    "type": "uint256"
                }
            ],
            "name": "purchaseMusicToken",
            "outputs": [],
            "stateMutability": "payable",
            "type": "function"
        },
        {
            "inputs": [
                {
                    "internalType": "uint256",
                    "name": "_musicTokenId",
                    "type": "uint256"
                },
                {
                    "internalType": "uint256",
                    "name": "_price",
                    "type": "uint256"
                }
            ],
            "name": "setForSaleMusicToken",
            "outputs": [],
            "stateMutability": "nonpayable",
            "type": "function"
        }
    ],
    "bytecode": "0x60806040523480156200001157600080fd5b50604051620021d8380380620021d8833981810160405281019062000037919062000095565b806000806101000a81548173ffffffffffffffffffffffffffffffffffffffff021916908373ffffffffffffffffffffffffffffffffffffffff160217905550506200010f565b6000815190506200008f81620000f5565b92915050565b600060208284031215620000a857600080fd5b6000620000b8848285016200007e565b91505092915050565b6000620000ce82620000d5565b9050919050565b600073ffffffffffffffffffffffffffffffffffffffff82169050919050565b6200010081620000c1565b81146200010c57600080fd5b50565b6120b9806200011f6000396000f3fe6080604052600436106100865760003560e01c80639d63574e116100595780639d63574e1461015b578063a1a5c66214610177578063a1ac7618146101b4578063bb180656146101dd578063e22ee84d1461020857610086565b806322d889251461008b57806330aa7a49146100b65780633e3fb354146100f35780638382c64514610130575b600080fd5b34801561009757600080fd5b506100a0610231565b6040516100ad9190611b0b565b60405180910390f35b3480156100c257600080fd5b506100dd60048036038101906100d89190611628565b61023e565b6040516100ea9190611b0b565b60405180910390f35b3480156100ff57600080fd5b5061011a60048036038101906101159190611628565b610256565b6040516101279190611b0b565b60405180910390f35b34801561013c57600080fd5b5061014561027a565b60405161015291906119ae565b60405180910390f35b61017560048036038101906101709190611628565b610498565b005b34801561018357600080fd5b5061019e60048036038101906101999190611628565b610ac7565b6040516101ab9190611b0b565b60405180910390f35b3480156101c057600080fd5b506101db60048036038101906101d69190611651565b610ae4565b005b3480156101e957600080fd5b506101f2610f6c565b6040516101ff91906119d0565b60405180910390f35b34801561021457600080fd5b5061022f600480360381019061022a9190611628565b610f90565b005b6000600280549050905090565b60016020528060005260406000206000915090505481565b6002818154811061026657600080fd5b906000526020600020016000915090505481565b60606000610286610231565b905060008167ffffffffffffffff8111156102ca577f4e487b7100000000000000000000000000000000000000000000000000000000600052604160045260246000fd5b60405190808252806020026020018201604052801561030357816020015b6102f06114cd565b8152602001906001900390816102e85790505b50905060005b8281101561048f5760006002828154811061034d577f4e487b7100000000000000000000000000000000000000000000000000000000600052603260045260246000fd5b9060005260206000200154905060008060009054906101000a900473ffffffffffffffffffffffffffffffffffffffff1673ffffffffffffffffffffffffffffffffffffffff1663c87b56dd836040518263ffffffff1660e01b81526004016103b69190611b0b565b60006040518083038186803b1580156103ce57600080fd5b505afa1580156103e2573d6000803e3d6000fd5b505050506040513d6000823e3d601f19601f8201168201806040525081019061040b91906115e7565b9050600061041883610ac7565b905060405180606001604052808481526020018381526020018281525085858151811061046e577f4e487b7100000000000000000000000000000000000000000000000000000000600052603260045260246000fd5b6020026020010181905250505050808061048790611d9a565b915050610309565b50809250505090565b60006001600083815260200190815260200160002054905060008060009054906101000a900473ffffffffffffffffffffffffffffffffffffffff1673ffffffffffffffffffffffffffffffffffffffff16636352211e846040518263ffffffff1660e01b815260040161050c9190611b0b565b60206040518083038186803b15801561052457600080fd5b505afa158015610538573d6000803e3d6000fd5b505050506040513d601f19601f8201168201806040525081019061055c9190611595565b9050600082116105a1576040517f08c379a000000000000000000000000000000000000000000000000000000000815260040161059890611a2b565b60405180910390fd5b348211156105e4576040517f08c379a00000000000000000000000000000000000000000000000000000000081526004016105db90611acb565b60405180910390fd5b3373ffffffffffffffffffffffffffffffffffffffff168173ffffffffffffffffffffffffffffffffffffffff161415610653576040517f08c379a000000000000000000000000000000000000000000000000000000000815260040161064a90611aab565b60405180910390fd5b60008060009054906101000a900473ffffffffffffffffffffffffffffffffffffffff1673ffffffffffffffffffffffffffffffffffffffff1663558b573b856040518263ffffffff1660e01b81526004016106af9190611b0b565b60206040518083038186803b1580156106c757600080fd5b505afa1580156106db573d6000803e3d6000fd5b505050506040513d601f19601f820116820180604052508101906106ff9190611595565b90508173ffffffffffffffffffffffffffffffffffffffff166108fc61074260646107346065346114a190919063ffffffff16565b6114b790919063ffffffff16565b9081150290604051600060405180830381858888f1935050505015801561076d573d6000803e3d6000fd5b508073ffffffffffffffffffffffffffffffffffffffff166108fc61079c6065346114a190919063ffffffff16565b9081150290604051600060405180830381858888f193505050501580156107c7573d6000803e3d6000fd5b5060008054906101000a900473ffffffffffffffffffffffffffffffffffffffff1673ffffffffffffffffffffffffffffffffffffffff166342842e0e8333876040518463ffffffff1660e01b81526004016108259392919061194e565b600060405180830381600087803b15801561083f57600080fd5b505af1158015610853573d6000803e3d6000fd5b5050505060008054906101000a900473ffffffffffffffffffffffffffffffffffffffff1673ffffffffffffffffffffffffffffffffffffffff1663efbc69968560006040518363ffffffff1660e01b81526004016108b3929190611b26565b600060405180830381600087803b1580156108cd57600080fd5b505af11580156108e1573d6000803e3d6000fd5b505050503373ffffffffffffffffffffffffffffffffffffffff1634857fb3bc993af4432a19f7c7f0c8bd9eb48a87e4bde4d8b578e2a4d6a2ea356a63e3854260405161092f929190611985565b60405180910390a46000600160008681526020019081526020016000208190555060005b600280549050811015610ac057600060016000600284815481106109a0577f4e487b7100000000000000000000000000000000000000000000000000000000600052603260045260246000fd5b90600052602060002001548152602001908152602001600020541415610aad57600260016002805490506109d49190611c96565b81548110610a0b577f4e487b7100000000000000000000000000000000000000000000000000000000600052603260045260246000fd5b906000526020600020015460028281548110610a50577f4e487b7100000000000000000000000000000000000000000000000000000000600052603260045260246000fd5b90600052602060002001819055506002805480610a96577f4e487b7100000000000000000000000000000000000000000000000000000000600052603160045260246000fd5b600190038181906000526020600020016000905590555b8080610ab890611d9a565b915050610953565b5050505050565b600060016000838152602001908152602001600020549050919050565b60008060009054906101000a900473ffffffffffffffffffffffffffffffffffffffff1673ffffffffffffffffffffffffffffffffffffffff16636352211e846040518263ffffffff1660e01b8152600401610b409190611b0b565b60206040518083038186803b158015610b5857600080fd5b505afa158015610b6c573d6000803e3d6000fd5b505050506040513d601f19601f82011682018060405250810190610b909190611595565b90506000151560008054906101000a900473ffffffffffffffffffffffffffffffffffffffff1673ffffffffffffffffffffffffffffffffffffffff1663ad04b54c856040518263ffffffff1660e01b8152600401610bef9190611b0b565b60206040518083038186803b158015610c0757600080fd5b505afa158015610c1b573d6000803e3d6000fd5b505050506040513d601f19601f82011682018060405250810190610c3f91906115be565b151514610c81576040517f08c379a0000000000000000000000000000000000000000000000000000000008152600401610c78906119eb565b60405180910390fd5b3373ffffffffffffffffffffffffffffffffffffffff168173ffffffffffffffffffffffffffffffffffffffff1614610cef576040517f08c379a0000000000000000000000000000000000000000000000000000000008152600401610ce690611a4b565b60405180910390fd5b60008211610d32576040517f08c379a0000000000000000000000000000000000000000000000000000000008152600401610d2990611aeb565b60405180910390fd5b6000600160008581526020019081526020016000205414610d88576040517f08c379a0000000000000000000000000000000000000000000000000000000008152600401610d7f90611a8b565b60405180910390fd5b60008054906101000a900473ffffffffffffffffffffffffffffffffffffffff1673ffffffffffffffffffffffffffffffffffffffff1663e985e9c582306040518363ffffffff1660e01b8152600401610de3929190611925565b60206040518083038186803b158015610dfb57600080fd5b505afa158015610e0f573d6000803e3d6000fd5b505050506040513d601f19601f82011682018060405250810190610e3391906115be565b610e72576040517f08c379a0000000000000000000000000000000000000000000000000000000008152600401610e6990611a0b565b60405180910390fd5b610e996065610e8b6064856114a190919063ffffffff16565b6114b790919063ffffffff16565b600160008581526020019081526020016000208190555060008054906101000a900473ffffffffffffffffffffffffffffffffffffffff1673ffffffffffffffffffffffffffffffffffffffff1663efbc69968460016040518363ffffffff1660e01b8152600401610f0c929190611b26565b600060405180830381600087803b158015610f2657600080fd5b505af1158015610f3a573d6000803e3d6000fd5b505050506002839080600181540180825580915050600190039060005260206000200160009091909190915055505050565b60008054906101000a900473ffffffffffffffffffffffffffffffffffffffff1681565b60008060009054906101000a900473ffffffffffffffffffffffffffffffffffffffff1673ffffffffffffffffffffffffffffffffffffffff16636352211e836040518263ffffffff1660e01b8152600401610fec9190611b0b565b60206040518083038186803b15801561100457600080fd5b505afa158015611018573d6000803e3d6000fd5b505050506040513d601f19601f8201168201806040525081019061103c9190611595565b90506001151560008054906101000a900473ffffffffffffffffffffffffffffffffffffffff1673ffffffffffffffffffffffffffffffffffffffff1663ad04b54c846040518263ffffffff1660e01b815260040161109b9190611b0b565b60206040518083038186803b1580156110b357600080fd5b505afa1580156110c7573d6000803e3d6000fd5b505050506040513d601f19601f820116820180604052508101906110eb91906115be565b15151461112d576040517f08c379a000000000000000000000000000000000000000000000000000000000815260040161112490611a6b565b60405180910390fd5b3373ffffffffffffffffffffffffffffffffffffffff168173ffffffffffffffffffffffffffffffffffffffff161461119b576040517f08c379a000000000000000000000000000000000000000000000000000000000815260040161119290611a4b565b60405180910390fd5b60008054906101000a900473ffffffffffffffffffffffffffffffffffffffff1673ffffffffffffffffffffffffffffffffffffffff1663e985e9c582306040518363ffffffff1660e01b81526004016111f6929190611925565b60206040518083038186803b15801561120e57600080fd5b505afa158015611222573d6000803e3d6000fd5b505050506040513d601f19601f8201168201806040525081019061124691906115be565b611285576040517f08c379a000000000000000000000000000000000000000000000000000000000815260040161127c90611a0b565b60405180910390fd5b6000600160008481526020019081526020016000208190555060008054906101000a900473ffffffffffffffffffffffffffffffffffffffff1673ffffffffffffffffffffffffffffffffffffffff1663efbc69968360006040518363ffffffff1660e01b81526004016112fa929190611b26565b600060405180830381600087803b15801561131457600080fd5b505af1158015611328573d6000803e3d6000fd5b5050505060005b60028054905081101561149c576000600160006002848154811061137c577f4e487b7100000000000000000000000000000000000000000000000000000000600052603260045260246000fd5b9060005260206000200154815260200190815260200160002054141561148957600260016002805490506113b09190611c96565b815481106113e7577f4e487b7100000000000000000000000000000000000000000000000000000000600052603260045260246000fd5b90600052602060002001546002828154811061142c577f4e487b7100000000000000000000000000000000000000000000000000000000600052603260045260246000fd5b90600052602060002001819055506002805480611472577f4e487b7100000000000000000000000000000000000000000000000000000000600052603160045260246000fd5b600190038181906000526020600020016000905590555b808061149490611d9a565b91505061132f565b505050565b600081836114af9190611c0b565b905092915050565b600081836114c59190611c3c565b905092915050565b60405180606001604052806000815260200160608152602001600081525090565b60006115016114fc84611b74565b611b4f565b90508281526020810184848401111561151957600080fd5b611524848285611d36565b509392505050565b60008151905061153b8161203e565b92915050565b60008151905061155081612055565b92915050565b600082601f83011261156757600080fd5b81516115778482602086016114ee565b91505092915050565b60008135905061158f8161206c565b92915050565b6000602082840312156115a757600080fd5b60006115b58482850161152c565b91505092915050565b6000602082840312156115d057600080fd5b60006115de84828501611541565b91505092915050565b6000602082840312156115f957600080fd5b600082015167ffffffffffffffff81111561161357600080fd5b61161f84828501611556565b91505092915050565b60006020828403121561163a57600080fd5b600061164884828501611580565b91505092915050565b6000806040838503121561166457600080fd5b600061167285828601611580565b925050602061168385828601611580565b9150509250929050565b600061169983836118b7565b905092915050565b6116aa81611cca565b82525050565b60006116bb82611bb5565b6116c58185611bd8565b9350836020820285016116d785611ba5565b8060005b8581101561171357848403895281516116f4858261168d565b94506116ff83611bcb565b925060208a019950506001810190506116db565b50829750879550505050505092915050565b61172e81611cdc565b82525050565b61173d81611d12565b82525050565b600061174e82611bc0565b6117588185611be9565b9350611768818560208601611d36565b61177181611e70565b840191505092915050565b6000611789601683611bfa565b915061179482611e81565b602082019050919050565b60006117ac602883611bfa565b91506117b782611eaa565b604082019050919050565b60006117cf601583611bfa565b91506117da82611ef9565b602082019050919050565b60006117f2602083611bfa565b91506117fd82611f22565b602082019050919050565b6000611815601a83611bfa565b915061182082611f4b565b602082019050919050565b6000611838602483611bfa565b915061184382611f74565b604082019050919050565b600061185b602083611bfa565b915061186682611fc3565b602082019050919050565b600061187e601d83611bfa565b915061188982611fec565b602082019050919050565b60006118a1601783611bfa565b91506118ac82612015565b602082019050919050565b60006060830160008301516118cf6000860182611907565b50602083015184820360208601526118e78282611743565b91505060408301516118fc6040860182611907565b508091505092915050565b61191081611d08565b82525050565b61191f81611d08565b82525050565b600060408201905061193a60008301856116a1565b61194760208301846116a1565b9392505050565b600060608201905061196360008301866116a1565b61197060208301856116a1565b61197d6040830184611916565b949350505050565b600060408201905061199a60008301856116a1565b6119a76020830184611916565b9392505050565b600060208201905081810360008301526119c881846116b0565b905092915050565b60006020820190506119e56000830184611734565b92915050565b60006020820190508181036000830152611a048161177c565b9050919050565b60006020820190508181036000830152611a248161179f565b9050919050565b60006020820190508181036000830152611a44816117c2565b9050919050565b60006020820190508181036000830152611a64816117e5565b9050919050565b60006020820190508181036000830152611a8481611808565b9050919050565b60006020820190508181036000830152611aa48161182b565b9050919050565b60006020820190508181036000830152611ac48161184e565b9050919050565b60006020820190508181036000830152611ae481611871565b9050919050565b60006020820190508181036000830152611b0481611894565b9050919050565b6000602082019050611b206000830184611916565b92915050565b6000604082019050611b3b6000830185611916565b611b486020830184611725565b9392505050565b6000611b59611b6a565b9050611b658282611d69565b919050565b6000604051905090565b600067ffffffffffffffff821115611b8f57611b8e611e41565b5b611b9882611e70565b9050602081019050919050565b6000819050602082019050919050565b600081519050919050565b600081519050919050565b6000602082019050919050565b600082825260208201905092915050565b600082825260208201905092915050565b600082825260208201905092915050565b6000611c1682611d08565b9150611c2183611d08565b925082611c3157611c30611e12565b5b828204905092915050565b6000611c4782611d08565b9150611c5283611d08565b9250817fffffffffffffffffffffffffffffffffffffffffffffffffffffffffffffffff0483118215151615611c8b57611c8a611de3565b5b828202905092915050565b6000611ca182611d08565b9150611cac83611d08565b925082821015611cbf57611cbe611de3565b5b828203905092915050565b6000611cd582611ce8565b9050919050565b60008115159050919050565b600073ffffffffffffffffffffffffffffffffffffffff82169050919050565b6000819050919050565b6000611d1d82611d24565b9050919050565b6000611d2f82611ce8565b9050919050565b60005b83811015611d54578082015181840152602081019050611d39565b83811115611d63576000848401525b50505050565b611d7282611e70565b810181811067ffffffffffffffff82111715611d9157611d90611e41565b5b80604052505050565b6000611da582611d08565b91507fffffffffffffffffffffffffffffffffffffffffffffffffffffffffffffffff821415611dd857611dd7611de3565b5b600182019050919050565b7f4e487b7100000000000000000000000000000000000000000000000000000000600052601160045260246000fd5b7f4e487b7100000000000000000000000000000000000000000000000000000000600052601260045260246000fd5b7f4e487b7100000000000000000000000000000000000000000000000000000000600052604160045260246000fd5b6000601f19601f8301169050919050565b7f6d75736963546f6b656e206973206f6e2073616c652e00000000000000000000600082015250565b7f4d7573696320546f6b656e206f776e657220646964206e6f7420617070726f7660008201527f6520746f6b656e2e000000000000000000000000000000000000000000000000602082015250565b7f4d7573696320546f6b656e206e6f742073616c652e0000000000000000000000600082015250565b7f43616c6c6572206973206e6f74206d7573696320746f6b656e206f776e65722e600082015250565b7f6d75736963546f6b656e206973206e6f74206f6e2073616c652e000000000000600082015250565b7f54686973206d7573696320746f6b656e20697320616c7265616479206f6e207360008201527f616c652e00000000000000000000000000000000000000000000000000000000602082015250565b7f43616c6c6572206973206e6f74204d7573696320546f6b656e206f776e65722e600082015250565b7f43616c6c65722073656e74206c6f776572207468616e2070726963652e000000600082015250565b7f5072696365206973207a65726f206f72206c6f7765722e000000000000000000600082015250565b61204781611cca565b811461205257600080fd5b50565b61205e81611cdc565b811461206957600080fd5b50565b61207581611d08565b811461208057600080fd5b5056fea26469706673582212201ce59344742163b048ce98077168842108d14028de23f440bdd8267c986e682064736f6c63430008010033",
    "linkReferences": {},
    "deployedLinkReferences": {}
}