{
    "contractAddress": "0x51d29af42de2b3F7207c86024BE0A8472fb1Ad2A",
    "_format": "hh-sol-artifact-1",
    "contractName": "SaleMusicToken",
    "sourceName": "contracts/SaleMusicToken.sol",
    "abi": [
        {
            "inputs": [
                {
                    "internalType": "address",
                    "name": "_mintMusicTokenAddress",
                    "type": "address"
                }
            ],
            "stateMutability": "nonpayable",
            "type": "constructor"
        },
        {
            "anonymous": false,
            "inputs": [
                {
                    "indexed": true,
                    "internalType": "uint256",
                    "name": "tokenID",
                    "type": "uint256"
                },
                {
                    "indexed": true,
                    "internalType": "uint256",
                    "name": "price",
                    "type": "uint256"
                },
                {
                    "indexed": true,
                    "internalType": "address",
                    "name": "buyer",
                    "type": "address"
                },
                {
                    "indexed": false,
                    "internalType": "uint256",
                    "name": "timeStamp",
                    "type": "uint256"
                }
            ],
            "name": "PurchaseChart",
            "type": "event"
        },
        {
            "inputs": [
                {
                    "internalType": "uint256",
                    "name": "_musicTokenId",
                    "type": "uint256"
                }
            ],
            "name": "cancelSaleMusicToken",
            "outputs": [],
            "stateMutability": "nonpayable",
            "type": "function"
        },
        {
            "inputs": [
                {
                    "internalType": "uint256",
                    "name": "_musicTokenId",
                    "type": "uint256"
                }
            ],
            "name": "getMusicTokenPrice",
            "outputs": [
                {
                    "internalType": "uint256",
                    "name": "",
                    "type": "uint256"
                }
            ],
            "stateMutability": "view",
            "type": "function"
        },
        {
            "inputs": [],
            "name": "getOnSaleMusicTokenArrayLength",
            "outputs": [
                {
                    "internalType": "uint256",
                    "name": "",
                    "type": "uint256"
                }
            ],
            "stateMutability": "view",
            "type": "function"
        },
        {
            "inputs": [],
            "name": "getOnSaleMusicTokens",
            "outputs": [
                {
                    "components": [
                        {
                            "internalType": "uint256",
                            "name": "musicTokenId",
                            "type": "uint256"
                        },
                        {
                            "internalType": "string",
                            "name": "musicTokenURI",
                            "type": "string"
                        },
                        {
                            "internalType": "uint256",
                            "name": "musicTokenPrice",
                            "type": "uint256"
                        }
                    ],
                    "internalType": "struct SaleMusicToken.OnSaleMusicTokenData[]",
                    "name": "",
                    "type": "tuple[]"
                }
            ],
            "stateMutability": "view",
            "type": "function"
        },
        {
            "inputs": [],
            "name": "mintMusicTokenAddress",
            "outputs": [
                {
                    "internalType": "contract MintMusicToken",
                    "name": "",
                    "type": "address"
                }
            ],
            "stateMutability": "view",
            "type": "function"
        },
        {
            "inputs": [
                {
                    "internalType": "uint256",
                    "name": "",
                    "type": "uint256"
                }
            ],
            "name": "musicTokenPrices",
            "outputs": [
                {
                    "internalType": "uint256",
                    "name": "",
                    "type": "uint256"
                }
            ],
            "stateMutability": "view",
            "type": "function"
        },
        {
            "inputs": [
                {
                    "internalType": "uint256",
                    "name": "",
                    "type": "uint256"
                }
            ],
            "name": "onSaleMusicTokenArray",
            "outputs": [
                {
                    "internalType": "uint256",
                    "name": "",
                    "type": "uint256"
                }
            ],
            "stateMutability": "view",
            "type": "function"
        },
        {
            "inputs": [
                {
                    "internalType": "uint256",
                    "name": "_musicTokenId",
                    "type": "uint256"
                }
            ],
            "name": "purchaseMusicToken",
            "outputs": [],
            "stateMutability": "payable",
            "type": "function"
        },
        {
            "inputs": [
                {
                    "internalType": "uint256",
                    "name": "_musicTokenId",
                    "type": "uint256"
                },
                {
                    "internalType": "uint256",
                    "name": "_price",
                    "type": "uint256"
                }
            ],
            "name": "setForSaleMusicToken",
            "outputs": [],
            "stateMutability": "nonpayable",
            "type": "function"
        }
    ],
    "bytecode": "0x60806040523480156200001157600080fd5b50604051620021ad380380620021ad833981810160405281019062000037919062000095565b806000806101000a81548173ffffffffffffffffffffffffffffffffffffffff021916908373ffffffffffffffffffffffffffffffffffffffff160217905550506200010f565b6000815190506200008f81620000f5565b92915050565b600060208284031215620000a857600080fd5b6000620000b8848285016200007e565b91505092915050565b6000620000ce82620000d5565b9050919050565b600073ffffffffffffffffffffffffffffffffffffffff82169050919050565b6200010081620000c1565b81146200010c57600080fd5b50565b61208e806200011f6000396000f3fe6080604052600436106100865760003560e01c80639d63574e116100595780639d63574e1461015b578063a1a5c66214610177578063a1ac7618146101b4578063bb180656146101dd578063e22ee84d1461020857610086565b806322d889251461008b57806330aa7a49146100b65780633e3fb354146100f35780638382c64514610130575b600080fd5b34801561009757600080fd5b506100a0610231565b6040516100ad9190611ae0565b60405180910390f35b3480156100c257600080fd5b506100dd60048036038101906100d89190611626565b61023e565b6040516100ea9190611ae0565b60405180910390f35b3480156100ff57600080fd5b5061011a60048036038101906101159190611626565b610256565b6040516101279190611ae0565b60405180910390f35b34801561013c57600080fd5b5061014561027a565b6040516101529190611983565b60405180910390f35b61017560048036038101906101709190611626565b610498565b005b34801561018357600080fd5b5061019e60048036038101906101999190611626565b610ac5565b6040516101ab9190611ae0565b60405180910390f35b3480156101c057600080fd5b506101db60048036038101906101d6919061164f565b610ae2565b005b3480156101e957600080fd5b506101f2610f6a565b6040516101ff91906119a5565b60405180910390f35b34801561021457600080fd5b5061022f600480360381019061022a9190611626565b610f8e565b005b6000600280549050905090565b60016020528060005260406000206000915090505481565b6002818154811061026657600080fd5b906000526020600020016000915090505481565b60606000610286610231565b905060008167ffffffffffffffff8111156102ca577f4e487b7100000000000000000000000000000000000000000000000000000000600052604160045260246000fd5b60405190808252806020026020018201604052801561030357816020015b6102f06114cb565b8152602001906001900390816102e85790505b50905060005b8281101561048f5760006002828154811061034d577f4e487b7100000000000000000000000000000000000000000000000000000000600052603260045260246000fd5b9060005260206000200154905060008060009054906101000a900473ffffffffffffffffffffffffffffffffffffffff1673ffffffffffffffffffffffffffffffffffffffff1663c87b56dd836040518263ffffffff1660e01b81526004016103b69190611ae0565b60006040518083038186803b1580156103ce57600080fd5b505afa1580156103e2573d6000803e3d6000fd5b505050506040513d6000823e3d601f19601f8201168201806040525081019061040b91906115e5565b9050600061041883610ac5565b905060405180606001604052808481526020018381526020018281525085858151811061046e577f4e487b7100000000000000000000000000000000000000000000000000000000600052603260045260246000fd5b6020026020010181905250505050808061048790611d6f565b915050610309565b50809250505090565b60006001600083815260200190815260200160002054905060008060009054906101000a900473ffffffffffffffffffffffffffffffffffffffff1673ffffffffffffffffffffffffffffffffffffffff16636352211e846040518263ffffffff1660e01b815260040161050c9190611ae0565b60206040518083038186803b15801561052457600080fd5b505afa158015610538573d6000803e3d6000fd5b505050506040513d601f19601f8201168201806040525081019061055c9190611593565b9050600082116105a1576040517f08c379a000000000000000000000000000000000000000000000000000000000815260040161059890611a00565b60405180910390fd5b348211156105e4576040517f08c379a00000000000000000000000000000000000000000000000000000000081526004016105db90611aa0565b60405180910390fd5b3373ffffffffffffffffffffffffffffffffffffffff168173ffffffffffffffffffffffffffffffffffffffff161415610653576040517f08c379a000000000000000000000000000000000000000000000000000000000815260040161064a90611a80565b60405180910390fd5b60008060009054906101000a900473ffffffffffffffffffffffffffffffffffffffff1673ffffffffffffffffffffffffffffffffffffffff1663558b573b856040518263ffffffff1660e01b81526004016106af9190611ae0565b60206040518083038186803b1580156106c757600080fd5b505afa1580156106db573d6000803e3d6000fd5b505050506040513d601f19601f820116820180604052508101906106ff9190611593565b90508173ffffffffffffffffffffffffffffffffffffffff166108fc610742606461073460653461149f90919063ffffffff16565b6114b590919063ffffffff16565b9081150290604051600060405180830381858888f1935050505015801561076d573d6000803e3d6000fd5b508073ffffffffffffffffffffffffffffffffffffffff166108fc61079c60653461149f90919063ffffffff16565b9081150290604051600060405180830381858888f193505050501580156107c7573d6000803e3d6000fd5b5060008054906101000a900473ffffffffffffffffffffffffffffffffffffffff1673ffffffffffffffffffffffffffffffffffffffff166342842e0e8333876040518463ffffffff1660e01b81526004016108259392919061194c565b600060405180830381600087803b15801561083f57600080fd5b505af1158015610853573d6000803e3d6000fd5b5050505060008054906101000a900473ffffffffffffffffffffffffffffffffffffffff1673ffffffffffffffffffffffffffffffffffffffff1663efbc69968560006040518363ffffffff1660e01b81526004016108b3929190611afb565b600060405180830381600087803b1580156108cd57600080fd5b505af11580156108e1573d6000803e3d6000fd5b505050503373ffffffffffffffffffffffffffffffffffffffff1634857ff23cfa3c402875ccf14994836275c06cd0cf9b7fb953b3386f2a4f064a04abe34260405161092d9190611ae0565b60405180910390a46000600160008681526020019081526020016000208190555060005b600280549050811015610abe576000600160006002848154811061099e577f4e487b7100000000000000000000000000000000000000000000000000000000600052603260045260246000fd5b90600052602060002001548152602001908152602001600020541415610aab57600260016002805490506109d29190611c6b565b81548110610a09577f4e487b7100000000000000000000000000000000000000000000000000000000600052603260045260246000fd5b906000526020600020015460028281548110610a4e577f4e487b7100000000000000000000000000000000000000000000000000000000600052603260045260246000fd5b90600052602060002001819055506002805480610a94577f4e487b7100000000000000000000000000000000000000000000000000000000600052603160045260246000fd5b600190038181906000526020600020016000905590555b8080610ab690611d6f565b915050610951565b5050505050565b600060016000838152602001908152602001600020549050919050565b60008060009054906101000a900473ffffffffffffffffffffffffffffffffffffffff1673ffffffffffffffffffffffffffffffffffffffff16636352211e846040518263ffffffff1660e01b8152600401610b3e9190611ae0565b60206040518083038186803b158015610b5657600080fd5b505afa158015610b6a573d6000803e3d6000fd5b505050506040513d601f19601f82011682018060405250810190610b8e9190611593565b90506000151560008054906101000a900473ffffffffffffffffffffffffffffffffffffffff1673ffffffffffffffffffffffffffffffffffffffff1663ad04b54c856040518263ffffffff1660e01b8152600401610bed9190611ae0565b60206040518083038186803b158015610c0557600080fd5b505afa158015610c19573d6000803e3d6000fd5b505050506040513d601f19601f82011682018060405250810190610c3d91906115bc565b151514610c7f576040517f08c379a0000000000000000000000000000000000000000000000000000000008152600401610c76906119c0565b60405180910390fd5b3373ffffffffffffffffffffffffffffffffffffffff168173ffffffffffffffffffffffffffffffffffffffff1614610ced576040517f08c379a0000000000000000000000000000000000000000000000000000000008152600401610ce490611a20565b60405180910390fd5b60008211610d30576040517f08c379a0000000000000000000000000000000000000000000000000000000008152600401610d2790611ac0565b60405180910390fd5b6000600160008581526020019081526020016000205414610d86576040517f08c379a0000000000000000000000000000000000000000000000000000000008152600401610d7d90611a60565b60405180910390fd5b60008054906101000a900473ffffffffffffffffffffffffffffffffffffffff1673ffffffffffffffffffffffffffffffffffffffff1663e985e9c582306040518363ffffffff1660e01b8152600401610de1929190611923565b60206040518083038186803b158015610df957600080fd5b505afa158015610e0d573d6000803e3d6000fd5b505050506040513d601f19601f82011682018060405250810190610e3191906115bc565b610e70576040517f08c379a0000000000000000000000000000000000000000000000000000000008152600401610e67906119e0565b60405180910390fd5b610e976065610e8960648561149f90919063ffffffff16565b6114b590919063ffffffff16565b600160008581526020019081526020016000208190555060008054906101000a900473ffffffffffffffffffffffffffffffffffffffff1673ffffffffffffffffffffffffffffffffffffffff1663efbc69968460016040518363ffffffff1660e01b8152600401610f0a929190611afb565b600060405180830381600087803b158015610f2457600080fd5b505af1158015610f38573d6000803e3d6000fd5b505050506002839080600181540180825580915050600190039060005260206000200160009091909190915055505050565b60008054906101000a900473ffffffffffffffffffffffffffffffffffffffff1681565b60008060009054906101000a900473ffffffffffffffffffffffffffffffffffffffff1673ffffffffffffffffffffffffffffffffffffffff16636352211e836040518263ffffffff1660e01b8152600401610fea9190611ae0565b60206040518083038186803b15801561100257600080fd5b505afa158015611016573d6000803e3d6000fd5b505050506040513d601f19601f8201168201806040525081019061103a9190611593565b90506001151560008054906101000a900473ffffffffffffffffffffffffffffffffffffffff1673ffffffffffffffffffffffffffffffffffffffff1663ad04b54c846040518263ffffffff1660e01b81526004016110999190611ae0565b60206040518083038186803b1580156110b157600080fd5b505afa1580156110c5573d6000803e3d6000fd5b505050506040513d601f19601f820116820180604052508101906110e991906115bc565b15151461112b576040517f08c379a000000000000000000000000000000000000000000000000000000000815260040161112290611a40565b60405180910390fd5b3373ffffffffffffffffffffffffffffffffffffffff168173ffffffffffffffffffffffffffffffffffffffff1614611199576040517f08c379a000000000000000000000000000000000000000000000000000000000815260040161119090611a20565b60405180910390fd5b60008054906101000a900473ffffffffffffffffffffffffffffffffffffffff1673ffffffffffffffffffffffffffffffffffffffff1663e985e9c582306040518363ffffffff1660e01b81526004016111f4929190611923565b60206040518083038186803b15801561120c57600080fd5b505afa158015611220573d6000803e3d6000fd5b505050506040513d601f19601f8201168201806040525081019061124491906115bc565b611283576040517f08c379a000000000000000000000000000000000000000000000000000000000815260040161127a906119e0565b60405180910390fd5b6000600160008481526020019081526020016000208190555060008054906101000a900473ffffffffffffffffffffffffffffffffffffffff1673ffffffffffffffffffffffffffffffffffffffff1663efbc69968360006040518363ffffffff1660e01b81526004016112f8929190611afb565b600060405180830381600087803b15801561131257600080fd5b505af1158015611326573d6000803e3d6000fd5b5050505060005b60028054905081101561149a576000600160006002848154811061137a577f4e487b7100000000000000000000000000000000000000000000000000000000600052603260045260246000fd5b9060005260206000200154815260200190815260200160002054141561148757600260016002805490506113ae9190611c6b565b815481106113e5577f4e487b7100000000000000000000000000000000000000000000000000000000600052603260045260246000fd5b90600052602060002001546002828154811061142a577f4e487b7100000000000000000000000000000000000000000000000000000000600052603260045260246000fd5b90600052602060002001819055506002805480611470577f4e487b7100000000000000000000000000000000000000000000000000000000600052603160045260246000fd5b600190038181906000526020600020016000905590555b808061149290611d6f565b91505061132d565b505050565b600081836114ad9190611be0565b905092915050565b600081836114c39190611c11565b905092915050565b60405180606001604052806000815260200160608152602001600081525090565b60006114ff6114fa84611b49565b611b24565b90508281526020810184848401111561151757600080fd5b611522848285611d0b565b509392505050565b60008151905061153981612013565b92915050565b60008151905061154e8161202a565b92915050565b600082601f83011261156557600080fd5b81516115758482602086016114ec565b91505092915050565b60008135905061158d81612041565b92915050565b6000602082840312156115a557600080fd5b60006115b38482850161152a565b91505092915050565b6000602082840312156115ce57600080fd5b60006115dc8482850161153f565b91505092915050565b6000602082840312156115f757600080fd5b600082015167ffffffffffffffff81111561161157600080fd5b61161d84828501611554565b91505092915050565b60006020828403121561163857600080fd5b60006116468482850161157e565b91505092915050565b6000806040838503121561166257600080fd5b60006116708582860161157e565b92505060206116818582860161157e565b9150509250929050565b600061169783836118b5565b905092915050565b6116a881611c9f565b82525050565b60006116b982611b8a565b6116c38185611bad565b9350836020820285016116d585611b7a565b8060005b8581101561171157848403895281516116f2858261168b565b94506116fd83611ba0565b925060208a019950506001810190506116d9565b50829750879550505050505092915050565b61172c81611cb1565b82525050565b61173b81611ce7565b82525050565b600061174c82611b95565b6117568185611bbe565b9350611766818560208601611d0b565b61176f81611e45565b840191505092915050565b6000611787601683611bcf565b915061179282611e56565b602082019050919050565b60006117aa602883611bcf565b91506117b582611e7f565b604082019050919050565b60006117cd601583611bcf565b91506117d882611ece565b602082019050919050565b60006117f0602083611bcf565b91506117fb82611ef7565b602082019050919050565b6000611813601a83611bcf565b915061181e82611f20565b602082019050919050565b6000611836602483611bcf565b915061184182611f49565b604082019050919050565b6000611859602083611bcf565b915061186482611f98565b602082019050919050565b600061187c601d83611bcf565b915061188782611fc1565b602082019050919050565b600061189f601783611bcf565b91506118aa82611fea565b602082019050919050565b60006060830160008301516118cd6000860182611905565b50602083015184820360208601526118e58282611741565b91505060408301516118fa6040860182611905565b508091505092915050565b61190e81611cdd565b82525050565b61191d81611cdd565b82525050565b6000604082019050611938600083018561169f565b611945602083018461169f565b9392505050565b6000606082019050611961600083018661169f565b61196e602083018561169f565b61197b6040830184611914565b949350505050565b6000602082019050818103600083015261199d81846116ae565b905092915050565b60006020820190506119ba6000830184611732565b92915050565b600060208201905081810360008301526119d98161177a565b9050919050565b600060208201905081810360008301526119f98161179d565b9050919050565b60006020820190508181036000830152611a19816117c0565b9050919050565b60006020820190508181036000830152611a39816117e3565b9050919050565b60006020820190508181036000830152611a5981611806565b9050919050565b60006020820190508181036000830152611a7981611829565b9050919050565b60006020820190508181036000830152611a998161184c565b9050919050565b60006020820190508181036000830152611ab98161186f565b9050919050565b60006020820190508181036000830152611ad981611892565b9050919050565b6000602082019050611af56000830184611914565b92915050565b6000604082019050611b106000830185611914565b611b1d6020830184611723565b9392505050565b6000611b2e611b3f565b9050611b3a8282611d3e565b919050565b6000604051905090565b600067ffffffffffffffff821115611b6457611b63611e16565b5b611b6d82611e45565b9050602081019050919050565b6000819050602082019050919050565b600081519050919050565b600081519050919050565b6000602082019050919050565b600082825260208201905092915050565b600082825260208201905092915050565b600082825260208201905092915050565b6000611beb82611cdd565b9150611bf683611cdd565b925082611c0657611c05611de7565b5b828204905092915050565b6000611c1c82611cdd565b9150611c2783611cdd565b9250817fffffffffffffffffffffffffffffffffffffffffffffffffffffffffffffffff0483118215151615611c6057611c5f611db8565b5b828202905092915050565b6000611c7682611cdd565b9150611c8183611cdd565b925082821015611c9457611c93611db8565b5b828203905092915050565b6000611caa82611cbd565b9050919050565b60008115159050919050565b600073ffffffffffffffffffffffffffffffffffffffff82169050919050565b6000819050919050565b6000611cf282611cf9565b9050919050565b6000611d0482611cbd565b9050919050565b60005b83811015611d29578082015181840152602081019050611d0e565b83811115611d38576000848401525b50505050565b611d4782611e45565b810181811067ffffffffffffffff82111715611d6657611d65611e16565b5b80604052505050565b6000611d7a82611cdd565b91507fffffffffffffffffffffffffffffffffffffffffffffffffffffffffffffffff821415611dad57611dac611db8565b5b600182019050919050565b7f4e487b7100000000000000000000000000000000000000000000000000000000600052601160045260246000fd5b7f4e487b7100000000000000000000000000000000000000000000000000000000600052601260045260246000fd5b7f4e487b7100000000000000000000000000000000000000000000000000000000600052604160045260246000fd5b6000601f19601f8301169050919050565b7f6d75736963546f6b656e206973206f6e2073616c652e00000000000000000000600082015250565b7f4d7573696320546f6b656e206f776e657220646964206e6f7420617070726f7660008201527f6520746f6b656e2e000000000000000000000000000000000000000000000000602082015250565b7f4d7573696320546f6b656e206e6f742073616c652e0000000000000000000000600082015250565b7f43616c6c6572206973206e6f74206d7573696320746f6b656e206f776e65722e600082015250565b7f6d75736963546f6b656e206973206e6f74206f6e2073616c652e000000000000600082015250565b7f54686973206d7573696320746f6b656e20697320616c7265616479206f6e207360008201527f616c652e00000000000000000000000000000000000000000000000000000000602082015250565b7f43616c6c6572206973206e6f74204d7573696320546f6b656e206f776e65722e600082015250565b7f43616c6c65722073656e74206c6f776572207468616e2070726963652e000000600082015250565b7f5072696365206973207a65726f206f72206c6f7765722e000000000000000000600082015250565b61201c81611c9f565b811461202757600080fd5b50565b61203381611cb1565b811461203e57600080fd5b50565b61204a81611cdd565b811461205557600080fd5b5056fea264697066735822122054d9a48a0d9621f2554c636391186cab90259c1e3fb1127e911f034ce6d7a3d864736f6c63430008010033",
    "linkReferences": {},
    "deployedLinkReferences": {}
}