{
    "contractAddress": "0xf30eD9b8774f8237ebF688f525e5e680A05ec474",
    "_format": "hh-sol-artifact-1",
    "contractName": "Streaming",
    "sourceName": "contracts/Streaming.sol",
    "abi": [
        {
            "inputs": [
                {
                    "internalType": "address",
                    "name": "_mintMusicTokenAddress",
                    "type": "address"
                }
            ],
            "stateMutability": "nonpayable",
            "type": "constructor"
        },
        {
            "inputs": [],
            "name": "getLatestMusicToken",
            "outputs": [
                {
                    "components": [
                        {
                            "internalType": "uint256",
                            "name": "tokenId",
                            "type": "uint256"
                        },
                        {
                            "internalType": "string",
                            "name": "tokenURI",
                            "type": "string"
                        }
                    ],
                    "internalType": "struct Streaming.LatestMusicData[]",
                    "name": "",
                    "type": "tuple[]"
                }
            ],
            "stateMutability": "view",
            "type": "function"
        },
        {
            "inputs": [],
            "name": "getLatestMusicTokenAll",
            "outputs": [
                {
                    "internalType": "string[]",
                    "name": "",
                    "type": "string[]"
                }
            ],
            "stateMutability": "view",
            "type": "function"
        },
        {
            "inputs": [],
            "name": "getOldestMusicToken",
            "outputs": [
                {
                    "internalType": "string[]",
                    "name": "",
                    "type": "string[]"
                }
            ],
            "stateMutability": "view",
            "type": "function"
        },
        {
            "inputs": [],
            "name": "mintMusicTokenAddress",
            "outputs": [
                {
                    "internalType": "contract MintMusicToken",
                    "name": "",
                    "type": "address"
                }
            ],
            "stateMutability": "view",
            "type": "function"
        }
    ],
    "bytecode": "0x608060405234801561001057600080fd5b5060405162001153380380620011538339818101604052810190610034919061008f565b806000806101000a81548173ffffffffffffffffffffffffffffffffffffffff021916908373ffffffffffffffffffffffffffffffffffffffff16021790555050610101565b600081519050610089816100ea565b92915050565b6000602082840312156100a157600080fd5b60006100af8482850161007a565b91505092915050565b60006100c3826100ca565b9050919050565b600073ffffffffffffffffffffffffffffffffffffffff82169050919050565b6100f3816100b8565b81146100fe57600080fd5b50565b61104280620001116000396000f3fe608060405234801561001057600080fd5b506004361061004c5760003560e01c80633f200cf3146100515780635b2d66001461006f578063b70175881461008d578063bb180656146100ab575b600080fd5b6100596100c9565b6040516100669190610bf9565b60405180910390f35b610077610362565b6040516100849190610bf9565b60405180910390f35b6100956105ef565b6040516100a29190610c1b565b60405180910390f35b6100b36108fc565b6040516100c09190610c3d565b60405180910390f35b606060008060009054906101000a900473ffffffffffffffffffffffffffffffffffffffff1673ffffffffffffffffffffffffffffffffffffffff166318160ddd6040518163ffffffff1660e01b815260040160206040518083038186803b15801561013457600080fd5b505afa158015610148573d6000803e3d6000fd5b505050506040513d601f19601f8201168201806040525081019061016c91906109f8565b9050600081116101b1576040517f08c379a00000000000000000000000000000000000000000000000000000000081526004016101a890610c58565b60405180910390fd5b60008167ffffffffffffffff8111156101f3577f4e487b7100000000000000000000000000000000000000000000000000000000600052604160045260246000fd5b60405190808252806020026020018201604052801561022657816020015b60608152602001906001900390816102115790505b509050600080600190505b60018461023e9190610d88565b8110156103585760008054906101000a900473ffffffffffffffffffffffffffffffffffffffff1673ffffffffffffffffffffffffffffffffffffffff1663c87b56dd826040518263ffffffff1660e01b815260040161029e9190610c78565b60006040518083038186803b1580156102b657600080fd5b505afa1580156102ca573d6000803e3d6000fd5b505050506040513d6000823e3d601f19601f820116820180604052508101906102f391906109b7565b83838151811061032c577f4e487b7100000000000000000000000000000000000000000000000000000000600052603260045260246000fd5b6020026020010181905250818061034290610eee565b925050808061035090610eee565b915050610231565b5081935050505090565b606060008060009054906101000a900473ffffffffffffffffffffffffffffffffffffffff1673ffffffffffffffffffffffffffffffffffffffff166318160ddd6040518163ffffffff1660e01b815260040160206040518083038186803b1580156103cd57600080fd5b505afa1580156103e1573d6000803e3d6000fd5b505050506040513d601f19601f8201168201806040525081019061040591906109f8565b90506000811161044a576040517f08c379a000000000000000000000000000000000000000000000000000000000815260040161044190610c58565b60405180910390fd5b60008167ffffffffffffffff81111561048c577f4e487b7100000000000000000000000000000000000000000000000000000000600052604160045260246000fd5b6040519080825280602002602001820160405280156104bf57816020015b60608152602001906001900390816104aa5790505b5090506000808390505b60008111156105e55760008054906101000a900473ffffffffffffffffffffffffffffffffffffffff1673ffffffffffffffffffffffffffffffffffffffff1663c87b56dd826040518263ffffffff1660e01b815260040161052b9190610c78565b60006040518083038186803b15801561054357600080fd5b505afa158015610557573d6000803e3d6000fd5b505050506040513d6000823e3d601f19601f8201168201806040525081019061058091906109b7565b8383815181106105b9577f4e487b7100000000000000000000000000000000000000000000000000000000600052603260045260246000fd5b602002602001018190525081806105cf90610eee565b92505080806105dd90610e93565b9150506104c9565b5081935050505090565b606060008060009054906101000a900473ffffffffffffffffffffffffffffffffffffffff1673ffffffffffffffffffffffffffffffffffffffff166318160ddd6040518163ffffffff1660e01b815260040160206040518083038186803b15801561065a57600080fd5b505afa15801561066e573d6000803e3d6000fd5b505050506040513d601f19601f8201168201806040525081019061069291906109f8565b9050600081116106d7576040517f08c379a00000000000000000000000000000000000000000000000000000000081526004016106ce90610c58565b60405180910390fd5b6000600582106106ea5760059050610732565b60048214156106fc5760049050610731565b600382141561070e5760039050610730565b6002821415610720576002905061072f565b600182141561072e57600190505b5b5b5b5b60008167ffffffffffffffff811115610774577f4e487b7100000000000000000000000000000000000000000000000000000000600052604160045260246000fd5b6040519080825280602002602001820160405280156107ad57816020015b61079a610920565b8152602001906001900390816107925790505b5090506000808490505b83856107c39190610dde565b8111156108f157604051806040016040528082815260200160008054906101000a900473ffffffffffffffffffffffffffffffffffffffff1673ffffffffffffffffffffffffffffffffffffffff1663c87b56dd846040518263ffffffff1660e01b81526004016108349190610c78565b60006040518083038186803b15801561084c57600080fd5b505afa158015610860573d6000803e3d6000fd5b505050506040513d6000823e3d601f19601f8201168201806040525081019061088991906109b7565b8152508383815181106108c5577f4e487b7100000000000000000000000000000000000000000000000000000000600052603260045260246000fd5b602002602001018190525081806108db90610eee565b92505080806108e990610e93565b9150506107b7565b508194505050505090565b60008054906101000a900473ffffffffffffffffffffffffffffffffffffffff1681565b604051806040016040528060008152602001606081525090565b600061094d61094884610cb8565b610c93565b90508281526020810184848401111561096557600080fd5b610970848285610e60565b509392505050565b600082601f83011261098957600080fd5b815161099984826020860161093a565b91505092915050565b6000815190506109b181610ff5565b92915050565b6000602082840312156109c957600080fd5b600082015167ffffffffffffffff8111156109e357600080fd5b6109ef84828501610978565b91505092915050565b600060208284031215610a0a57600080fd5b6000610a18848285016109a2565b91505092915050565b6000610a2d8383610b42565b905092915050565b6000610a418383610b9e565b905092915050565b6000610a5482610d09565b610a5e8185610d44565b935083602082028501610a7085610ce9565b8060005b85811015610aac5784840389528151610a8d8582610a21565b9450610a9883610d2a565b925060208a01995050600181019050610a74565b50829750879550505050505092915050565b6000610ac982610d14565b610ad38185610d55565b935083602082028501610ae585610cf9565b8060005b85811015610b215784840389528151610b028582610a35565b9450610b0d83610d37565b925060208a01995050600181019050610ae9565b50829750879550505050505092915050565b610b3c81610e3c565b82525050565b6000610b4d82610d1f565b610b578185610d66565b9350610b67818560208601610e60565b610b7081610f95565b840191505092915050565b6000610b88602483610d77565b9150610b9382610fa6565b604082019050919050565b6000604083016000830151610bb66000860182610bdb565b5060208301518482036020860152610bce8282610b42565b9150508091505092915050565b610be481610e32565b82525050565b610bf381610e32565b82525050565b60006020820190508181036000830152610c138184610a49565b905092915050565b60006020820190508181036000830152610c358184610abe565b905092915050565b6000602082019050610c526000830184610b33565b92915050565b60006020820190508181036000830152610c7181610b7b565b9050919050565b6000602082019050610c8d6000830184610bea565b92915050565b6000610c9d610cae565b9050610ca98282610ebd565b919050565b6000604051905090565b600067ffffffffffffffff821115610cd357610cd2610f66565b5b610cdc82610f95565b9050602081019050919050565b6000819050602082019050919050565b6000819050602082019050919050565b600081519050919050565b600081519050919050565b600081519050919050565b6000602082019050919050565b6000602082019050919050565b600082825260208201905092915050565b600082825260208201905092915050565b600082825260208201905092915050565b600082825260208201905092915050565b6000610d9382610e32565b9150610d9e83610e32565b9250827fffffffffffffffffffffffffffffffffffffffffffffffffffffffffffffffff03821115610dd357610dd2610f37565b5b828201905092915050565b6000610de982610e32565b9150610df483610e32565b925082821015610e0757610e06610f37565b5b828203905092915050565b600073ffffffffffffffffffffffffffffffffffffffff82169050919050565b6000819050919050565b6000610e4782610e4e565b9050919050565b6000610e5982610e12565b9050919050565b60005b83811015610e7e578082015181840152602081019050610e63565b83811115610e8d576000848401525b50505050565b6000610e9e82610e32565b91506000821415610eb257610eb1610f37565b5b600182039050919050565b610ec682610f95565b810181811067ffffffffffffffff82111715610ee557610ee4610f66565b5b80604052505050565b6000610ef982610e32565b91507fffffffffffffffffffffffffffffffffffffffffffffffffffffffffffffffff821415610f2c57610f2b610f37565b5b600182019050919050565b7f4e487b7100000000000000000000000000000000000000000000000000000000600052601160045260246000fd5b7f4e487b7100000000000000000000000000000000000000000000000000000000600052604160045260246000fd5b6000601f19601f8301169050919050565b7f546865726520617265206e6f20746f6b656e7320696e2074686520636f6e747260008201527f6163742e00000000000000000000000000000000000000000000000000000000602082015250565b610ffe81610e32565b811461100957600080fd5b5056fea2646970667358221220433f25065093e6305d63ef8f85b1c8b51897158f6a0a6fc723981559b457832d64736f6c63430008010033",
    "linkReferences": {},
    "deployedLinkReferences": {}
}