{
    "contractAddress": "0x2cA00eE026D0b059F95dC2c5D55aA0142E74D28C",
    "_format": "hh-sol-artifact-1",
    "contractName": "Streaming",
    "sourceName": "contracts/Streaming.sol",
    "abi": [
        {
            "inputs": [
                {
                    "internalType": "address",
                    "name": "_mintMusicTokenAddress",
                    "type": "address"
                }
            ],
            "stateMutability": "nonpayable",
            "type": "constructor"
        },
        {
            "inputs": [],
            "name": "getLatestMusicToken",
            "outputs": [
                {
                    "components": [
                        {
                            "internalType": "uint256",
                            "name": "tokenId",
                            "type": "uint256"
                        },
                        {
                            "internalType": "string",
                            "name": "tokenURI",
                            "type": "string"
                        }
                    ],
                    "internalType": "struct Streaming.LatestMusicData[]",
                    "name": "",
                    "type": "tuple[]"
                }
            ],
            "stateMutability": "view",
            "type": "function"
        },
        {
            "inputs": [],
            "name": "getLatestMusicTokenAll",
            "outputs": [
                {
                    "components": [
                        {
                            "internalType": "uint256",
                            "name": "tokenId",
                            "type": "uint256"
                        },
                        {
                            "internalType": "string",
                            "name": "tokenURI",
                            "type": "string"
                        }
                    ],
                    "internalType": "struct Streaming.LatestMusicData[]",
                    "name": "",
                    "type": "tuple[]"
                }
            ],
            "stateMutability": "view",
            "type": "function"
        },
        {
            "inputs": [],
            "name": "getOldestMusicToken",
            "outputs": [
                {
                    "components": [
                        {
                            "internalType": "uint256",
                            "name": "tokenId",
                            "type": "uint256"
                        },
                        {
                            "internalType": "string",
                            "name": "tokenURI",
                            "type": "string"
                        }
                    ],
                    "internalType": "struct Streaming.LatestMusicData[]",
                    "name": "",
                    "type": "tuple[]"
                }
            ],
            "stateMutability": "view",
            "type": "function"
        },
        {
            "inputs": [],
            "name": "mintMusicTokenAddress",
            "outputs": [
                {
                    "internalType": "contract MintMusicToken",
                    "name": "",
                    "type": "address"
                }
            ],
            "stateMutability": "view",
            "type": "function"
        }
    ],
    "bytecode": "0x608060405234801561001057600080fd5b506040516110a03803806110a08339818101604052810190610032919061008d565b806000806101000a81548173ffffffffffffffffffffffffffffffffffffffff021916908373ffffffffffffffffffffffffffffffffffffffff160217905550506100ff565b600081519050610087816100e8565b92915050565b60006020828403121561009f57600080fd5b60006100ad84828501610078565b91505092915050565b60006100c1826100c8565b9050919050565b600073ffffffffffffffffffffffffffffffffffffffff82169050919050565b6100f1816100b6565b81146100fc57600080fd5b50565b610f928061010e6000396000f3fe608060405234801561001057600080fd5b506004361061004c5760003560e01c80633f200cf3146100515780635b2d66001461006f578063b70175881461008d578063bb180656146100ab575b600080fd5b6100596100c9565b6040516100669190610ba4565b60405180910390f35b61007761037c565b6040516100849190610ba4565b60405180910390f35b610095610623565b6040516100a29190610ba4565b60405180910390f35b6100b3610930565b6040516100c09190610bc6565b60405180910390f35b606060008060009054906101000a900473ffffffffffffffffffffffffffffffffffffffff1673ffffffffffffffffffffffffffffffffffffffff166318160ddd6040518163ffffffff1660e01b815260040160206040518083038186803b15801561013457600080fd5b505afa158015610148573d6000803e3d6000fd5b505050506040513d601f19601f8201168201806040525081019061016c9190610a2c565b9050600081116101b1576040517f08c379a00000000000000000000000000000000000000000000000000000000081526004016101a890610be1565b60405180910390fd5b60008167ffffffffffffffff8111156101f3577f4e487b7100000000000000000000000000000000000000000000000000000000600052604160045260246000fd5b60405190808252806020026020018201604052801561022c57816020015b610219610954565b8152602001906001900390816102115790505b509050600080600190505b6001846102449190610cd8565b81101561037257604051806040016040528082815260200160008054906101000a900473ffffffffffffffffffffffffffffffffffffffff1673ffffffffffffffffffffffffffffffffffffffff1663c87b56dd846040518263ffffffff1660e01b81526004016102b59190610c01565b60006040518083038186803b1580156102cd57600080fd5b505afa1580156102e1573d6000803e3d6000fd5b505050506040513d6000823e3d601f19601f8201168201806040525081019061030a91906109eb565b815250838381518110610346577f4e487b7100000000000000000000000000000000000000000000000000000000600052603260045260246000fd5b6020026020010181905250818061035c90610e3e565b925050808061036a90610e3e565b915050610237565b5081935050505090565b606060008060009054906101000a900473ffffffffffffffffffffffffffffffffffffffff1673ffffffffffffffffffffffffffffffffffffffff166318160ddd6040518163ffffffff1660e01b815260040160206040518083038186803b1580156103e757600080fd5b505afa1580156103fb573d6000803e3d6000fd5b505050506040513d601f19601f8201168201806040525081019061041f9190610a2c565b905060008111610464576040517f08c379a000000000000000000000000000000000000000000000000000000000815260040161045b90610be1565b60405180910390fd5b60008167ffffffffffffffff8111156104a6577f4e487b7100000000000000000000000000000000000000000000000000000000600052604160045260246000fd5b6040519080825280602002602001820160405280156104df57816020015b6104cc610954565b8152602001906001900390816104c45790505b5090506000808390505b600081111561061957604051806040016040528082815260200160008054906101000a900473ffffffffffffffffffffffffffffffffffffffff1673ffffffffffffffffffffffffffffffffffffffff1663c87b56dd846040518263ffffffff1660e01b815260040161055c9190610c01565b60006040518083038186803b15801561057457600080fd5b505afa158015610588573d6000803e3d6000fd5b505050506040513d6000823e3d601f19601f820116820180604052508101906105b191906109eb565b8152508383815181106105ed577f4e487b7100000000000000000000000000000000000000000000000000000000600052603260045260246000fd5b6020026020010181905250818061060390610e3e565b925050808061061190610de3565b9150506104e9565b5081935050505090565b606060008060009054906101000a900473ffffffffffffffffffffffffffffffffffffffff1673ffffffffffffffffffffffffffffffffffffffff166318160ddd6040518163ffffffff1660e01b815260040160206040518083038186803b15801561068e57600080fd5b505afa1580156106a2573d6000803e3d6000fd5b505050506040513d601f19601f820116820180604052508101906106c69190610a2c565b90506000811161070b576040517f08c379a000000000000000000000000000000000000000000000000000000000815260040161070290610be1565b60405180910390fd5b60006005821061071e5760059050610766565b60048214156107305760049050610765565b60038214156107425760039050610764565b60028214156107545760029050610763565b600182141561076257600190505b5b5b5b5b60008167ffffffffffffffff8111156107a8577f4e487b7100000000000000000000000000000000000000000000000000000000600052604160045260246000fd5b6040519080825280602002602001820160405280156107e157816020015b6107ce610954565b8152602001906001900390816107c65790505b5090506000808490505b83856107f79190610d2e565b81111561092557604051806040016040528082815260200160008054906101000a900473ffffffffffffffffffffffffffffffffffffffff1673ffffffffffffffffffffffffffffffffffffffff1663c87b56dd846040518263ffffffff1660e01b81526004016108689190610c01565b60006040518083038186803b15801561088057600080fd5b505afa158015610894573d6000803e3d6000fd5b505050506040513d6000823e3d601f19601f820116820180604052508101906108bd91906109eb565b8152508383815181106108f9577f4e487b7100000000000000000000000000000000000000000000000000000000600052603260045260246000fd5b6020026020010181905250818061090f90610e3e565b925050808061091d90610de3565b9150506107eb565b508194505050505090565b60008054906101000a900473ffffffffffffffffffffffffffffffffffffffff1681565b604051806040016040528060008152602001606081525090565b600061098161097c84610c41565b610c1c565b90508281526020810184848401111561099957600080fd5b6109a4848285610db0565b509392505050565b600082601f8301126109bd57600080fd5b81516109cd84826020860161096e565b91505092915050565b6000815190506109e581610f45565b92915050565b6000602082840312156109fd57600080fd5b600082015167ffffffffffffffff811115610a1757600080fd5b610a23848285016109ac565b91505092915050565b600060208284031215610a3e57600080fd5b6000610a4c848285016109d6565b91505092915050565b6000610a618383610b49565b905092915050565b6000610a7482610c82565b610a7e8185610ca5565b935083602082028501610a9085610c72565b8060005b85811015610acc5784840389528151610aad8582610a55565b9450610ab883610c98565b925060208a01995050600181019050610a94565b50829750879550505050505092915050565b610ae781610d8c565b82525050565b6000610af882610c8d565b610b028185610cb6565b9350610b12818560208601610db0565b610b1b81610ee5565b840191505092915050565b6000610b33602483610cc7565b9150610b3e82610ef6565b604082019050919050565b6000604083016000830151610b616000860182610b86565b5060208301518482036020860152610b798282610aed565b9150508091505092915050565b610b8f81610d82565b82525050565b610b9e81610d82565b82525050565b60006020820190508181036000830152610bbe8184610a69565b905092915050565b6000602082019050610bdb6000830184610ade565b92915050565b60006020820190508181036000830152610bfa81610b26565b9050919050565b6000602082019050610c166000830184610b95565b92915050565b6000610c26610c37565b9050610c328282610e0d565b919050565b6000604051905090565b600067ffffffffffffffff821115610c5c57610c5b610eb6565b5b610c6582610ee5565b9050602081019050919050565b6000819050602082019050919050565b600081519050919050565b600081519050919050565b6000602082019050919050565b600082825260208201905092915050565b600082825260208201905092915050565b600082825260208201905092915050565b6000610ce382610d82565b9150610cee83610d82565b9250827fffffffffffffffffffffffffffffffffffffffffffffffffffffffffffffffff03821115610d2357610d22610e87565b5b828201905092915050565b6000610d3982610d82565b9150610d4483610d82565b925082821015610d5757610d56610e87565b5b828203905092915050565b600073ffffffffffffffffffffffffffffffffffffffff82169050919050565b6000819050919050565b6000610d9782610d9e565b9050919050565b6000610da982610d62565b9050919050565b60005b83811015610dce578082015181840152602081019050610db3565b83811115610ddd576000848401525b50505050565b6000610dee82610d82565b91506000821415610e0257610e01610e87565b5b600182039050919050565b610e1682610ee5565b810181811067ffffffffffffffff82111715610e3557610e34610eb6565b5b80604052505050565b6000610e4982610d82565b91507fffffffffffffffffffffffffffffffffffffffffffffffffffffffffffffffff821415610e7c57610e7b610e87565b5b600182019050919050565b7f4e487b7100000000000000000000000000000000000000000000000000000000600052601160045260246000fd5b7f4e487b7100000000000000000000000000000000000000000000000000000000600052604160045260246000fd5b6000601f19601f8301169050919050565b7f546865726520617265206e6f20746f6b656e7320696e2074686520636f6e747260008201527f6163742e00000000000000000000000000000000000000000000000000000000602082015250565b610f4e81610d82565b8114610f5957600080fd5b5056fea264697066735822122063cc3528e9a7509a0d2b29727f97dd5b6d80fe669bfb87519e2f2a600b68160b64736f6c63430008010033",
    "linkReferences": {},
    "deployedLinkReferences": {}
}